:10000000C0410020FD32000089BD0000E93200003F
:10001000E9320000E9320000E9320000E932000074
:10002000000000000000000000000000613400003B
:10003000E932000000000000F9330000E93200005E
:10004000E5350000E5350000E5350000E535000048
:10005000E5350000E5350000E5350000E535000038
:10006000E5350000E5350000E5350000E535000028
:10007000E5350000E5350000E5350000E535000018
:10008000E5350000E5350000E5350000E535000008
:10009000E5350000E5350000E5350000E5350000F8
:1000A000E5350000E5350000E5350000E5350000E8
:1000B000E5350000E5350000E5350000E5350000D8
:1000C000E5350000E5350000E5350000E5350000C8
:1000D000E5350000E5350000E5350000E5350000B8
:1000E000E5350000E5350000E5350000E5350000A8
:1000F000E5350000E5350000E5350000E535000098
:10010000E5350000E5350000E5350000E535000087
:10011000E5350000E5350000E5350000E535000077
:10012000E5350000E5350000E5350000E535000067
:10013000E5350000E5350000E5350000E535000057
:10014000E5350000E5350000E5350000E535000047
:04015000E535000091
:1001540053B94AB9002908BF00281CBF4FF0FF312A
:100164004FF0FF3000F00CB8ADF1080C6DE904CE8F
:1001740000F01AF8DDF804E0DDE9022304B070476A
:10018400704700BF10F8012B11F8013B012A28BF6A
:100194009A42F7D0D01A7047034613F8012B002A6D
:1001A400FBD1181A013870472DE9F04786468C4672
:1001B4000846089E154674461946002B40F0C18037
:1001C4008542B2FA82F245D94AB1C2F1200300FA5B
:1001D40002FC954094402EFA03F343EA0C0C4FEAD8
:1001E400154EA8B2230CBCFBFEF80EFB18CC08FB82
:1001F40000F943EA0C43994528D9EB1808F1FF3775
:1002040004D2994502D9A8F102072B44A3EB0903B0
:10021400A4B2B3FBFEFC0EFB1C330CFB00F044EA5F
:100224000344A04214D92C190CF1FF3304D2A04288
:1002340002D9ACF102032C44241A43EA07401EB14C
:10024400D440002334607360BDE8F0874746DDE79F
:100254006346F1E792BB431B01214FEA154EAFB24F
:10026400200CB3FBFEFC0EFB1C330CFB07F840EA2E
:100274000343984561D9EB180CF1FF3004D298453B
:1002840002D9ACF102002B44A3EB0803A4B2B3FBE4
:10029400FEFC0EFB1C330CFB07F744EA0344A742A5
:1002A4004DD92C190CF1FF3304D2A74202D9ACF179
:1002B40002032C44E41B43EA0040C0E7C2F12003DC
:1002C4009540944020FA03F12EFA03F34FEA154EB9
:1002D4009040AFB20343B1FBFEFC0EFB1C10190CA3
:1002E4000CFB07F841EA0041884522D969180CF152
:1002F400FF3004D2884502D9ACF102002944A1EBB5
:1003040008019BB2B1FBFEFC0EFB1C110CFB07F7B2
:1003140043EA01439F420ED9EB180CF1FF3104D29A
:100324009F4202D9ACF102012B44DB1B41EA00419C
:1003340093E76046E3E76146F7E76046A4E7634670
:10034400B8E7834206D916B9002108467CE7C6E916
:1003540000E0F9E7B3FA83F78FB9834201D372451A
:1003640008D8BEEB020460EB030301209C461EB9CF
:10037400002169E73846FAE7C6E9004CF8E7C7F117
:10038400200CBB400EFA07F522FA0CF42EFA0CF1FD
:10039400BA401C4320FA0CF3B8404FEA1449014315
:1003A4001FFA84FEB3FBF9F809FB18300B0C08FBA9
:1003B4000EFA43EA00439A4540D9E31808F1FF30A6
:1003C40004D29A4502D9A8F102002344A3EB0A03FC
:1003D40089B2B3FBF9F809FB183308FB0EFE41EAB6
:1003E40003418E452CD9611808F1FF3304D28E45A0
:1003F40002D9A8F10203214443EA0040A1EB0E0113
:10040400A0FB02984145CE46434602D306D14D4552
:1004140004D20138B9EB020E68EB0403002EA7D016
:10042400B5EB0E0261EB030101FA0CFC22FA07F3AF
:10043400F9404CEA0303C6E9003199E74046C5E7B1
:100444004346D9E72DE9F041C588876828460BF073
:100454002DFD0446284603F031FE031E2DDA002C40
:1004640067D0354B012F1A7858D122431A70334B79
:10047400186800285DD0304B314A1B78314913701D
:1004840000230C68304D02F8013FA3422CBF002129
:10049400E95C0133062B02F8011FF6D10023082280
:1004A400274903F08BFD0346002842D0BDE8F04104
:1004B4000221264A26480BF05DBB224D224E8CB108
:1004C4001D4A012F117825D121431170002228687B
:1004D4001D49DCB2824224D1062AC8D0511C2960AD
:1004E400B354C4E7012FF1D000202C68164ADBB2C4
:1004F400A042BCD012F8017B411C9F4217D1671E59
:100504003A1A8C4238BF0022304431440CF029FDA1
:100514002F60ACE721EA04011170E5E722EA040246
:10052400A4E711F8017BA742A1D00132D2E7084623
:10053400DEE7BDE8F08100BFB0280020C81200202B
:10054400B7280020CC120020B12800206EDB000068
:1005540048D5000098B500AF294808F0CFFB294CD6
:10056400206028B928480AF0C4FE0020BD4698BD82
:1005740000233F22254903F00BFD20680BF08CFC7F
:1005840008B12348EFE701F0C9FF08B12148EAE7C1
:10059400214C20460CF0FAF8034698B921686C46C1
:1005A40088B06A461D48C2E905014FF40071918381
:1005B4001B4942F8101F4FF4E2511A4801F0B2F8F7
:1005C400A546D2E718480CF0E1F8B0B1174C204624
:1005D4000CF0DCF850B12269A1681368204643F09E
:1005E400805313600B68124A1C2198474FF0FF3167
:1005F4004FF0FF300CF054FBF8E70E48B3E700BFB0
:1006040083DB0000C812002089DB0000FEDB000051
:100614009FDB0000B4DB0000E4D10000C7DB000076
:100624000300000148D500000CD2000094D1000062
:1006340001000A00E8DB0000F0B587B000AF4568B0
:10064400064612220021B81D0CF0A5FCEA69224BD3
:10065400B3FBF2F31022BB60AB683A71FB606B68CA
:1006640002223B614FF47A737A717B612868836854
:1006740001211B683A1D9847041E06DB0023297BD1
:10068400DAB291420BD8002405E001212346134A33
:1006940013480BF06FFA20461C37BD46F0BD6A695B
:1006A400D25C0133042AEBD96C4688B06A463368BD
:1006B4000C49C2E905134FF4007393830A4B42F8C3
:1006C400103F00234FF4E251054801F02BF8A546F2
:1006D4006FF01504DFE700BF40420F0042DC00006A
:1006E400A0D500005CDC0000030000012DE9F34705
:1006F400456800230C461646A8684FF4A02201A9B9
:1007040095F8247095F8259095F8268008F0D8FC83
:10071400031EC7F100070ADA0121404A40480BF0E2
:1007240029FA6FF00B04204602B0BDE8F087214699
:10073400019806EB860640F8047B2644B1424CD16E
:100744000023298B9AB2914249D828686A68836841
:100754000199DB689847041E45DA0199A8680CF0F2
:100764006DF8012123462F4A2D480BF003FADAE7EE
:100774006B699B5C042B29D8DFE803F02403202257
:1007840026000A784FF0080C4FF0800E002312EA7E
:100794000E0F0CBFC246CA46BCF1010C4AEA031351
:1007A4004FEA5E0EF3D187EA334340F8043B013449
:1007B4002B7BE2B29342DBD80531BFE74A78E1E70D
:1007C4008A78DFE7CA78DDE70A79DBE70199A86868
:1007D4000CF034F86FF01504A5E70024E8E740F8BE
:1007E40023700133ADE728688368002201211B6967
:1007F4009847041E97DB28688368022201211B693D
:100804009847041E8FDBD5E907206B689B0802FB21
:10081400030009F0CBFA002485E700BF77DC000071
:10082400A0D5000091DC00002DE9F04F91B00093B9
:1008340002F004030293C2F3C203013384070546A2
:100844000E46DDF868800392059340F0BB81041DD9
:1008540030B1072909D86FF01B0011B0BDE8F08F43
:1008640001F007063444C6F10806009B4FF0000966
:100874004FF0040A591E4FF0FF334F460193CB4605
:100884005346CDF810900DB1009A226005980028C7
:1008940000F3E8809848009A824203D39748824242
:1008A400C0F0E080039AA4EB050E92074FEA9E0085
:1008B40000F103810F2F00F2B180002D00F00581BB
:1008C40007F140020DEB020C019A0CF8200C0CF815
:1008D400102C049801300490E7E07A285DD84B2866
:1008E4000ED8472859D829282DD8252852D054D88D
:1008F40020287AD02338D0F1000B4BEB000B74E0A6
:100904004C382E2849D8DFE800F070484848484859
:100914004848484848484B4848484848484848593F
:10092400484B4B595959704B6D487048184B1848EF
:1009340048827F4B48484B487F0000204FF0000B13
:100944004FF0040A38E001222A38C0B202FA00F05B
:1009540010EA0E0F49D110F0625C2FD110EA020B9D
:1009640043D06046013C5444B4FBFAF40AFB04F45B
:10097400002D61D0A3EB050CA444B4453FF66BAF46
:10098400002868D1042B47D158F8043B2360042382
:1009940004342AE0019A013A01924FF0000B24E05A
:1009A40011F8010C6C2834D1002011F8023C834664
:1009B4006C2BC5D14FF0080A5346D3E708F107085A
:1009C40028F00708073424F00704F8E802AB35B12F
:1009D40006982044B0423FF63EAFC4E900AB4FF066
:1009E400000B08344FF0080A534611F8010F002891
:1009F40078D0BBF1000F7FF470AF2528F5D14FF00C
:100A0400010B019B013301934FF0040AECE75846B4
:100A140094E700208346A5E7082B02D06FF0150069
:100A24001BE708F1070828F00708F8E80223C4E9DF
:100A3400002308230834D8E768B9042B02D108F14D
:100A44000408A4E7082BE9D108F1070828F00708EF
:100A540008F10808EDE7059A013A059258F8042BC5
:100A6400009210E7039A900720D54FF0010CA4EBF5
:100A7400050E4FEA9E00BEF5007FCFD20F2FCDD8D2
:100A8400F5B107F140020DEB020E019AC0B20EF867
:100A9400200C0EF8102CBCF1000F3FF41AAF60F0DC
:100AA4007F000EF8200C09F101090137C5F1080295
:100AB4004FF6DA7E0434069297E74FF0000CDAE73B
:100AC400BCF1000F01D00136EFE70298023600288E
:100AD400EBD10098CDE90631FFF75EFBDDE9063185
:100AE4000644E2E7631BB3F5806F97D245B9A6F1DC
:100AF4000804E018B1E600BFB4D000004CF10000D7
:100B0400029A9B0828602B709DF81030C2B1EB70DC
:100B140085F80290B9F1000F05D0002208A8C5F1AC
:100B2400010C97420ED14FF0000AC5F101030DF1FB
:100B3400200801930DF1300B574512D1601B8CE650
:100B44006B70E5E710F8013B190608D50CEB040EB1
:100B5400B64503F07F033FF67EAE04F8013B013255
:100B6400DFE7B9F1000F03D098F90020002A17DB62
:100B7400029BD3B11AF80B2004F8012B0022019B2D
:100B840018191044B0423FF666AE98F80000009978
:100B940004F8010B204603920CF0D6F9039A14448E
:100BA4000AF1010A08F10108C6E798F8002055F88F
:100BB40022300093029B009845F82230FFF7ECFAAC
:100BC400421CDCE76FF00D0047E600BF2DE9F04F53
:100BD40097B000AFD7F880B03B62CBF3C0030446B4
:100BE400894690F802A0FA62BB6141B94578007861
:100BF4000AEB800020444D4517D8A0EB0409E378A4
:100C0400FB61BAF1000F02D01BF0010F16D1FB6992
:100C140053BBFB6A1BB1494620463A6A98474D4686
:100C240028465C37BD46BDE8F08F461C3046FFF7CA
:100C3400B3FA0130304409F10109DCE76268237832
:100C44007A62FA6A9900796104EB8301002A40F020
:100C540001810E464FF000084D4601EB0A094E454E
:100C64004CD101EB0A0610E01BF0020FD1D023781F
:100C74009A007A61626804EB83017A62FA6A002A54
:100C840077D14D46904601EB0A061BF0050F0CBFC9
:100C940002230123FB62FB6906EB430A0BF0020308
:100CA400BB625645BCD016F8021B16F8013C54F83A
:100CB4002390994B994502D3984B994536D3BB69F8
:100CC400002B40D0786A0AF0EDFA00283BD0E946C0
:100CD4008AB06A46924B53617B6AC2E906314FF48B
:100CE400007313848F4B42F8103F00234FF41251CA
:100CF4008D4800F017FD023DCD46D2E716F8013BC2
:100D0400F96254F82300FFF747FAD7F88430F96AF8
:100D140001304BB1D7F8883098453EBFD7F88430BE
:100D240023F8180008F10108054498E7BB6923B1CA
:100D3400786A0AF0B7FA0028C9D11BF0010F05D16F
:100D4400FB6AED1AADE7BB6A002BAAD04846FFF751
:100D540023FAD7F8843053B1D7F8883098453FBF89
:100D6400D7F88420431C22F8183008F10108054400
:100D740097E7BAF1000F73D01BF0040673D0D04686
:100D8400002607F1480052463B61B9620CF0DCF8DA
:100D9400B96A3B6901EB0A02BA62FA69F96952005D
:100DA400FA60BA6A02EB41023A610BF00202BA60DD
:100DB4003A69B96A8A4258D162781BF0020F18BFA7
:100DC40000217A6208BF4FEA5801B2181BF0010FE4
:100DD400D2B240F09F801BF0040F14BF40460020A5
:100DE400BB616270A070E17020463A6A7969FB6A5F
:100DF4009847051EFFF614AFBB69414623707B6A12
:100E04003A6A6370FB6984F802A0E37007F1480052
:100E1400FB6A9847B0F10008C0F2BA807B69A9EB7D
:100E24000A01C91AFB683A6AC91AD7E90A0398473A
:100E34000028C0F2AF804FF0000BA84408EB000577
:100E440007F1380AB34571D300213A6A0846FB6AB0
:100E54009847E5E656464FF0000807F1380092E758
:100E64005646D04696E7B04694E7BA6A12F8021B93
:100E740012F8015CBA6254F82500274A904202D362
:100E8400264A90421ED3BA6932B1786A7B600AF06E
:100E940009FA7B6800288BD1BA6802BB08F12802E2
:100EA40007F1300C08F10100944407F1580208F1ED
:100EB400020852FA80F00CF8101C5FFA88F800F867
:100EC400105C75E7BA693AB1786A7B600AF0EAF9AE
:100ED4007B6800287FF46CAF1BF0010F09D006F18A
:100EE400280207F13000711C161806F8205CCEB2F7
:100EF4005EE71BF0040F3FF45BAF08F1280207F133
:100F0400300008F1010102EB000808F8105C5FFAF8
:100F140081F84DE7002063E7B4D000004CF10000F5
:100F2400C0DC000004000001F0D400001BF80A300B
:100F340054F8239087F83730D7F884302BB3D7F898
:100F440088309B4521D2D7F8843033F81B800121A7
:100F54003A6AFB6A07F13700984700281ADB054410
:100F6400B8F1000F06D14846FFF716F900F1010861
:100F74001FFA88F8414648463A6AFB6A98470028AF
:100F840008DB05440BF1010B5CE74FF00008DEE7DA
:100F9400454645E6054643E6014B1860704700BFE9
:100FA4000000002080B505460E461746984608F016
:100FB40041FF03460CF072F80446DFF818904246ED
:100FC40049F8003039463046A84754F8090002F081
:100FD400FBF900BF080000002DE9F047058B04462B
:100FE4002807904611D4022905F0070540F0CC806B
:100FF40020460AF009FC78B10138218B042811D865
:10100400DFE800F0C2106D85950001290CBF45F0A2
:10101400100545F02005258388F31188BFF36F8FF1
:10102400BDE8F08701F0070AAA4500F0A580002773
:10103400B9463E46A368002B00F0BC8041F008018D
:10104400218388F31188BFF36F8FA168002900F012
:10105400BA800D68002900F0B68033465246204617
:10106400D1F80480C047002D76D02B6829461D4650
:10107400F0E701F007035A1F012A1BD8002221F0D0
:101084000701062B276889B2C4E9002209D13B462F
:1010940003E0628B013262831B68002BF9D141F0BB
:1010A4000201204621830AF0AFFB00287AD041F0E8
:1010B400200176E0042B0AD121F0070189B22046F1
:1010C40021830AF0A1FB10B141F020012183218B7F
:1010D40001F0070AAA454FD00027B946AAE72369B9
:1010E40021F0070141F00601062DD3F80090218379
:1010F4002DD1B9F1000F3FD041F00801218388F3CD
:101104001188BFF36F8F20463949C84729E021F081
:101114000701236941F0040189B2042DD3F8049036
:101124002183E6D000274FF0040A3E4682E721F0EF
:101134000701236941F0050189B2052DD3F8089010
:101144002183D6D000274FF0050A3E4672E70027D8
:101154004FF0060A3E466DE72B4687E7B9F1000FCC
:10116400D1D1EFF31188202383F31288BFF36F8F5B
:10117400238B23F008032383258BEA062ED525F041
:101184001003238305F007056669218B002EBFF643
:1011940070AF00232768C4E9003321F0070141F050
:1011A40001012183218B4FF0000901F0070AAA45B0
:1011B4007FF440AF002F9CD041F00801218388F3D5
:1011C4001188BFF36F8F002FC8D03D68394633466E
:1011D400524620460AF044FB2F46F4E7AB067FF55F
:1011E4001BAF25F02003238305F0070500E700BFAC
:1011F40091B800002DE9F047044607464FF0010975
:10120400DFF8508014B93846BDE8F08794FAA4F5A5
:10121400B5FA85F509FA05F32E0108EB05156FEA11
:10122400030A24EA03042B7B002BEBD058F8063086
:101234001B694BB94644736804222846196807EAB7
:101244000A0700F05BFADDE7284698470028D9D161
:10125400F0E700BFA8D5000030B5002289B00F49DF
:101264000F480BF0DDFD002200230024CDE9062306
:101274000E230C4DCDE903344FF440722846CDE9DA
:101284000144094B0949009408F01EFB084928460B
:101294000BF055FC204609B030BD00BFB912000068
:1012A400B808002030040020A51500008029002083
:1012B40074DD0000014808F0E3B800BF60030020BB
:1012C4002DE9F04780461F480F460AF0C8FB064642
:1012D400002830D000252846BDE8F087237B6BB179
:1012E4002368DB680BB12046984723681B69D3B990
:1012F400636804222046196800F000FA01361034AD
:101304004C45EBD3B8F1000FE5D0002DE2D02846D0
:10131400FFF770FF0546002FF7D000214FF4A470AB
:101324000BF0BEFCF1E7204698470028E0D00AFA0B
:1013340006F31D43E2E705464FF0010A024CDFF8CD
:101344000C90DDE7E0120020A8D50000B8D500001D
:10135400014B53F82000704730D6000008B503460F
:1013640008462BB1044A136000F072FC002008BD4B
:101374006FF01500FBE700BF0400002010B5044C1B
:10138400237813B9034808F07BF80123237010BDB8
:10139400BF2800206003002010B5044609480AF065
:1013A4005EFB3CB1084BD3E8EF1F0139C3E8E21FF1
:1013B400002AF8D105480BF03FFDBDE81040044871
:1013C40008F05EB8D8120020DC120020B808002013
:1013D4006003002000200146034BD3E8EF0FC3E86D
:1013E400E21F002AF9D17047D812002070B5FFF728
:1013F400F1FF0546074C084EB44200D370BD636844
:101404005B792BB123685B6813B129462046984762
:101414001034F1E7A8D50000B8D5000010B5044C8D
:10142400044920460AF06EF8034B1C6010BD00BF4F
:10143400500200201CD60000D012002008B5002362
:10144400074A4FF400411370064A07481360074ADD
:101454001360FFF783FFBDE80840FFF7DFBF00BF5D
:10146400C0280020D81200205FBA0000DC1200203F
:1014740001460022002301480AF065B8500200200A
:1014840001480AF0FEB800BF50020020024B01469A
:1014940018680AF04AB900BFD012002001480AF0C7
:1014A4007FB900BF5002002070B5264B1878002881
:1014B40047D0FFF7E5FF054670B1234BD3E8EF1F94
:1014C4000139C3E8E21F002AF8D1204C204EB4426F
:1014D4002DD32846FFF7DAFF1E4B1F4C1B68002B49
:1014E40019DD0BF056FC4FF47A72A0FB020302FBE9
:1014F4000131C30B43EA4143D4E900209B1A40F273
:10150400E9324FEAD13161EB0001934271F10001FC
:1015140001D3FFF76BFFD4E9003213F57A7342F17C
:101524000002C4E90032BDE87040FFF7B7BF63684A
:101534005B7923B12368294620461B6898471034F9
:10154400C5E770BDBF280020DC120020A8D500002C
:10155400B8D50000D8120020B008002070B50D4D99
:10156400297861B90120FFF7ABFE0B4C0B4EB44256
:1015740006D3FFF799FF0028FBD101232B7070BD20
:1015840063685B791BB1236820469B6898471034D5
:10159400EDE700BFC0280020A8D50000B8D50000A2
:1015A40000212DE9F0470846FFF78AFE044658B3A8
:1015B40040F267684FF000090BF070FD1B4B1C4AAA
:1015C4001B58136033B11B4B1B68092B02DD1A48EF
:1015D40007F056FF0025194FDFF85CA044B1204600
:1015E400FFF708FE044618B94FF0FF384FF0FF39F3
:1015F400FFF75AFF064628B9B5B942464B4650464E
:1016040007F072FF3546E9E74FF0FF384FF0FF3936
:10161400D2E72B689B691BB10022284611469847E4
:101624001035BD42F5D3E8E7054DFAE708000000A0
:10163400D4120020DC12002060030020B8D5000082
:10164400A8D5000013B518480AF009FA174B1B78FF
:1016540073B1EFF31184202383F31288BFF36F8FE8
:10166400FFF722FF84F31188BFF36F8F02B010BD20
:101674000F4B1B68002BF9D050B9002200230D48F2
:10168400CDE900234FF40042002308F09FFEEDE76C
:101694000928EBD107480BF0CFFB074802B0BDE89F
:1016A400104007F0EDBE00BFDC120020C02800206F
:1016B400D4120020B80800206003002010B5064BA7
:1016C40004461B6898472146A060044809F0BAFF05
:1016D400BDE81040FFF7B6BF040000205002002010
:1016E400044A054B9B1AB1EBD30F34BF52F83100B7
:1016F40000207047F0D40000A8D50000084B10B4B7
:10170400C31A44681B110133237143689A7101227F
:101714004368196043685A7110BCFFF72FBE00BFBD
:10172400A8D500002DE9F04F8FB0C1F34A2804AFCB
:101734000D469146B8607B600C0DB8F1000F63D084
:1017440000264FF0040B4FF00A0A07F11403C7F800
:101754000C80C7E907667E620193CDF808B0CDF826
:1017640000A007F11C0332464846F968FFF72EFA39
:10177400B0F5006F03461CD36C468AB0D9F8041048
:1017840004AB26481A46C3E9050140F2FF71D9614A
:101794004FF400711984224B42F8103F4FF4125158
:1017A40033462048FFF7BEFFA5462C37BD46BDE8AB
:1017B400F08FC0F30A0804F11700184420F0070062
:1017C40080083B60FFF754FE68F35325044690B14C
:1017D4003B6800F11001C7E9083607F11403F96109
:1017E400CDE900A3CDF808B048460F4AF96807F1DF
:1017F4001C03FFF7EBF968F353252A4620467B6860
:10180400B9680AF05EF9D0E704F1170020F0070088
:101814008008FFF72DFE0446EDE700BF89DD0000D8
:101824000400000130D500009BBA00002DE9F04F00
:1018340087B00446DDE9105ADDE9127993469846EB
:101844000391BFB13B46524610210020CDF80090D1
:10185400CDF81490FEF7E8FFB0F5006F06460AD302
:1018640040F2FF730221174A174807B0BDE8F04F52
:101874000AF080B93E4605F11700304420F0070015
:101884008008FFF7F5FD04F007040BF0070BE400F4
:1018940044EA8B1444EA462444EA0554054640B11C
:1018A4003FB13B4652463146CDF800901030FEF72A
:1018B400BBFF434622462846039907B0BDE8F04FD4
:1018C4000AF0FFB8C8DD000030D50000406820B140
:1018D400034BC01A40F3CF0070474FF0FF307047FE
:1018E400F0D400000EB403B503AB53F8042B014647
:1018F4000448019302F094F802B05DF804EB03B0DD
:10190400704700BFDBBB0000CA0605D48B064CBF82
:1019140002490349FFF7E6BF704700BF01DE00003C
:1019240000DE00002DE9F04F89B09B46149B9DF822
:101934004CA00693159B04460593169B0D469046B2
:10194400179E0493BAF1000F00F09D8006F4807393
:1019540007930AF09EF806F00209024600283ED0DA
:1019640020469149FFF7BEFF0746B9F1000F08D0A2
:1019740016F0440F35D12A4620468C49FFF7B2FFB2
:10198400074406F0010353B1894B204653F82A203B
:10199400884B8949002A08BF1A46FFF7A3FF06F4BB
:1019A4008073002B49D006F00803002B63D1B8F1F3
:1019B400000F66D0424620468049FFF793FF054654
:1019C400069B3D44002B6DD1049B002B73D1F30780
:1019D40000F1E48031462046FFF796FFD8E0074641
:1019E400C3E7774B18680028CAD0764B4FF47A794E
:1019F4001B684FF03C0CB5FBF3F5B5FBF0F14FF46D
:101A0400616300FB115509FB05F5B1FBF3F2B5FB6E
:101A1400F0FE03FB121100FB1E55B1FBFCF309FBA6
:101A240005F5B5FBF0F50CFB131120460091CDE94B
:101A340001E56549FFF756FFA2E706F00803EBB19D
:101A4400624B204653F82A206149FFF74BFF0546B5
:101A5400B8F1000F05D0424620465849FFF742FF2F
:101A64000544BBF1000FABD05A4620465949FFF755
:101A740039FF0544A4E74FF0000BE1E706F0080541
:101A8400E6E745469CE7BBF1010F069B06D1002B18
:101A940064D1049B002B7BD000250CE0002BF8D0F4
:101AA4004D485CE04D48069B22464D4909F0C9FB70
:101AB400049B002B68D0DFF82C81DFF82C91049F65
:101AC4003146102F204628BF10274FF0000BFFF798
:101AD4001BFF5D4545DC059B494620461A78FFF708
:101AE40001FF4FF0010B1BF0070F03D141462046C5
:101AF400FFF7F8FE5F453BD9059B4946204613F89E
:101B04000B20FFF7EFFE0BF1010BBBF1100FEAD135
:101B14004FF0000B20463549FFF7E4FE5A46059B7B
:101B240020469A5CA2F120015F2928BF2E22304969
:101B3400FFF7D8FE0BF1010BBBF1100F1DD01BF00A
:101B4400070F03D141462046FFF7CCFE5F455A46B6
:101B5400E5D841462046FFF7C5FEEBE71F4855464A
:101B6400A1E741462046FFF7BDFE0BF1010BB0E7AC
:101B740020462049FFF7B6FEC5E7059B3B44059385
:101B8400049BDB1B04939AD1BAF1000F7FF41FAFBF
:101B9400204609B0BDE8F04F0AF010B82046054AC7
:101BA4000549FFF79FFE15E708DE00000CDE000084
:101BB40040D6000003DE000031DE000034DE000009
:101BC400E8120020E412002015DE000054D60000C4
:101BD40038DE00003EDE000009BC0000DBBB000074
:101BE400253A00004BDE000043DE00004DDE00001D
:101BF4004FDE000049DE000042F20F7373B58B42E2
:101C040028BF0B4605680446052168460D4A08F0BE
:101C1400DBFD0646636828460B225B680A4909F027
:101C2400BFFF63683246694628465B6809F0B8FF1F
:101C340063681B2228465B68044909F0B1FF02B0BF
:101C440070BD00BFE3EE00006EDE000052DE000057
:101C540000210123064A904206D8064A01B901230D
:101C64001360054B18607047012140085B00F2E7E0
:101C740040420F00E4120020E8120020F8B50D469F
:101C84000446064F4618B44201D12846F8BD14F85C
:101C9400011BBB6801485B689847F4E7A8D10000C2
:101CA400014B0360002070479CD60000F0B40C4B3D
:101CB4000C4E5F6A0C4BB34203D36FF08500F0BC4B
:101CC40070475D68BD4209D31C693CB195F802C0F8
:101CD4000579AC4502D12346F0BC18472433EAE722
:101CE400101300202C040020080400202DE9F047E4
:101CF40005460E461746124CDFF84880DFF8489038
:101D0400444503D36FF08500BDE8F0876268D9F8D5
:101D140024309A4212D3A36983B1907829798842F6
:101D240005D13A4631462846BDE8F047184752796E
:101D3400012A03D13A463146284698472434DFE73E
:101D4400080400202C040020101300202DE9F04189
:101D540005460E4617460A4CDFF82880444502D350
:101D64006FF0850009E063690BB92434F6E73A465D
:101D74003146284698470028F7D1BDE8F08100BFD6
:101D8400080400202C0400200022024B1A605A6030
:101D9400704700BFCB13002070B50B4B0B4CA34214
:101DA40001D3002070BD0022196A1E7F0439D5B208
:101DB400AE4201D82433F2E7013211F832508542A1
:101DC400F5D10120EEE700BF080400202C04002018
:101DD40008B501210346034A034809F08FFF002098
:101DE40008BD00BFB4DE000080D5000038B505464C
:101DF4000AF0A9F810F1780F044611D12B460221FC
:101E04000C4A0D4809F07AFF284609F079FF0B4A7D
:101E14000024D2F8C43023EA0003C2F8C43007E037
:101E24000028F1D02B460121054A034809F066FF3A
:101E3400204638BDCFDE000080D5000010130020FE
:101E4400F0DE000008B509480378C3F341130A33F0
:101E540050F823303BB100F1080200F1100198471B
:101E6400C043C00F08BD1846FCE700BF1013002094
:101E740004282DE9F74F04460F46DFF8989015D053
:101E840001282FD1DFF8908098F8B93053B300F0CF
:101E940027FE224D4D4522D24FF0000A2A6A2B7F9D
:101EA4005FFA8AF6B34204D82435F3E7FFF76CFFF0
:101EB400E8E702EBC606307901920AF044F883465B
:101EC400307909F01DFFD8F8C430BBF1000F23EAC4
:101ED4000003019AC8F8C4300AF1010ADFDA0023CA
:101EE40088F8B9300D4D4D4508D30B4B1B6A6BB1C7
:101EF4003946204603B0BDE8F04F1847EB681BB1E4
:101F04003A462146284698472435ECE703B0BDE815
:101F1400F08F00BF2C0400201013002008040020C0
:101F240073B5C4B263060D468DF8074007D020464A
:101F3400FFF732FFB0B1144B93F8BA0090B12346C7
:101F4400114E8DB10321114A114809F0D7FE9DF8B5
:101F5400070002F095FDF3691BB108200DF107019C
:101F64009847012002B070BD03210A4A084809F0CD
:101F7400C5FE9DF8070002F0B5FDF369002BF0D013
:101F840009200DF10701EBE71013002012DF000018
:101F940080D5000025DF000073B5044680782B4D02
:101FA4008DF800002379627943EA0223ADF8023008
:101FB400E37803F003038DF8043009F0A1FED5F8AB
:101FC400C430064618420CD0A478204600F06AFDBE
:101FD4002046FFF70BFF0AF0ACFD10B9962007F07E
:101FE400E5FE684602F01EFD10F1780F9DF8003002
:101FF4001BD10221164A174809F080FE9DF8000003
:1020040002F0ACFD10F1780F19D102219DF80030D7
:10201400114A104809F072FE0120D5F8C43085F841
:10202400B9003343C5F8C43007E00028E6D00B4AB2
:102034000848012109F062FE002002B070BD0028AA
:10204400EAD09DF80030064AF2E700BF10130020E2
:102054003ADF000080D5000081DF00005DDF000072
:10206400A1DF00002DE9F047A34E0446B3690F46F3
:102074001546FBB9237803F01F03012B00F09D8064
:10208400022B00F0048133BB94F900002A68002875
:10209400617834DA062912D008292BD0D9B9012362
:1020A4005170137096F8C3305B0043F00103137052
:1020B40002232AE198470028DCD100200DE0628841
:1020C400100A011F0129844605D9072803D8716A1B
:1020D400D2B20C781CB96FF01500BDE8F0874E78C9
:1020E400664503D19A4200F00B8101332144F0E7A5
:1020F4000B780AE196F8BA301370012305E101392F
:102104000829E8D801A353F821F000BFA921000051
:10211400DB200000B7210000DB2000003521000097
:10212400DB200000DB200000DB2000004121000058
:10213400A07802F039FC0028BFD0CCE76388756A28
:1021440063BBFFF721FE638886F8BA30F369002B7E
:10215400B3D0032069499847AFE76B78042B10D0BC
:10216400052B11D0022B04D16F796388BB4208BFC1
:1021740001202B781D442B78002BEED10028AAD007
:10218400DFE795F80380F4E76388BB42F1D1B8F147
:10219400000FEED12846FFF7FFFEEAE7FF270020F5
:1021A400B846E8E76388012B95D1002386F8C3304D
:1021B40083E76388012B8ED1F8E796F8BA30D5F817
:1021C40000C0002B87D0756AA3882A4694F804E0DF
:1021D400107800283FF47FAF5178022904D192F897
:1021E4000480F04500F293800244F1E78CF800206B
:1021F4008CF80120396060E7154494E00B2A7FF4E1
:102204006AAF00274FF0FF08BA46C14606E06B7874
:10221400042B0FD0052B21D02B781D442B78002BB9
:10222400F5D1F36913B1514607209847002F7FF485
:1022340044AF50E795F80280A38895F80390984539
:10224400EAD163889945E7D1B8F1070F1CD806EBAA
:102254000803AA46012783F8BB90DDE7A38843451A
:10226400DAD1A3784B450AD0AF78384600F01AFC8F
:102274003846FFF7BBFDB0FA80F77F09CCE7284664
:10228400FFF78AFE0746C7E7AA460027C4E794F982
:1022940000206378002A18DA002B7FF41CAF24791D
:1022A4002D6863060AD02046FFF776FD00283FF428
:1022B40012AF96F8BA30002B3FF40DAF29462046F2
:1022C40002F030FC00236B70F2E6012B08D0032BE4
:1022D4007FF401AF6388002B7FF4FDAE012103E09E
:1022E400618800297FF4F7AEA088FFF719FE002863
:1022F4007FF4E3AEEFE600BF10130020CA13002002
:10230400022829607FF4F4AE4B883B60D5E694F94B
:10231400000062780028BFF671AF002A3FF466AF70
:102324000A2A7FF4D8AE2A78002A3FF4D4AE69781A
:1023340004297FF461AFA9788B427FF45DAF072B4A
:102344008EBF00239B1993F8BB308CF80030D4E681
:102354002DE9F84F05460F46904699460426DFF8C6
:1023640034B0DFF834A04B4642463946284602F0E2
:102374001FFC10F10B0F044609D12B465A460221CB
:10238400504609F0BBFC07F08DFC013EEBD1204622
:10239400BDE8F88FC2DF000080D5000013B5164CED
:1023A400237DF3B9E26801AB8020A1680192FFF7B5
:1023B400CFFF019AA3681344A360E3689B1AE36008
:1023C4006BB962B12369E2889A4208DD94F8C820A7
:1023D40093FBF2F102FB11330BB90123237502B015
:1023E40010BD002380201A461946237502B0BDE8AB
:1023F400104002F0DDBB00BF101300207FB50023A6
:102404000D4606460193002862D100293AD10822DC
:102414000B460DEB020109F0AFFD002804DA802021
:1024240002F02EFB04B070BD2E4C029AC4E9035591
:102434002260039ABDF80E30626004F13802A26093
:102444009DF908202575002A0FDB802B09D901216D
:10245400254A264809F085FB802002F011FB284616
:10246400DEE713B1C4E90333DCE7FFF7EBFC002834
:10247400D5D0E28823699A42D4BFE260E360FFF7D3
:102484008DFFCFE7174C01ABD4E90212002A05DC1B
:10249400024609F071FD0028C4DAC0E709F06CFDBA
:1024A400002804DA802002F0EBFA3046B8E7019AFB
:1024B400A3681344A360E3689B1AE360002BB1D1C3
:1024C40004F13803A360FFF7BDFC0028D7D1A6E7C9
:1024D4008028A7D1034BDA68002AD0D11B7D002BBA
:1024E400CDD19FE710130020E9DF000080D5000064
:1024F400054B064A58629A62054A0020DA62054A88
:102504001A63054A9A61704710130020692000007D
:10251400B11C0000511D0000F11C00002DE9F34125
:1025240004464C4D4FF0FF334FF0FF324A4806F05B
:10253400ADFE95F8B8306BB10221484A484809F01D
:1025440010FB6FF07704444806F018FF204602B0F1
:10255400BDE8F0816B6A6BB900F0D4F8FFF7C8FFEF
:102564006B6A3BB901213F4A3D4809F0FAFA4FF042
:10257400FF34E8E73C482C62E8616E6A02F05AFCDA
:1025840002F0E0F9041EDEDB00F0CCFA041EDADB14
:102594007378012B01D1F3793BB90121334A3048D7
:1025A40009F0DFFA6FF01504CDE70026684685F8D8
:1025B400C830ADF802308DF804608DF8006002F088
:1025C40031FA041EBFDB802768468DF8007002F0E4
:1025D40029FA041EB7DB3046254902F017FC041E15
:1025E400B1DB3846224902F011FC041EABDB214C5E
:1025F400DFF8848044451AD3002002F0AFFA041EA9
:10260400A1DBD5F8C430802043F00103C5F8C43001
:1026140002F0A4FA041E96DBD5F8C430002443F477
:102624008033C5F8C430012385F8B8308BE7002621
:10263400276A227FF3B29A4201D82434DAE707EBFF
:10264400C30257F83310107902F0E0FB013600287A
:10265400EFD08CE7101300201403002002E00000E8
:1026640080D5000025E00000751E00004AE000004F
:1026740001240000080400202C04002030B51F4B66
:102684008BB005AA03F1100514461868596808337D
:1026940003C4AB422246F7D11B78102223700021D9
:1026A40001A80AF078FC1222002115480AF073FCF4
:1026B400102101A809F065FD00281BDD0828B8BF1A
:1026C400082001AB09381A1800200D4912F8013FFF
:1026D4000AAC04EB131403F00F0328336B4414F80F
:1026E400144C13F8143C013008280C704B7001F1A1
:1026F4000201EBD102480BB030BD00BF84E0000002
:10270400C32800202DE9F04F87B0894B00AF93F820
:1027140000A0BAF1000F04D086481C37BD46BDE8BE
:10272400F08F844C00264FF001193546B046FE6008
:1027340023783BB9804B02349C42F3D101237C4A79
:102744001370E9E76378052B1DD8DFE813F0AD00BB
:102754000600EE00AD001F005000402387F810A0D3
:102764007B8287F814A007F1100002F02FF940B122
:10277400082307F110007B8202F028F908B1A7F8BA
:1027840012A07B8AE37123781C44D1E7E378002B01
:10279400F9D1A37813B3FB680133DBB2FB60F2E732
:1027A4006B689C421CD02435644B9D42F8D36D4623
:1027B40088B06A46624BC2E90534032342F8103FED
:1027C40000234FF4C2515F48FEF7ACFFAD465D48AD
:1027D40001215D4A09F0C5F900209EE75B4DE3E75E
:1027E400AB68002BD7D02046F9689847D3E7002D73
:1027F40058D1574A0121534809F0B3F9E7E72B6A46
:10280400A07803EBC2010B79984245D14FF0010B3C
:10281400E0785FFA8BF300F003003875207994F8C0
:1028240005C040EA0C20788294F90200002826DAD8
:102834004FF0010C0BF110000CFA00F010EA090F34
:1028440025D143F08000387407F11000C7E9003146
:10285400BA6002F0BBF8D7E901123B68B8B93A7C18
:1028640012F0800FA2700A714FF001021DBF1033E5
:10287400DBB29A4002FA0BF249EA020983E701202B
:1028840000FA0BF010EA090F01D11846DBE70BF14F
:10289400010BBBF1100FBBD101322B7F9A42AED397
:1028A4002C4AA7E70022F8E7032E24D1FFF7E6FE1F
:1028B4008346A0B1FDF770FC034680B1102806D012
:1028C400B8600221244A1F4809F04BF9BB68102B59
:1028D400A8BF102359461A46A01C0AF035FB6FF016
:1028E40002012378091BE21804EB5303D14209D5F2
:1028F4000136F6B247E7002EF1D1B8F1000F08D146
:10290400164A77E702F801AC13F8010902F8020D40
:10291400ECE7A4EB080388F80230C3F3072388F834
:102924000330FB6888F80430E2E7A0462BE700BFD9
:10293400C228002080030020080400202C0400206A
:1029440095E0000078D500007BE100000804002039
:10295400B5E00000F6E0000013E100005EE10000D5
:10296400094B00211A4610B51C78844204D15C68D6
:1029740014B102EB811010BD0131042903F14003AD
:10298400F2D10020F7E700BFDC1300202DE9FF415E
:1029940050F8283C0446103310F82C6C0AD1036913
:1029A40050F8202C98073DD5D2B9590715D50023E6
:1029B40044F8283C54F8283C10330BD054E90775EC
:1029C40054F8148C0AF0B5F8002857D02146324840
:1029D4000AF093F804B0BDE8F08143F004032361E6
:1029E40003AB304654F8241CFFF7B2FC034640B155
:1029F40001212A4A2A48009609F0C6F86FF0150307
:102A0400D6E7039A54F8243C134444F8243C54F87D
:102A1400203C9B1A44F8203C54F81C3C134444F8D2
:102A24001C3CC7E703AB304654F8241C02F04AF9B7
:102A340003460028DCD1039D54F8243C2B4444F87D
:102A4400243C54F8203C5B1B44F8203C54F81C3CC8
:102A54002B4444F81C3C002DA9D0304602F0F0F978
:102A6400B5FBF0F303FB1055002DA0D154F8203C26
:102A7400002B9CD0304602F07BF99BE744F8180CFD
:102A8400A4F1100006F0FCFC002DA3D04246394608
:102A94003046A8479EE700BF88110020A9E1000046
:102AA40098D5000010B5EFF31184202383F3128826
:102AB400BFF36F8FFFF754FF50B14368103307D152
:102AC4006FF08B0300F12C01436004480AF015F801
:102AD40084F31188BFF36F8F10BD00BF88110020ED
:102AE400F8B5042520270D4CEFF3118687F31288DF
:102AF400BFF36F8F6368103307D16FF08B030848FF
:102B0400636004F12C0109F0F8FF86F31188BFF328
:102B14006F8F013D04F14004E6D1F8BDDC130020C1
:102B24008811002070B50025094C0A4E3146204614
:102B340009F0C7FF0122A4F110001146013509F084
:102B440075FF042D04F14004F0D1002070BD00BFD6
:102B5400081400209129000008B5044808F0C9FBB6
:102B6400BDE80840024808F0C4BB00BFD3E1000040
:102B740008E20000014807F0E5BC00BF9CD6000055
:102B840038B5044618B90F4B0F485B68984761681D
:102B9400B1F5683F10D0B1F5680F0DD00B4DA942C7
:102BA4000AD011F46861206807D00146084809F08A
:102BB40045FE00232360656038BD14220AF0EBF95A
:102BC400F9E700BFDC01002036E200002C5F5CA9BD
:102BD400DC19002008B560B34368B3F5683F0ED034
:102BE400B3F5680F18D0144A934220D000684FF010
:102BF400FF324FF0FF3306F049FB58B115E00122D4
:102C04000368D3E8EF1F002903D1C3E8E02F0028AD
:102C1400F7D10AD1002008BD0368084A1B7803F5E0
:102C2400807352F82330002BF4D00548F3E70548AD
:102C3400F1E76FF4E040EEE72C5F5CA9000003507D
:102C4400E98FFFFFEA8FFFFF08B520B34368B3F5B0
:102C5400683F09D0B3F5680F13D0114A93421DD0D1
:102C6400006806F08BFB14E000220368D3E8EF1F32
:102C7400012903D1C3E8E02F0028F7D109D009487E
:102C840008BD00210368084A1B7803F5807342F8E5
:102C940023100020F4E76FF4E040F1E70348EFE786
:102CA4002C5F5CA9E98FFFFF00000350EA8FFFFF50
:102CB40010B5044618B91D4B1D485B6898476368F6
:102CC400B3F5683F2FD0B3F5680F2CD0194A93425F
:102CD40019D1236803BB4FF0FF324FF0FF33214675
:102CE400154806F0EDF908B923681BB90F4B1348D2
:102CF4005B6898471422002120680AF04CF94FF4CD
:102D04006863636008E0B3F5683F0DD83A2B03D0DD
:102D140040F6BA629342DED1206809F0F5FD63689B
:102D240043F03A03636010BD054AF3E7DC01002079
:102D340036E200002C5F5CA9DC1900205CE2000094
:102D44003A00003A08B5064940231422054809F020
:102D540067FDBDE808400449044807F065BC00BFAE
:102D6400DC140020DC190020A4D60000B8D6000032
:102D74002DE9F04706460C4600AF002936D0D1E9CC
:102D84000012E9468AB06D46A3684FF0050AA846CA
:102D94001F48C5E90723C5E9050148F810AF00231A
:102DA40042464FF421511B48FEF7BCFCD4E9031200
:102DB400CD466369AD461848C5E90723C5E9050151
:102DC400C5F810A0002342464FF421511148FEF7E4
:102DD400A9FCCD46E3690121104A0E4808F0CAFE59
:102DE400A36901210E4A0B4808F0C4FE012E07D145
:102DF400EFF305830B4A31460648103B08F0BAFE50
:102E04002146304605F0AEFFBD46BDE8F08700BF61
:102E140089E2000060D50000B8E20000E7E20000AB
:102E2400F6E2000024E3000030BFFFF7FDBF00BF5F
:102E34002DE9F04105460B4EDFF82C80324606EBB7
:102E44000807CC1B204609490AF07EF8A01942461F
:102E54000021083C0AF09FF82C6707F10800BDE840
:102E6400F08100BF0000000004000000D0D5000085
:102E7400074A936893F90E10002907DB52699342BD
:102E84001FBF044A536843F080535360704700BF28
:102E9400A026002000ED00E070B52A4C06460D4641
:102EA40029482A4908F075FFA36ADB0647D5264856
:102EB400274908F06EFF1120A36A1C0704D5224895
:102EC400244908F066FF12201E4CA36A990712D504
:102ED40021491D4808F05DFF636BA26A120609D5FB
:102EE40001211E4A184808F045FE1EB1A36A23F0CA
:102EF4008003A3621320134CA36ADE0704D512488F
:102F0400174908F046FF1420A36A9C0604D50E480E
:102F1400144908F03EFF15200A4B9A6AD10658BF9F
:102F24009A6A9A6A920642BF5A6A22F400525A6214
:102F34009A6A42F0FF029A6200232B7070BD10203F
:102F4400BAE700BF00ED00E060D5000037E3000001
:102F54004DE3000080E3000093E30000ABE30000D6
:102F6400C1E30000E0E3000010B5244C24492548E7
:102F740008F00FFFA36A99013ED52248224908F0C0
:102F840008FF1E20A36ADA0104D51E481F4908F071
:102F940000FF1F20194CA36ADB0204D519481C4901
:102FA40008F0F7FE0220A36A1C0304D5154819494A
:102FB40008F0EFFE2120114CA36A590304D51148EF
:102FC400154908F0E6FE2220A36A9A0304D50D48A9
:102FD400124908F0DEFE2320084CA36ADB0304D563
:102FE40008480F4908F0D5FE2420A36A6FEA03437A
:102FF4006FEA1343A36210BD1D20C3E700ED00E098
:103004000FE4000060D5000027E400003AE400006B
:1030140054E400007EE400009CE40000C1E40000ED
:10302400DBE4000070B5294C06460D4628482949C2
:1030340008F0AFFEA36AD9043CD52548264908F018
:10304400A8FE1720A36A1A0504D52148234908F0CD
:10305400A0FE18201D4CA36A9B0512D51C482049CC
:1030640008F097FEA36BA26A100409D501211D4A3A
:10307400174808F07FFD1EB1A36A23F40043A3623E
:103084001920124CA36A590504D51148164908F0B1
:1030940080FE1A20A36ADA050ED50D48134908F0FC
:1030A40078FE1B20094A936A43F47F43936200230A
:1030B4002B7070BD1620C5E7A36A9B04F2D50448A3
:1030C4000B4908F066FE1C20ECE700BF00ED00E0B1
:1030D40060D5000006E500001CE5000080E3000068
:1030E4002DE5000046E500005BE5000076E5000004
:1030F400E0E300002DE9F0418AB0654B0446D3F8C3
:103104000480002600AFC8F3080586F31188BFF3D6
:103114006F8F02F07F43B3F17F4F07D102F00C03AE
:10312400082B12D15B495C4808F033FE0026344674
:103134000023FB71EB1E092B00F28980DFE803F00A
:103144000A7F827B87878787878510074CBF0C4659
:103154000126EDE75149504808F01BFE00234C4D71
:10316400FB71EB6A9A0705D54D494B4808F011FEEF
:10317400002331E0EB6A002B01DA4A49F5E7EB6AF8
:103184005B00F5D54849444808F003FE6B69A26921
:1031940043F480736B61BFF34F8FBFF36F8F6B6921
:1031A40032F8022C23F480736B61BFF34F8FBFF3AB
:1031B4006F8F4DF602739A4207D0AB6ADBB26BB3E2
:1031C4000120F91DFFF768FE37E023680121374A23
:1031D400314808F0CFFC2368FA79DAB907F1080519
:1031E40004F1200C2A4620686168083403C264454F
:1031F4001546F7D17A6A002E45D0C2F3080121B9E9
:103204006FEA52226FEA42227A62184607F10801F5
:10321400FFF7AEFD2837BD46BDE8F081AB6A13F475
:103224007F4F04D00120F91DFFF7FCFE05E0AB6AD7
:10323400B3F5803F9CD3FFF797FE0346CCE700200D
:10324400F91DBFE70020F91DEEE719498DE7194A7A
:1032540018F4F87FE8468AB0174B18BF13466A463D
:103264001649103DC2E905134FF400731384144B3F
:10327400D56142F8103F00234FF411510648FEF780
:1032840051FAC54674E722F4FF7222F00102BBE74B
:1032940000ED00E0BCE5000060D50000E7E50000BB
:1032A400FEE500001FE600002DE600004CE60000ED
:1032B40068E60000A3E500008EE500008CE600004F
:1032C40004000001064B5A6942F010025A615A691F
:1032D40042F480625A615A6922F008025A617047C6
:1032E40000ED00E0EFF30880EFF3098101B57246C9
:1032F400FFF700FF01BD00BF002080F31488BFF377
:103304006F8F002080F30A8880F30B880F4880F3C6
:10331400088804F031FB00200D490860BFF34F8F8B
:1033240000F02CF8202080F311880A484FF4006143
:10333400401880F30988EFF314800221084380F3D6
:103344001488BFF36F8F00F0E1F80000C041002043
:1033540094ED00E080340020002318460649D1F89B
:103364009020C2F30722934200DB7047C1F89830E3
:10337400C1F8A0000133F6E700ED00E010B572B625
:10338400002484F31388FFF7E7FF23464FF0FF3050
:103394000C4A03F120010133102B42F82100F8D12B
:1033A40000234FF0FF30074A03F160010133102B73
:1033B40042F82100F8D162B6BFF34F8FBFF36F8F8D
:1033C40010BD00BF00E100E0084B9B6883420BD1B5
:1033D400EFF3058343B1064B5A6842F080525A60BA
:1033E4005A6A22F400425A6206F02ABDA02600203E
:1033F40000ED00E016498A684FF030001044EFF306
:10340400098C80E8F01F202080F31288BFF36F8FAF
:10341400104F4FF000664A698A603E604FF07004B6
:10342400141920680C4C2060506F0023536780F3FC
:10343400118802F1300090E8F01F8CF3098802F142
:10344400000004B508F0ADFCBDE80440704700007E
:10345400A026002004ED00E0F81900201EF0040F5F
:103464000CBFEFF30880EFF30980816911F8021CA7
:103474000229FFD001B5724608F080FC01BD00BFEF
:1034840040B2002807DB01234109034A00F01F0072
:10349400834042F82130704700E100E040B2002848
:1034A4000CDB01220649430900F01F00824020334F
:1034B40041F82320BFF34F8FBFF36F8F704700BFD6
:1034C40000E100E0054B420953F82220012300F0FB
:1034D4001F0003FA00F01040704700BF00E100E055
:1034E40040B2002801F10101ACBF00F16040064B7D
:1034F4004FEA4111C9B2ABBF00F5614000F00F00C3
:1035040080F800131954704714ED00E00B4A08B515
:103514000B4B22F07F029A60BFF34F8FBFF36F8F84
:10352400D3F8882022F47002C3F8882005F006FD41
:1035340006F0A6FD00F048F805F040FD000000008C
:1035440000ED00E042F8203C009B0B4942F81C3C93
:10355400019B21F0010142F8183C029B42F8081C2F
:1035640042F8143C4FF0807342F8043C0023203AA4
:1035740002654367704700BFA90F000000B50B4BFD
:1035840015469860026F0A4B0E461A60036E83F369
:103594000B882C4686F309880020064B9847204662
:1035A400002100220023044C204700BFA026002055
:1035B400F8190020AFBD0000A90F00001022014B34
:1035C4001A61704700ED00E0002320210348C2186F
:1035D4000133452B82F80013F9D1704700E100E074
:1035E40008B5EFF30583064A103B02EBC30152F81A
:1035F400330049688847BDE80840FFF739BC00BF7D
:1036040034D200001FB5094C094A23460121094858
:1036140000F012F900230393074B0121E41A01A8D7
:103624000193029400F012F904B010BD00000720C9
:1036340000000020C8D600003004002010B50C7A29
:103644000B6804F01F0223F01F031A43CB686409BC
:1036540023F01F03054943EA440343F00103C1F87F
:103664009800C1F89C20C1F8A03010BD00ED00E026
:1036740010B50A4BD3F89030C3F30723013B9842AB
:1036840008D901210346064A064808F073FA6FF088
:10369400150010BDFFF7D2FFFBE700BF00ED00E00F
:1036A400A3E6000050D500002DE9F04F89461446EA
:1036B40006464FF00008514D85B0C84527DAD6F8C4
:1036C40004A0BAF1000F44D0BAF11F0F17D91AF0B1
:1036D4001F0F14D1D6F800B01BF01F0F0FD158469E
:1036E40008F09FFB07460AEB0B00013808F099FB32
:1036F400874210D06FF01507414A3B4601E043462C
:10370400404A0121404808F035FA6FF0150420467C
:1037140005B0BDE8F08F17F1160FEDD0BC42EBDD1C
:10372400C5F89870D5F89C10C5F89870D5F8A030F5
:1037340021F01F0143F01F0BD6E900321A449942CD
:1037440002F1FF3A1DD1D34507D13146F8B208F052
:1037540071FB08F101080C36AFE73146C5F89870E3
:10376400D5F89C3022F01F0203F01F031343C5F861
:103774009C30E0B208F05EFB10F1160FC5D0441C7B
:10378400E7E7C5F89870D5F8A020013B23F01F03A4
:1037940002F01F021343D3453146E0B2C5F8A0300E
:1037A400E8D008F047FB10F1160FAED0C5F89870BA
:1037B400D5F89C209DF808300BF1FF3B62F304031D
:1037C4008DF80830D5F8A0309DF808205B0863F325
:1037D40047128DF80820D6E900321344009323F0F1
:1037E4001F035B44A3EB0A03013023F01F03694664
:1037F400C0B20393FFF73CFFBEE700BF00ED00E05B
:10380400ECE60000C9E6000050D500000522044B98
:10381400C3F89420BFF34F8FBFF36F8F704700BF7F
:1038240000ED00E0BFF35F8F0022024BC3F8942049
:10383400704700BF00ED00E010B5034C2278FFF79D
:1038440033FF207010BD00BFD52800202DE9F74FAD
:10385400294D8A4606464FF00008AB46274FD0450F
:103864001BDAD6F80490B9F1000F3FD0316808464E
:10387400019108F0D6FA0199044609EB01000138D8
:1038840008F0CFFA84424FF014021D4B08D002FB1B
:1038940008F36FF015024BF8032003B0BDE8F08F76
:1038A40014F1160F2C60F8D01978A142F5DD02FB53
:1038B40008B0C7F89840C7F89840D7F89C4000F182
:1038C4000801007B64F304000871D7F8A0000C79A8
:1038D400400860F347140C71D7F89C1021F01F01C5
:1038E4006960D7F8A01021F01F01296108F10108CF
:1038F40014350C36B3E700BFFC19002000ED00E0DE
:10390400D5280020F0B54149414CD1F890302568C4
:10391400C3F307239D4287B075D80020FFF782FFC9
:103924003C4BC1F8C030854216D13B4C01A82570F0
:10393400FEF7B6F900250646384FAE4213D10020F3
:1039440023783249D1F89020C2F30722934254DB02
:10395400FFF75CFF00202FE0616801EB0011FFF727
:103964006DFE0130DFE70199280101EB0513DA68E8
:103974003A40B2F5001F21D0B2F5800F2BD0B2F53A
:10398400801F38D15A689B680958013B22F01F00F8
:1039940003440120844623F01F0340EA4C10CDE980
:1039A40002218DF8100002A920780593FFF760FE2C
:1039B40000281DDA6FF0150007B0F0BD5A689B6847
:1039C4000958013B22F01F0003444FF0020C012070
:1039D40023F01F03E1E75A689B680958013B22F072
:1039E4001F0003444FF0000C062023F01F03D4E70C
:1039F40023780133237001359FE7C1F89830C1F86B
:103A0400A00001339EE74FF0FF30D5E700ED00E062
:103A1400D4D60000AAFF4400D52800200000F0FFFF
:103A2400F0B587B007460E461446002110226846BA
:103A34001D4609F0B0FA02238DF80230054B2A46E0
:103A440021466846CDE90476019306F0E9FE07B005
:103A5400F0BD00BF6BBE000008B5024B1B68984761
:103A6400002008BD101A0020034B044A1860937804
:103A740043F0020393707047101A002030000020B6
:103A840008B50649064821F00701C1F1005202F5C4
:103A9400E02207F07EFB002008BD00BF9F4A002003
:103AA400141A002000F01F0240090DD001280DD186
:103AB400094B03EB8203D3F8002222F0E04242EAEE
:103AC4000171C3F800127047044BF2E700238032FF
:103AD40053F82230FFDE00BF0028845000258450B4
:103AE40038B50124134B144DC3F8004502230321B8
:103AF400C5F8D0360020FFF7D5FF20460321FFF795
:103B0400D1FFC5F804472146C5F804492120C5F86A
:103B1400004BFFF7C7FF21462020FFF7C3FF2146D4
:103B24000B20FFF7BFFF21460A20FFF7BBFF002051
:103B340038BD00BF001000500040005007B50DF123
:103B4400070004F03DF8114B98421CD14FF48062F9
:103B54000F4B1049C3F8B8254FF40062C3F83C2555
:103B64009DF8070008F06CFD0B499DF8070008F06C
:103B740062FD01209DF80730984004F01BF80020F6
:103B840003B05DF804FB6FF00B00F9E70000AD0B28
:103B940000A002502CA0025028A10250052370B5A9
:103BA400144D154E2C780134B4FBF3F303EB83036B
:103BB400E41A08F02EFD114A137823B156F8243084
:103BC400C01A072814D94FF05023D3F8141141B167
:103BD4000021C3F81411D3F814312C700CB901234B
:103BE40013702C7808F015FD46F82400012070BDF0
:103BF4000020FCE7D7280020201A0020D628002027
:103C040048B1054B054A1B68B3FBF2F35843044B18
:103C140043F00103184770473401002040420F006D
:103C2400E0D500000149024807F03DBEFCD6000083
:103C3400341A00204FF47F032DE9F041D3F83021EA
:103C44000646072A0D46D3F8343120D1023B032B14
:103C540002D8124AD35CD3B14FF050244FF001087C
:103C640000270520C4F81886C4F8147608F0E1FC8F
:103C74004046C4F8148608F0DCFCC4F81476C4F892
:103C8400187630462B46BDE8F041002118474FF026
:103C940050230022C3F81426F3E700BF22E70000F4
:103CA40003460221014A024807F064BF26E70000E8
:103CB40088D5000070B504460D4601460A4808F050
:103CC40046F820B92046BDE87040FFF7E9BF022D51
:103CD40008D150F8083C2BB11B691BB1BDE87040FA
:103CE4000068184770BD00BF681A002080B500AF97
:103CF40088B06A46064BC2E90530032342F8103FF8
:103D040000234FF4C4510348FDF70CFDBD4680BDAC
:103D14004CE7000088D5000070B506460D46014604
:103D2400314807F0FCFF044620B93046BDE8704036
:103D3400FFF7DCBF0A2D55D8DFE805F0060D27296B
:103D4400323D445454543100284A0321BDE87040A4
:103D5400274808F09FB803212548264A08F09AF816
:103D64000023012104F8033C04F8023C14F8043C49
:103D740020688B4204F8041C11D054F8083C73B139
:103D84009B6863B1BDE8704018471B4ADDE7032117
:103D94001A4A174808F07EF8012304F8033C70BD62
:103DA4000321174A124808F075F8002304F8033C6D
:103DB40004F8023CF3E70321124A0D4808F06AF8BC
:103DC4000123F5E70321104A094808F063F814F8C1
:103DD400023C002BE3D003210C4A054808F05AF8B2
:103DE4000023E5E70A4AB0E7681A00206DE70000FF
:103DF40088D500007AE7000090E70000A1E7000002
:103E0400B3E70000C7E70000D8E70000E7E70000D9
:103E1400F4E700002DE9F04105460F4601793148E9
:103E2400904607F087FF044648B9AB882E48022124
:103E34002E4A07F09FFE6FF01200BDE8F08195F95D
:103E440000300068002B6E781CDA022E08D0032E96
:103E540009D0012E42D154F8083C0BB11C68ECB9CE
:103E64006FF08500E9E76B882BB10121204A1E48D9
:103E740008F010F8F4E70123043CC8F800403B6064
:103E84000020DAE70A2EEBD00B2E0ED0092E25D116
:103E940054F8083C002BE3D05C68E0E743463A461C
:103EA4002946A446BDE8F04160476B88012B05D93B
:103EB400104A01210C4807F05DFED1E714F8042CE8
:103EC4009A42DDD0D9B254F8083C04F8041C002B03
:103ED400D6D09B68002BD3D09847D1E7064A334607
:103EE400E7E700BF681A002088D5000002E8000058
:103EF40029E8000055E800003CE800002DE9F04105
:103F040090F900300446002B0D46174603DB6FF092
:103F14001500BDE8F08140F20162038823F0E0035C
:103F24009BB29342F3D190F80480468841461548E9
:103F3400360A07F0FFFE30B902214346124A1348FD
:103F440007F018FEE3E7212E04D0222E0FD06FF0E5
:103F54008500DEE70368E1885B685B6813F8092F76
:103F6400914294BF29602A6000203B60D1E7E38836
:103F740050F80C2C9A4294BF2A602B6050F8103CE5
:103F8400F2E700BF681A002002E8000088D50000AC
:103F940010B50469A3600023C4E900126361064BF1
:103FA4002061596804F1140211B9C3E9002210BD5B
:103FB4000A605A60FBE700BF681A002070B54468C5
:103FC4000069457B3DB1807B28B9206ABDE870401B
:103FD4000079FEF7BDB90221034A044807F05AFFED
:103FE4006FF00A0070BD00BF6EE8000088D50000C5
:103FF400F0B5114D114E124F85B04FF0FF334FF015
:10400400FF32284601A905F0DFF8034690B10121EB
:104014003A460C4807F0AEFDEFE7236813B1019A66
:10402400934203D1D4E9013101A898470C34B44236
:10403400F3D3E2E7044CFAE728030020D0D50000CC
:104044008FE8000010D50000B8D50000F0B5174681
:104054001E4685B001909DF82800DDE90C542346E6
:104064002C432A468DF808008DF80910ADF80A7023
:10407400039608D009F012F80B4908580B498842F6
:1040840004BF002213460A4801A905F047F8041E9C
:1040940007DA0221074A084807F063FD204605B005
:1040A400F0BD0024FAE700BF0800000088110020DA
:1040B40028030020A4E8000010D50000772804D8C5
:1040C400034B185C08B100B270474FF0FF307047E3
:1040D400DCE8000008B50121034A044807F041FD6B
:1040E4006FF0120008BD00BF54E9000028D500009D
:1040F4007FB503460846DA884968012A04694E6890
:1041040017D0B2F5A57F17D00AB99A6862601B79F7
:104114006BB1D4E900320D7BAB4202D24D7B9542A8
:1041240010D8022100921248124A07F02DFD04B063
:1041340070BD9A682260EAE79A68003A18BF0122C3
:104144002272E4E705FB03228B689342EFD936F829
:104154001220002AEBD0237A4FF0FF354FF0FF34C2
:104164000121CDE902450091FFF770FFDFE700BFB1
:1041740028D500006BE90000020600F07F0312D589
:10418400082B05D1010700F00F0306D50E48704730
:1041940010F0780F12D100F00F034C2000EB431005
:1041A4000A4B18447047082B05D1020700F00F038F
:1041B40006D50748704710F0780FF6D000207047F6
:1041C400044800EB43107047C81B00207C1A0020F1
:1041D400E81C0020E81B00200149024808F08DBCBF
:1041E400A41A0020700900200146014808F013BCFD
:1041F4007003002000220023014805F00FB900BF1E
:104204007003002013B5002201213720FFF768F95D
:10421400114800F0CFFE114B98421AD100241048E7
:1042240004F09EFC0F4804F02DFD4FF0FF334FF4D3
:1042340080620D490D48009405F096FA0C490B482C
:1042440008F07DFC0B480C4908F03BFC204602B00A
:1042540010BD6FF00400FAE7FD4700000000AD0B4D
:10426400D2EB00001CD70000803000207009002031
:10427400A1E90000A41A0020F5430000002310B5B2
:104284000B49D1E8EF2F012A03D1C1E8E03F002810
:10429400F7D10CD151F8044C1439204607F091FBA6
:1042A400783004D12046BDE8104007F066BB10BD4D
:1042B4009C1A002038B5002464F07F00C0B2FFF7D8
:1042C4005BFF013407F026FE082CF5D100240E4DC7
:1042D400E0B2FFF751FF036903B90561013407F048
:1042E40019FE082C05F14005F2D1084807F012FE2A
:1042F400074BD3F87C2212B9064AC3F87C2206483D
:1043040007F008FE002038BD0C210020C81B002047
:104314007C1A00200C1D0020E81C002010B5054C60
:10432400FFF768FF20B14168204608F087FAF7E7F5
:1043340010BD00BF8C02002007B5002300221448E2
:1043440001A904F0BDFEE8B10121124A124807F0A8
:10435400F4FDFFF7E3FF002200230D4801A904F058
:10436400AFFE30B101210D4A0B4807F0E6FD0020F5
:104374000AE00423019840600374FFF735FFFFF758
:104384002BFFF4E70198406003B05DF804FB00BF25
:104394008C020020ACE9000090D50000CAE90000BE
:1043A40003460121014A024807F0E4BBE6E90000A4
:1043B40090D50000022810B511D80B4A145CFFF701
:1043C400BBFF80B1002204720274FFF70DFF074B9C
:1043D40093F824303BB1BDE81040FFF7FDBEBDE8C3
:1043E4001040FFF7DDBF10BDCFEB00007C1A0020AA
:1043F4002DE9F0438046A04CDFF8809285B0FFF7AA
:10440400F9FE074610B905B0BDE8F08394F82520FD
:104414003B7C3AB9002B00F09A807968974808F001
:104424000DFAECE7042B00F27181DFE813F0900041
:1044340005000E0139015A0118F8043C33B9BB6870
:104444005B7A01218E4A8F4807F094FB3B7BBD6861
:10445400032B37D8DFE803F0023D636800226E695E
:10446400894B32607260D3F880143170D3F88414AD
:104474007170D3F88814D3F88C0441EA0021718058
:10448400D3F89014D3F8940441EA0021B180D3F80E
:104494009814D3F89C3441EA0323F3800823EB6097
:1044A40030687168794B03C311462B68687A984762
:1044B40096F90030002B08DBF38833B1A4F88C3272
:1044C40001F0C4F848467968A9E70023A4F88C32BF
:1044D400F8E76B7F002BF5D02B7F002BF2D0002662
:1044E4004FF0FF324FF0FF3369486E772E7707F0B5
:1044F40026FD6B6901A901936B68CDE90236687AE0
:1045040000F0AEFD634A0346904204D00121624AA2
:104514005C4807F02FFB5E4807F013FDD2E701214A
:104524002B68687A9847CDE7AB7A6BB9EB7F5BB9B8
:1045340057484FF0FF324FF0FF3307F000FD01F012
:104544008BF8534807F0FDFC02212B68E9E73B7A1E
:10455400042BB7D8DFE803F055031F636F0000F0A6
:10456400E9FC05460028ADD100F096FC01234B4937
:10457400D1E8EF2F002A03D1C1E8E03F0028F7D1AA
:10458400A0D141F8085C41F8105CE069143963611A
:1045940007F09CF996E7002565F07F00C0B2FFF7AD
:1045A400EBFD037A13B1407A01F0B8F90135082D17
:1045B400F2D194F854311BB194F8550101F0AEF9DD
:1045C4000025E8B2FFF7D8FD037A13B1407A01F071
:1045D400A5F90135082DF4D194F874321BB194F87F
:1045E400750201F09BF9002000F088FC012384F897
:1045F40025302368002B3FF465AF00210220984743
:1046040060E7002584F8255001F0F0F8FFF736FE46
:104614002368002B3FF456AF29460420EFE7002A15
:104624003FF450AF00F090FC2368002B3FF44AAFF6
:1046340000210520E3E72368002B3FF443AF002A61
:104644003FF440AF00210620D9E708F110054FF0F0
:10465400FF334FF0FF32284607F071FCFFF72AFEC4
:10466400284607F06EFC58F8283C002B3FF42AAF8C
:1046740000210120C3E700BF7C1A00208C02002027
:1046840001EA000090D5000000600350801A002069
:10469400B41A00200000AD0B27EA00009C1A002089
:1046A40094F8743263B1012584F8895284F88852ED
:1046B400FFF742FE60B92946174A184807F03DFC47
:1046C40058F8283C002B3FF4FDAE00210A2096E761
:1046D400134A057405738260FFF786FDFFF77CFDBE
:1046E400EEE701210F4A0D4807F027FC04F0B2FA67
:1046F40001F07CF800F0C6FBFFF710FEFFF7DAFDCF
:1047040004F0A0FA084800F055FCDBE60121074A52
:10471400024807F02FFAD5E64DEA000090D50000D4
:10472400E81C002061EA0000FD47000078EA000070
:10473400F7B5877806463846FFF71EFD3B06054663
:10474400F4781DD554B1032C06D001212346274A01
:104754002748009707F018FA03B0F0BDFFF7ECFD07
:1047640003460028F8D00122AC77027403220273B6
:104774009D60FFF739FD03B0BDE8F040FFF72CBDA5
:1047840054B1012CE1D1FFF7D7FD03460028E3D053
:104794006C7704740473EBE7FFF7CEFD0028DBD0DD
:1047A400B278144B12F0800F02F0080111D041B11D
:1047B400D3F8A836EB6001230374022385600373E6
:1047C400D7E7142102F00F0201FB0233D3F80836B5
:1047D400F0E711B1D3F8A837ECE7142102F00F0287
:1047E40001FB0233D3F80837E4E700BF90EA000086
:1047F40090D50000006003501422F0B506468BB03B
:1048040000210DEB020008F0C6FB3378013B052BB9
:1048140021D8DFE803F08B0314147B160323002450
:104824008DF81C30FFF788FD0346A0B100F10802A3
:104834000474DDE9070182E80300184626E0042336
:10484400EDE7B7783846FFF797FC837A054623B13E
:10485400013B022B54D90BB0F0BD3B06F4781CD5B8
:104864004CB1032CF7D001212346314A314800973B
:1048740007F08AF9EFE7FFF75FFD03460028EAD067
:104884000122AC770274032202739D60FFF7ACFC33
:104894000BB0BDE8F040FFF79FBC54B1012CE2D14E
:1048A400FFF74AFD03460028D5D06C7704740473DF
:1048B400EBE7FFF741FD04460028CCD00223012793
:1048C400037307748560B07805F10C0107F070FB81
:1048D400034620B1184A3946164807F04BF9174ADF
:1048E400E968B2F88C328B4206D95B1AA2F88C3292
:1048F40000F0ACFE2046C9E70023A2F88C32F9E7A9
:1049040030460BB0BDE8F040FFF712BF03A800F03B
:104914007BFE9DF80D30052B04D19DF80C3013F06F
:10492400600F98D0064B012407937BE7022479E7B4
:1049340090EA000090D50000BCEA00007C1A002038
:10494400E81B002038B5154D95F8244024BB05F12B
:10495400380007F0D9FF022001F044F92246012172
:10496400E8613620FEF7BCFD04F06CF9FFF7A2FC09
:10497400044610B9012385F82430094B1B680BB198
:10498400FFF72AFC074BD3F80034DB0702D50020DD
:10499400FFF710FD204638BD0024FBE77C1A0020F9
:1049A4007003002000700350074B93F824203AB1A1
:1049B40093F82530002B14BF00206FF012007047CD
:1049C4006FF01200704700BF7C1A002008B503780E
:1049D400027903F00F0142B991B10D4A01210D484A
:1049E40007F0ABFA4FF0FF3008BD082901D90A4A95
:1049F400F4E7012A04D11B0707D4084A0221EEE791
:104A040013F00800F0D0064AF8E70020ECE700BFF6
:104A1400DCEA000090D50000FBEA00001AEB00007D
:104A240030EB000038B5134B044693F82430EBB157
:104A340005782846FFF7A0FB88B145722379837275
:104A4400638843602078618810F0080F0AD14B1EF8
:104A54000B4207D00121084A084807F06EFA6FF0AC
:104A6400150038BD07F09FFA0020FAE76FF0120036
:104A7400F7E700BF7C1A00204DEB000090D5000042
:104A840038B5154B054693F824200AB393F825301E
:104A9400F3B1FFF771FB044610B96FF0150038BD90
:104AA400817A01290FD007D90239012907D90020B9
:104AB4006369E060A361F2E700F0D4FDF7E72846FC
:104AC40000F076FDF3E7054A054807F036FAE4E717
:104AD4006FF01200E3E700BF7C1A002075EB0000C2
:104AE40090D5000038B50E4B054693F8242082B1CA
:104AF40093F825306BB1FFF73FFB68B115F008045C
:104B04000AD1284600F076FD284600F03FFF2046F3
:104B140038BD6FF01200FBE76FF01500F8E700BF37
:104B24007C1A002038B50C4B054693F824200C461B
:104B340062B193F825304BB1FFF71EFB48B144B185
:104B4400284600F03DFD2070002038BD6FF01200B3
:104B5400FBE76FF01500F8E77C1A002070B5134EE0
:104B6400044696F82430C3B1FFF706FB0546B8B1F6
:104B7400230705D4204600F03DFD204600F006FF43
:104B84002B7A83B901232B7296F825300BB90020B8
:104B940070BD204600F0C2FEF9E76FF01200F7E79F
:104BA4006FF01500F4E76FF07700F1E77C1A00204E
:104BB4002DE9F043DFF8F4801E4698F824300746C8
:104BC4008946154685B0002B6DD098F82530002B0A
:104BD40069D003060BD5FFF7CFFA044638B1037A40
:104BE4005BB901213B46324A324806F0C3FF6FF0FD
:104BF4001504204605B0BDE8F0834FF0FF334FF0B5
:104C0400FF3208F1380007F09AF9A37F33B108F1B5
:104C1400380007F096F96FF00A04EAE7A37A05B3BF
:104C24007BB301234FF00008A377384601A9CDE9EF
:104C34000195CDF80C8000F013FA1F4A0346904208
:104C44002DD084F81E800EB1C6F8008001211B4AC5
:104C5400184806F08FFF6FF00404194807F071F943
:104C6400C7E7E27F02B1E577002BDAD100F000FD5F
:104C74008742D6D000F0F0FC114807F062F9002416
:104C8400B7E7B8F80A309D42F0D26268B5FBF2F398
:104C940002FB1353002BE9D10123E377E6E706B1C6
:104CA40035600024D9E76FF01204A2E77C1A0020D3
:104CB40097EB000090D500000000AD0BB6EB0000B0
:104CC400B41A00202DE9F0411D46254B174693F8F0
:104CD400242080460E46002A3FD093F82530002B2E
:104CE4003BD010F0800F0ED101B967B94046FFF7F1
:104CF40043FA044638B1037A43B901214346194AB9
:104D0400194806F037FF6FF0150013E04FF0FF333A
:104D14004FF0FF32154807F012F9E368B8469F4296
:104D240028BF984646B93FB905B12B600F4807F034
:104D340008F90020BDE8F08142463046A16908F038
:104D440003F9A3694344A361E368A3EB0803E360A5
:104D5400002DEBD0C5F80080E8E76FF01200E9E71A
:104D64007C1A002097EB000090D50000B41A0020B4
:104D740070B5224D064695F82430002B3AD095F8AC
:104D84002530002B36D003060BD4FFF7F5F9044683
:104D940038B1037A43B901213346194A194806F058
:104DA400E9FE6FF0150070BD4FF0FF334FF0FF3296
:104DB40005F1380007F0C3F8E368B3B90126636965
:104DC4002677A361637F83B1FFF7B6FA30B905F1A3
:104DD400380007F0B6F86FF00B00E4E7067484605F
:104DE4000673FFF701FAFFF7F7F9074807F0A9F888
:104DF4000020D8E76FF01200D5E700BF7C1A00202E
:104E040097EB000090D50000B41A002010B5084BB1
:104E14000C4693F824302BB1FFF7AEF928B10460A7
:104E2400002010BD6FF01200FBE76FF01500F8E7EB
:104E34007C1A0020014B1860704700BF7C1A0020C8
:104E440008B5074B93F8243023B1FFF795F920B147
:104E5400406808BD6FF01200FBE76FF01500F8E73B
:104E64007C1A0020064B10F0800FA3F1D80208BF73
:104E74001346182200F00F0002FB0030704700BFF9
:104E8400242400200023024A1360024A137070474E
:104E940004250020DC2800204FF40062114BC3F8E5
:104EA40000240122C3F80025D3F800241205FBD501
:104EB4004FF40062C3F800248022C3F81C250122A9
:104EC400C3F8302540F2FF12074B1A600023074A4B
:104ED4001360074A1370074A13700222064B1A70B4
:104EE400704700BF0060035000250020FC24002010
:104EF400D8280020DA280020DC2800200022094BD2
:104F040010B51A70084A094B094C002808BF13460B
:104F14003620C4F80033FEF7B3FA0123C4F804358D
:104F240010BD00BFDB280020FDFFDF01FDFFFF01F6
:104F340000600350034B1878012894BF002001201F
:104F4400704700BFDC28002010B54FF0FF324FF04F
:104F5400FF33154804F0C8FAEFF31181202383F3DB
:104F64001288BFF36F8F114B1B7803F0FF0483B1DA
:104F74000F4BD3F8002412F400720AD10120C3F8B5
:104F84002C05D3F82C05D3F80004800502D5C3F80A
:104F94002C25002481F31188BFF36F8F024804F09D
:104FA4006FFA204610BD00BF50030020DB2800200C
:104FB40000600350F8B51C4B1C7894BB1B4A40F2AC
:104FC400FF171060012226461A7064F07F0514F062
:104FD400080FEDB214BF39464021284606F0E3FF1E
:104FE4002846FFF73FFF0134092C867506730661D6
:104FF400EBD1002440F2FF17254614F0080FE6B267
:1050040014BF39464021304606F0CDFF3046FFF745
:1050140029FF0134092C857505730561EDD1044818
:10502400F8BD0448FCE700BFDC280020042500206C
:105034000000AD0B0500AD0B084B10F0800F14BF42
:10504400D3F81025D3F81425012300F00F018B4069
:10505400134214BF01200020704700BF00600350BA
:1050640002462DE9F843EFF31187202383F31288D6
:10507400BFF36F8F030703D1194B1B7883422AD1E7
:10508400184B10461C684FF00109E44306F083FFF7
:10509400154EA4B2356809FA00F82C4314EA080442
:1050A4001BD11046FFF7DEFE034680F80C9007C9BB
:1050B40083E807004FF480021C619C750B4B45EAA2
:1050C40008050B483560C3F8042187F31188BFF342
:1050D4006F8FBDE8F8830748F7E70748F5E700BF97
:1050E400DA28002000250020FC24002000E100E054
:1050F4000000AD0B0A00AD0B0B00AD0B10F0080F58
:10510400074B06D0D3F8C00410F4803F18BF00202A
:10511400704700F00F0000F5947053F820007047BA
:10512400006003502DE9F04FAB4BAC4FD3F8542142
:1051340085B0DAB10022C3F85421D3F804138902EC
:1051440014D58DF80C20D3F8202503A8ADF80E2033
:10515400D3F8C034002B14BF4FF001224FF48072F7
:105164003B6813433B609E4B1B6898479A4BD3F8AC
:10517400604134B10022C3F86021D3F86C44C3F811
:105184006C44D3F828214AB10022C3F82821954B56
:10519400187806F000FF012383401C43DFF848829F
:1051A400924E98F8005098F9009015F0080141D1FA
:1051B400B9F1000F05F00F032CDA8D4A52F82300E1
:1051C40010B342F823101422534303F1A04303F510
:1051D4005833D3F80836874A03F0010311784B405B
:1051E4001370854804F04CF92846FFF73BFE837D95
:1051F400032B37D1284606F0CEFE012303FA00F034
:10520400336823EA0003336001254FF00609DFF811
:10521400D0A15DE0794A52F823000028F4D042F886
:1052240023101422534303F1A04303F55833D3F856
:105234000837D0E7B9F1000F674B09DBD3F85021E9
:10524400002AE1D00022C3F85021D3F8A837C2E7DE
:10525400D3F82C21002AD7D00022C3F82C21D3F86C
:10526400A836B8E7037BDBB9284606F094FE012391
:1052740003FA00F03368B9F1000F23EA0003336046
:1052840001DA882DC0D106238DF80C3000238DF867
:105294000F30534B8DF80E501B6803A89847B3E7A3
:1052A400002DB1D101224C4BDA64ADE794FAA4F09D
:1052B400B0FA80F03A6805FA00F31A430F283A600E
:1052C40024EA0304326840F39D80134200F0AA806C
:1052D400002CEBD1404BD3F800215AB1C3F8004164
:1052E400474B03A81C703F4B1C70012303933C4B9A
:1052F4001B689847384BD3F85821002A2ED0002237
:10530400C3F85821D3F80044C3F80044E30508D592
:1053140001223B4B03A81A7002230393304B1B68F2
:105324009847A50508D50022354B03A81A70032316
:1053340003932B4B1B68984760050FD5304B1A78A5
:1053440062B100221A700122234B03A8C3F8082576
:105354009A6504230393224B1B6898471E4BD3F88A
:105364005C3103B3244B9B681BB998F80030590691
:1053740019D00022184B03A8C3F85C21D3F8803459
:10538400184A23F07F031370336823F0011333604A
:105394003B6823F4803343F001033B60052303930C
:1053A4000F4B1B68984732683B681A4200F09380A1
:1053B40000220023104804F097F8002840F08B8066
:1053C400054BD3F82C35002B00F0A8800A4805B013
:1053D400BDE8F04F04F054B80060035000250020ED
:1053E40004250020DA280020D9280020FC240020ED
:1053F40008610350D8280020500300203061035076
:10540400DB28002013407FF463AF60F07F018DF848
:105414000C908DF80E108DF80F30DAF8003003A8D8
:10542400984755E7A0F110018DF80C908DF80E10F7
:105434008DF80F50F1E749F080052846FFF712FD7B
:105444004368B0F814B001689B4528BF9B4601F03F
:105454006043B3F1005F044604D05A46514807F054
:1054640073FD5049226863685A442260A268A3EB22
:105474000B03D20768B2636005D5BBF1000F04D1FA
:105484000023237301E0002BFAD0012202FA09F968
:105494002AEA09033B60236915F0080F5B44236182
:1054A40088F80050404B6FD100284FF0140005F0ED
:1054B4000F0500FB0530B5BF03EB85030A35C0F8C3
:1054C4000016C0F80017B5BFC0F804B6C0F804B79A
:1054D4005A6043F8252005B0BDE8F08F61464FF0CF
:1054E400000B70454AD1003A18BF0122BCF1000FED
:1054F40046D0584544D9012202FA09F223EA0203AC
:105504003360062302218DF80C30284BA1751B68EB
:105514008DF80E508DF80F1003A898473368D7F80C
:1055240000A013EA0A093FF451AF19F0012214BF95
:1055340092FAA2F999FAA9F9B9FA89F9B9F10F0F0E
:1055440001937FF678AFA9F11005EDB22846FFF775
:1055540089FC04462846FFF7D1FD6268B4F814E0DC
:105564009042D4F800C0019BB8D800EB0C0B121A7F
:10557400C4F800B0614683466260B2E70022B5E732
:1055840068B2002A81D17BE70028B5BFC3F8A01612
:10559400C3F8A017C3F8A4B6C3F8A4B7B4BF5A623B
:1055A4009A6498E70C23002000600350042500202F
:1055B400024B40F48070C3F8180570470060035034
:1055C400030713D400F00F0310F0800F084A0BBF39
:1055D40003F5887303F5847302EB830252F8230006
:1055E40008BF5068003818BF01207047002070477A
:1055F40000600350034BC3F80C0540F48070C3F8FB
:105604000C057047006003500023036043600E4B99
:10561400D3F880240270D3F884244270D3F8882409
:10562400D3F88C1442EA01224280D3F89024D3F8B0
:10563400941442EA01228280D3F89824D3F89C344B
:1056440042EA0323C3807047006003500122014BE8
:10565400DA647047006003500122014B1A657047F9
:10566400006003500122014B5A65704700600350EB
:10567400014B1878704700BFDA280020024610B5A5
:10568400EFF31184202383F31288BFF36F8F06F0A6
:1056940082FC01230A4903FA00F00B6823EA0003A1
:1056A4000B6012F0080101BF02F00F02054B02F576
:1056B400947243F8221084F31188BFF36F8F10BDE6
:1056C4000025002000600350F7B50146EFF3118573
:1056D400202383F31288BFF36F8FFFF7C3FB0646C3
:1056E400084606F058FC012211F0800F02FA00F27D
:1056F4002D4818D1036832EA03040AD00846FFF79C
:10570400BDFF0323B37585F31188BFF36F8F03B017
:10571400F0BD264923EA020303600B68347323EACD
:1057240002030B60EDE70B0715D48029204B2FD023
:1057340001F00F0404F2DA346400C3F80048D3F82B
:105744000448D3F80478E4B244F002043C43C3F8B8
:105754000448D3F80438154F04683B6864EA030C22
:105764001CEA020FCFD013433B600023337303239F
:1057740024EA02040622B3758DF807300D4B046049
:105784001B688DF804208DF8061001A89847BAE725
:1057940040F2B474C3F80048D3F80448D3F804784A
:1057A400E4B244F00404D1E7FC24002000250020E6
:1057B400006003500425002038B50446094D4FF01D
:1057C400FF324FF0FF33284603F08EFE2046FFF7EA
:1057D4007BFF284603F054FE4FF48002024BC3F8CB
:1057E400042138BD5003002000E100E0F8B54FF07B
:1057F400FF324FF0FF332A4803F076FE4FF4800265
:10580400284B3620C3F88421FDF75CFE98B10127AC
:10581400254E264B34681B68240C24041C4354BBBB
:1058240040F2FF13224D33603620C5F80445FDF7DE
:1058340035FEC5F800431F4A13788BB100211C4B79
:10584400C3F808110121C3F80026C3F804165960EF
:10585400D3F808110029FBD00021C3F808111170F6
:105864000022134BC3F800250D4803F009FE012262
:10587400114B1A70F8BD94FAA4F5B5FA85F52846CB
:105884000F2DC6BFA5F11000C0B240F08000030781
:1058940001D4FFF719FF07FA05F524EA0504BEE76A
:1058A4005003002000E100E000250020FC2400203B
:1058B40000600350D8280020DC28002010B50446DE
:1058C4004FF0FF324FF0FF33114803F00DFE204636
:1058D400FFF7FAFE012304F00F029340DB430D4A65
:1058E40014F0800F15BFD2F81015D2F814150B4020
:1058F4000B4014BFC2F81035C2F81435044803F045
:10590400BFFD4FF48002044BC3F8042110BD00BF57
:10591400500300200060035000E100E070B504462D
:10592400FFF78AFB68B9012504F00F0214F0800F19
:10593400144B05FA02F205D0D3F810150A43C3F844
:10594400102570BDD3F814150A43C3F81425631E3B
:10595400062BF6D8EFF31186202383F31288BFF3C6
:105964006F8F2046FFF78AFE204606F014FB064A96
:105974008540136823EA0503136086F31188BFF397
:105984006F8FDEE700600350FC240020030610B58F
:10599400044605D4FFF714FE10B12046FFF76EFE4F
:1059A400014BC3F8184510BD00600350084B70B597
:1059B400C31A0D4607499B10044659434022064822
:1059C40006F015FB2B4601462046BDE870401847FB
:1059D4001C250020B76DDBB66CD10000402373B5E5
:1059E4000B4C0093041B0B460D460A49A41061435B
:1059F4000646094A094806F025FB011E05DA304629
:105A04002B4602B0BDE87040184702B070BD00BF1D
:105A14001C250020B76DDBB6B1C000006CD10000BE
:105A240010B5EFF31184202383F31288BFF36F8F33
:105A3400074A136823F00201DB07116002D4012036
:105A440006F00AFE84F31188BFF36F8F10BD00BF08
:105A5400BC2500202DE9F84300220121064605203B
:105A6400FDF73EFD114802F02BF9114B984219D174
:105A740002F036F900244FF01C090C27DFF83480BB
:105A84003569414609FB045005F00DFF002807DB8A
:105A9400012307FB04551C44042CAB67F0D1002000
:105AA400BDE8F8836FF00400FAE700BFB55B0000BF
:105AB4000000AD0B24D700001FB500220123CDE95F
:105AC40002236B46084ACDF800D0CDF804D006F086
:105AD400E6FA002805DB4FF480420023684603F011
