:100000000042002041320000DBBC00002D32000025
:100010002D3200002D3200002D3200002D32000064
:100020000000000000000000000000009D33000000
:100030002D320000000000003D3300002D32000092
:100040002D3500002D3500002D3500002D35000028
:100050002D3500002D3500002D3500002D35000018
:100060002D3500002D3500002D3500002D35000008
:100070002D3500002D3500002D3500002D350000F8
:100080002D3500002D3500002D3500002D350000E8
:100090002D3500002D3500002D3500002D350000D8
:1000A0002D3500002D3500002D3500002D350000C8
:1000B0002D3500002D3500002D3500002D350000B8
:1000C0002D3500002D3500002D3500002D350000A8
:1000D0002D3500002D3500002D3500002D35000098
:1000E0002D3500002D3500002D3500002D35000088
:1000F0002D3500002D3500002D3500002D35000078
:100100002D3500002D3500002D3500002D35000067
:100110002D3500002D3500002D3500002D35000057
:100120002D3500002D3500002D3500002D35000047
:100130002D3500002D3500002D3500002D35000037
:100140002D3500002D3500002D3500002D35000027
:100150002D35000053B94AB9002908BF00281CBF3B
:100160004FF0FF314FF0FF3000F00CB8ADF1080C4C
:100170006DE904CE00F01AF8DDF804E0DDE90223B1
:1001800004B07047704700BF10F8012B11F8013B15
:10019000012A28BF9A42F7D0D01A7047034613F8B5
:1001A000012B002AFBD1181A013870472DE9F047BE
:1001B00086468C460846089E154674461946002B0E
:1001C00040F0C1808542B2FA82F245D94AB1C2F10B
:1001D000200300FA02FC954094402EFA03F343EA10
:1001E0000C0C4FEA154EA8B2230CBCFBFEF80EFB1C
:1001F00018CC08FB00F943EA0C43994528D9EB18C1
:1002000008F1FF3704D2994502D9A8F102072B441F
:10021000A3EB0903A4B2B3FBFEFC0EFB1C330CFBE7
:1002200000F044EA0344A04214D92C190CF1FF3326
:1002300004D2A04202D9ACF102032C44241A43EAAE
:1002400007401EB1D440002334607360BDE8F087DE
:100250004746DDE76346F1E792BB431B01214FEAC6
:10026000154EAFB2200CB3FBFEFC0EFB1C330CFB97
:1002700007F840EA0343984561D9EB180CF1FF30C9
:1002800004D2984502D9ACF102002B44A3EB080339
:10029000A4B2B3FBFEFC0EFB1C330CFB07F744EAD5
:1002A0000344A7424DD92C190CF1FF3304D2A742C5
:1002B00002D9ACF102032C44E41B43EA0040C0E73E
:1002C000C2F120039540944020FA03F12EFA03F383
:1002D0004FEA154E9040AFB20343B1FBFEFC0EFB5C
:1002E0001C10190C0CFB07F841EA0041884522D983
:1002F00069180CF1FF3004D2884502D9ACF1020034
:100300002944A1EB08019BB2B1FBFEFC0EFB1C11C2
:100310000CFB07F743EA01439F420ED9EB180CF19F
:10032000FF3104D29F4202D9ACF102012B44DB1B06
:1003300041EA004193E76046E3E76146F7E760463C
:10034000A4E76346B8E7834206D916B900210846F8
:100350007CE7C6E900E0F9E7B3FA83F78FB9834297
:1003600001D3724508D8BEEB020460EB0303012001
:100370009C461EB9002169E73846FAE7C6E9004CF9
:10038000F8E7C7F1200CBB400EFA07F522FA0CF48F
:100390002EFA0CF1BA401C4320FA0CF3B8404FEA95
:1003A000144901431FFA84FEB3FBF9F809FB183026
:1003B0000B0C08FB0EFA43EA00439A4540D9E318B8
:1003C00008F1FF3004D29A4502D9A8F10200234473
:1003D000A3EB0A0389B2B3FBF9F809FB183308FB56
:1003E0000EFE41EA03418E452CD9611808F1FF3316
:1003F00004D28E4502D9A8F10203214443EA004009
:10040000A1EB0E01A0FB02984145CE46434602D324
:1004100006D14D4504D20138B9EB020E68EB040356
:10042000002EA7D0B5EB0E0261EB030101FA0CFC24
:1004300022FA07F3F9404CEA0303C6E9003199E7D1
:100440004046C5E74346D9E72DE9F0414379012B02
:100450004FD1C5888468284603F0E0FD074628464A
:100460000BF0D8FC002F44DB234D00212B68CCB9C6
:10047000224EFAB230469C420FD016F8011B914230
:1004800004F1010131D15E1E321B0144B44288BF28
:10049000002220440CF0F8FC2E600022184B1A7049
:1004A0005A700BE0052B98BF5C1C154A9CBF2C6052
:1004B000124C117098BFE7545170C0B900232868DE
:1004C000104A0E4C984294BF0021E15C0133062B88
:1004D00002F8011FF6D10C4808F0BAFBBDE8F04164
:1004E00000230822064903F017BD0C46C3E710702D
:1004F000E4E7BDE8F08100BF48120020D0280020CA
:10050000D6280020D728002098DA000010B513481C
:1005100008F09EFB044618B911480AF083FE10BD8E
:10052000104900233F2203F0E1FC20460BF068FC59
:10053000014618B10C480AF075FEF0E701F096FF8D
:10054000014608B10948F6E709480AF06BFE4FF08A
:10055000FF314FF0FF300CF064FBF8E798DA000051
:100560009EDA000034DB0000BDDA0000EBDA0000A8
:1005700011DB0000F0B587B000AF456806461222D7
:100580000021B81D0CF09AFCEA69224BB3FBF2F390
:100590001022BB60AB683A71FB606B6802223B6162
:1005A0004FF47A737A717B612868836801211B6834
:1005B0003A1D9847041E06DB0023297BDAB29142DC
:1005C0000BD8002405E001212346134A13480BF001
:1005D0007CFA20461C37BD46F0BD6A69D25C013307
:1005E000042AEBD96C4688B06A4633680C49C2E9E4
:1005F00005134FF4007393830A4B42F8103F002316
:100600004FF4E251054801F02BF8A5466FF01504B0
:10061000DFE700BF40420F0078DB000020D500007C
:1006200092DB0000030000012DE9F3474568002339
:100630000C461646A8684FF4A02201A995F824702C
:1006400095F8259095F8268008F0E2FC031EC7F186
:1006500000070ADA0121404A40480BF036FA6FF0F1
:100660000B04204602B0BDE8F0872146019806EB56
:10067000860640F8047B2644B1424CD10023298BE6
:100680009AB2914249D828686A6883680199DB6800
:100690009847041E45DA0199A8680CF090F80121EA
:1006A00023462F4A2D480BF010FADAE76B699B5C62
:1006B000042B29D8DFE803F02403202226000A783F
:1006C0004FF0080C4FF0800E002312EA0E0F0CBF03
:1006D000C246CA46BCF1010C4AEA03134FEA5E0E59
:1006E000F3D187EA334340F8043B01342B7BE2B279
:1006F0009342DBD80531BFE74A78E1E78A78DFE744
:10070000CA78DDE70A79DBE70199A8680CF057F8A9
:100710006FF01504A5E70024E8E740F823700133E3
:10072000ADE728688368002201211B699847041EF1
:1007300097DB28688368022201211B699847041E01
:100740008FDBD5E907206B689B0802FB030009F0EB
:1007500001FB002485E700BFADDB000020D50000D1
:10076000C7DB00002DE9F04F91B0009302F00403C5
:100770000293C2F3C2030133840705460E46DDF837
:1007800068800392059340F0BB81041D30B10729B6
:1007900009D86FF01B0011B0BDE8F08F01F007061B
:1007A0003444C6F10806009B4FF000094FF0040ADC
:1007B000591E4FF0FF334F460193CB465346CDF8B9
:1007C00010900DB1009A22600598002800F3E8808F
:1007D0009848009A824203D397488242C0F0E08052
:1007E000039AA4EB050E92074FEA9E0000F10381E5
:1007F0000F2F00F2B180002D00F0058107F14002BB
:100800000DEB020C019A0CF8200C0CF8102C04983B
:1008100001300490E7E07A285DD84B280ED84728AD
:1008200059D829282DD8252852D054D820287AD014
:100830002338D0F1000B4BEB000B74E04C382E2822
:1008400049D8DFE800F070484848484848484848D8
:1008500048484B484848484848484859484B4B59ED
:100860005959704B6D487048184B184848827F4B57
:1008700048484B487F0000204FF0000B4FF0040A1F
:1008800038E001222A38C0B202FA00F010EA0E0F56
:1008900049D110F0625C2FD110EA020B43D06046C0
:1008A000013C5444B4FBFAF40AFB04F4002D61D07B
:1008B000A3EB050CA444B4453FF66BAF002868D108
:1008C000042B47D158F8043B2360042304342AE066
:1008D000019A013A01924FF0000B24E011F8010C4B
:1008E0006C2834D1002011F8023C83466C2BC5D112
:1008F0004FF0080A5346D3E708F1070828F0070825
:10090000073424F00704F8E802AB35B10698204418
:10091000B0423FF63EAFC4E900AB4FF0000B0834E5
:100920004FF0080A534611F8010F002878D0BBF1A8
:10093000000F7FF470AF2528F5D14FF0010B019B1C
:10094000013301934FF0040AECE7584694E7002086
:100950008346A5E7082B02D06FF015001BE708F1CE
:10096000070828F00708F8E80223C4E90023082351
:100970000834D8E768B9042B02D108F10408A4E7C9
:10098000082BE9D108F1070828F0070808F1080842
:10099000EDE7059A013A059258F8042B009210E70A
:1009A000039A900720D54FF0010CA4EB050E4FEAF7
:1009B0009E00BEF5007FCFD20F2FCDD8F5B107F145
:1009C00040020DEB020E019AC0B20EF8200C0EF898
:1009D000102CBCF1000F3FF41AAF60F07F000EF84E
:1009E000200C09F101090137C5F108024FF6DA7E42
:1009F0000434069297E74FF0000CDAE7BCF1000FE1
:100A000001D00136EFE7029802360028EBD10098BA
:100A1000CDE90631FFF7C2FBDDE906310644E2E726
:100A2000631BB3F5806F97D245B9A6F10804E018AF
:100A3000B1E600BFD4CF000098F00000029A9B08F6
:100A400028602B709DF81030C2B1EB7085F80290D1
:100A5000B9F1000F05D0002208A8C5F1010C97429A
:100A60000ED14FF0000AC5F101030DF120080193EA
:100A70000DF1300B574512D1601B8CE66B70E5E72A
:100A800010F8013B190608D50CEB040EB64503F02F
:100A90007F033FF67EAE04F8013B0132DFE7B9F198
:100AA000000F03D098F90020002A17DB029BD3B176
:100AB0001AF80B2004F8012B0022019B181910448E
:100AC000B0423FF666AE98F80000009904F8010BBA
:100AD000204603920CF0CBF9039A14440AF1010A60
:100AE00008F10108C6E798F8002055F82230009375
:100AF000029B009845F82230FFF750FB421CDCE7D0
:100B00006FF00D0047E600BF2DE9F04F97B000AF42
:100B1000D7F880B03B62CBF3C0030446894690F817
:100B200002A0FA62BB6141B9457800780AEB800007
:100B300020444D4517D8A0EB0409E378FB61BAF1D6
:100B4000000F02D01BF0010F16D1FB6953BBFB6AEB
:100B50001BB1494620463A6A98474D4628465C37BD
:100B6000BD46BDE8F08F461C3046FFF717FB01304D
:100B7000304409F10109DCE7626823787A62FA6A95
:100B80009900796104EB8301002A40F001810E464F
:100B90004FF000084D4601EB0A094E454CD101EBE0
:100BA0000A0610E01BF0020FD1D023789A007A6178
:100BB000626804EB83017A62FA6A002A77D14D46B3
:100BC000904601EB0A061BF0050F0CBF0223012320
:100BD000FB62FB6906EB430A0BF00203BB6256455E
:100BE000BCD016F8021B16F8013C54F82390994B20
:100BF000994502D3984B994536D3BB69002B40D019
:100C0000786A0AF0E8FA00283BD0E9468AB06A46DA
:100C1000924B53617B6AC2E906314FF4007313842F
:100C20008F4B42F8103F00234FF412518D4800F0D3
:100C300017FD023DCD46D2E716F8013BF96254F8A4
:100C40002300FFF7ABFAD7F88430F96A01304BB1D3
:100C5000D7F8883098453EBFD7F8843023F818007D
:100C600008F10108054498E7BB6923B1786A0AF0E6
:100C7000B2FA0028C9D11BF0010F05D1FB6AED1AA9
:100C8000ADE7BB6A002BAAD04846FFF787FAD7F832
:100C9000843053B1D7F8883098453FBFD7F88420C7
:100CA000431C22F8183008F10108054497E7BAF10F
:100CB000000F73D01BF0040673D0D046002607F156
:100CC000480052463B61B9620CF0D1F8B96A3B6901
:100CD00001EB0A02BA62FA69F9695200FA60BA6A6B
:100CE00002EB41023A610BF00202BA603A69B96A5A
:100CF0008A4258D162781BF0020F18BF00217A6235
:100D000008BF4FEA5801B2181BF0010FD2B240F0F1
:100D10009F801BF0040F14BF40460020BB6162702F
:100D2000A070E17020463A6A7969FB6A9847051E0F
:100D3000FFF614AFBB69414623707B6A3A6A637061
:100D4000FB6984F802A0E37007F14800FB6A98474A
:100D5000B0F10008C0F2BA807B69A9EB0A01C91A98
:100D6000FB683A6AC91AD7E90A0398470028C0F213
:100D7000AF804FF0000BA84408EB000507F1380ADC
:100D8000B34571D300213A6A0846FB6A9847E5E605
:100D900056464FF0000807F1380092E75646D04615
:100DA00096E7B04694E7BA6A12F8021B12F8015CA3
:100DB000BA6254F82500274A904202D3264A90424C
:100DC0001ED3BA6932B1786A7B600AF004FA7B6894
:100DD00000288BD1BA6802BB08F1280207F1300C59
:100DE00008F10100944407F1580208F1020852FA90
:100DF00080F00CF8101C5FFA88F800F8105C75E7BA
:100E0000BA693AB1786A7B600AF0E5F97B68002834
:100E10007FF46CAF1BF0010F09D006F1280207F137
:100E20003000711C161806F8205CCEB25EE71BF08D
:100E3000040F3FF45BAF08F1280207F1300008F11E
:100E4000010102EB000808F8105C5FFA81F84DE739
:100E5000002063E7D4CF000098F00000F6DB00002C
:100E60000400000170D400001BF80A3054F82390ED
:100E700087F83730D7F884302BB3D7F888309B45C4
:100E800021D2D7F8843033F81B8001213A6AFB6AFB
:100E900007F13700984700281ADB0544B8F1000F26
:100EA00006D14846FFF77AF900F101081FFA88F8E1
:100EB000414648463A6AFB6A9847002808DB0544E1
:100EC0000BF1010B5CE74FF00008DEE7454645E615
:100ED000054643E6014B1860704700BF0000002044
:100EE00080B505460E461746984608F075FF03463E
:100EF0000CF066F80446DFF81890424649F80030D6
:100F000039463046A84754F8090002F001FA00BFFC
:100F1000080000002DE9F047058B0446280790469D
:100F200011D4022905F0070540F0CC8020460AF0D4
:100F30000DFC78B10138218B042811D8DFE800F0CE
:100F4000C2106D85950001290CBF45F0100545F0D4
:100F50002005258388F31188BFF36F8FBDE8F087E4
:100F600001F0070AAA4500F0A5800027B9463E46D1
:100F7000A368002B00F0BC8041F00801218388F3B6
:100F80001188BFF36F8FA168002900F0BA800D6847
:100F9000002900F0B680334652462046D1F804803E
:100FA000C047002D76D02B6829461D46F0E701F09A
:100FB00007035A1F012A1BD8002221F00701062B24
:100FC000276889B2C4E9002209D13B4603E0628B5D
:100FD000013262831B68002BF9D141F002012046E7
:100FE00021830AF0B3FB00287AD041F0200176E09B
:100FF000042B0AD121F0070189B2204621830AF08F
:10100000A5FB10B141F020012183218B01F0070ADB
:10101000AA454FD00027B946AAE7236921F0070166
:1010200041F00601062DD3F8009021832DD1B9F1AE
:10103000000F3FD041F00801218388F31188BFF3EE
:101040006F8F20463949C84729E021F007012369FD
:1010500041F0040189B2042DD3F804902183E6D035
:1010600000274FF0040A3E4682E721F0070123697A
:1010700041F0050189B2052DD3F808902183D6D01F
:1010800000274FF0050A3E4672E700274FF0060A98
:101090003E466DE72B4687E7B9F1000FD1D1EFF35C
:1010A0001188202383F31288BFF36F8F238B23F0E3
:1010B00008032383258BEA062ED525F0100323830E
:1010C00005F007056669218B002EBFF670AF00237F
:1010D0002768C4E9003321F0070141F001012183B1
:1010E000218B4FF0000901F0070AAA457FF440AFB9
:1010F000002F9CD041F00801218388F31188BFF3B1
:101100006F8F002FC8D03D6839463346524620467F
:101110000AF048FB2F46F4E7AB067FF51BAF25F03E
:101120002003238305F0070500E700BFD1B70000C7
:101130002DE9F047044607464FF00109DFF85080DB
:1011400014B93846BDE8F08794FAA4F5B5FA85F5E8
:1011500009FA05F32E0108EB05156FEA030A24EAE4
:1011600003042B7B002BEBD058F806301B694BB9DE
:101170004644736804222846196807EA0A070AF0F9
:101180002CFCDDE7284698470028D9D1F0E700BFBE
:1011900028D5000030B5002289B00F490F480BF068
:1011A00013FE002200230024CDE906230E230C4D5C
:1011B000CDE903344FF440722846CDE90144094B90
:1011C0000949009408F02AFB084928460BF078FCEE
:1011D000204609B030BD00BFF111000038080020E2
:1011E000B003002005150000C0290020AADC000083
:1011F000014808F0EFB800BFE40200202DE9F047F5
:10120000804621480F460AF0CCFB0646002833D022
:1012100000252846BDE8F087237B83B12368DB687F
:101220000BB120469847636883F8069023681B69D2
:10123000D3B963680422204619680AF0CEFB013650
:1012400010345445E8D3B8F1000FE2D0002DDFD0C0
:101250002846FFF76DFF0546002FF7D000214FF419
:10126000A4700BF0DEFCF1E7204698470028E0D0A0
:1012700009FA06F31D43E2E705464FF00109034C66
:10128000DFF80CA0DDE700BF5C12002028D50000CD
:1012900038D50000014B53F820007047A0D500005E
:1012A00008B5034608462BB1044A136000F06EFCF3
:1012B000002008BD6FF01500FBE700BF0400002010
:1012C00010B5044C237813B9034808F083F80123C0
:1012D000237010BDDE280020E402002010B5044673
:1012E00009480AF05EFB3CB1084BD3E8EF1F013917
:1012F000C3E8E21F002AF8D105480BF071FDBDE8F4
:101300001040044808F066B854120020581200201B
:1013100038080020E402002000200146034BD3E8F7
:10132000EF0FC3E8E21F002AF9D1704754120020E2
:1013300070B5FFF7F1FF0546074C084EB44200D3E5
:1013400070BD63685B792BB123685B6813B1294674
:10135000204698471034F1E728D5000038D5000022
:1013600010B5044C044920460AF06EF8034B1C608B
:1013700010BD00BFD40100208CD500004C1200200D
:1013800000230D4A10B513700C4A4FF4004113604E
:101390000B4A0C481360FFF783FFFFF7E1FF0A4B8E
:1013A0000A4918468B4200D310BD1A1A5C68121104
:1013B000013222711033F5E7DF280020541200209B
:1013C000581200209FB9000028D5000038D5000031
:1013D00001460022002301480AF057B8D40100203A
:1013E00001480AF0F0B800BFD4010020024B0146CA
:1013F00018680AF03CB900BF4C12002001480AF0FE
:1014000071B900BFD401002070B5274B18780028AF
:1014100049D0FFF7E5FF0546002841D1234B244C76
:101420001B68002B19DD0BF088FC4FF47A72A0FBCF
:10143000020302FB0131C30B43EA4143D4E900201C
:101440009B1A40F2E9324FEAD13161EB000193423D
:1014500071F1000101D3FFF76BFFD4E9003213F5FE
:101460007A7342F10002C4E90032BDE87040FFF730
:10147000C5BF63685B7923B12368294620461B6892
:1014800098471034B442F4D32846FFF7AFFF094B16
:10149000D3E8EF1F0139C3E8E21F002ABED0F7E707
:1014A000054C064EEEE770BDDE28002054120020E9
:1014B000300800205812002028D5000038D5000040
:1014C00070B50D4D297861B90120FFF797FE0B4CDF
:1014D0000B4EB44206D3FFF797FF0028FBD1012340
:1014E0002B7070BD63685B791BB1236820469B68D5
:1014F00098471034EDE700BFDF28002028D5000012
:1015000038D5000000212DE9F0470846FFF776FEA8
:10151000044658B340F267684FF000090BF050FDE5
:101520001B4B1C4A1B58136033B11B4B1B68092B08
:1015300002DD1A4807F04EFF0025194FDFF85CA0C6
:1015400044B12046FFF7F4FD044618B94FF0FF38C8
:101550004FF0FF39FFF758FF064628B9B5B94246A4
:101560004B46504607F06AFF3546E9E74FF0FF3833
:101570004FF0FF39D2E72B689B691BB10022284648
:10158000114698471035BD42F5D3E8E7054DFAE717
:10159000080000005012002058120020E402002031
:1015A00038D5000028D5000013B518480AF0F9F91D
:1015B000174B1B7873B1EFF31184202383F3128848
:1015C000BFF36F8FFFF720FF84F31188BFF36F8F96
:1015D00002B010BD0F4B1B68002BF9D050B9002290
:1015E00000230D48CDE900234FF40042002308F00A
:1015F000EFFEEDE70928EBD107480BF0F1FB0748B8
:1016000002B0BDE8104007F0E5BE00BF5812002050
:10161000DF2800205012002038080020E4020020BB
:1016200010B5064B04461B6898472146A060044845
:1016300009F0AAFFBDE81040FFF7B6BF0400002084
:10164000D4010020044A054B9B1AB1EBD30F34BFE1
:1016500052F831000020704770D4000028D50000F7
:101660002DE9F04F8FB0C1F34A2804AF0D469146E3
:10167000B8607B600C0DB8F1000F63D000264FF00E
:10168000040B4FF00A0A07F11403C7F80C80C7E9EE
:1016900007667E620193CDF808B0CDF800A007F18F
:1016A0001C0332464846F968FFF72EFAB0F5006F82
:1016B00003461CD36C468AB0D9F8041004AB264804
:1016C0001A46C3E9050140F2FF71D9614FF4007178
:1016D0001984224B42F8103F4FF4125133462048F0
:1016E000FFF7BEFFA5462C37BD46BDE8F08FC0F31F
:1016F0000A0804F11700184420F0070080083B6036
:10170000FFF766FE68F35325044690B13B6800F18D
:101710001001C7E9083607F11403F961CDE900A308
:10172000CDF808B048460F4AF96807F11C03FFF7E7
:10173000EBF968F353252A4620467B68B9680AF01E
:101740006BF9D0E704F1170020F007008008FFF7DD
:101750003FFE0446EDE700BFBFDC000004000001CF
:10176000B0D40000EDB900002DE9F04F87B0044679
:10177000DDE9105ADDE91279934698460391BFB12D
:101780003B46524610210020CDF80090CDF8149031
:10179000FEF7E8FFB0F5006F06460AD340F2FF738C
:1017A0000221174A174807B0BDE8F04F0AF08DB97B
:1017B0003E4605F11700304420F007008008FFF78F
:1017C00007FE04F007040BF0070BE40044EA8B1457
:1017D00044EA462444EA0554054640B13FB13B463D
:1017E00052463146CDF800901030FEF7BBFF43461D
:1017F00022462846039907B0BDE8F04F0AF00CB91D
:10180000FEDC0000B0D40000406820B1034BC01AD9
:1018100040F3CF0070474FF0FF30704770D40000A6
:101820000EB403B503AB53F8042B014604480193EF
:1018300002F09CF802B05DF804EB03B0704700BF03
:101840002DBB0000CA0605D48B064CBF02490349D4
:10185000FFF7E6BF704700BF37DD000036DD000050
:101860002DE9F04F89B09B46149B9DF84CA0069340
:10187000159B04460593169B0D469046179E0493B0
:10188000BAF1000F00F09D8006F4807307930AF010
:10189000A2F806F00209024600283ED020469149EF
:1018A000FFF7BEFF0746B9F1000F08D016F0440F4E
:1018B00035D12A4620468C49FFF7B2FF074406F08F
:1018C000010353B1894B204653F82A20884B89499C
:1018D000002A08BF1A46FFF7A3FF06F48073002B07
:1018E00049D006F00803002B63D1B8F1000F66D091
:1018F000424620468049FFF793FF0546069B3D443C
:10190000002B6DD1049B002B73D1F30700F1E48011
:1019100031462046FFF796FFD8E00746C3E7774BEE
:1019200018680028CAD0764B4FF47A791B684FF0BC
:101930003C0CB5FBF3F5B5FBF0F14FF4616300FB34
:10194000115509FB05F5B1FBF3F2B5FBF0FE03FB06
:10195000121100FB1E55B1FBFCF309FB05F5B5FBAD
:10196000F0F50CFB131120460091CDE901E5654926
:10197000FFF756FFA2E706F00803EBB1624B2046E3
:1019800053F82A206149FFF74BFF0546B8F1000FD5
:1019900005D0424620465849FFF742FF0544BBF1B7
:1019A000000FABD05A4620465949FFF739FF05448E
:1019B000A4E74FF0000BE1E706F00805E6E745462F
:1019C0009CE7BBF1010F069B06D1002B64D1049B61
:1019D000002B7BD000250CE0002BF8D04D485CE0BC
:1019E0004D48069B22464D4909F0C4FB049B002B41
:1019F00068D0DFF82C81DFF82C91049F3146102F3E
:101A0000204628BF10274FF0000BFFF71BFF5D4556
:101A100045DC059B494620461A78FFF701FF4FF049
:101A2000010B1BF0070F03D141462046FFF7F8FEDC
:101A30005F453BD9059B4946204613F80B20FFF72D
:101A4000EFFE0BF1010BBBF1100FEAD14FF0000BD1
:101A500020463549FFF7E4FE5A46059B20469A5C2E
:101A6000A2F120015F2928BF2E223049FFF7D8FEBE
:101A70000BF1010BBBF1100F1DD01BF0070F03D1B1
:101A800041462046FFF7CCFE5F455A46E5D8414621
:101A90002046FFF7C5FEEBE71F485546A1E7414644
:101AA0002046FFF7BDFE0BF1010BB0E720462049B1
:101AB000FFF7B6FEC5E7059B3B440593049BDB1B84
:101AC00004939AD1BAF1000F7FF41FAF204609B0FA
:101AD000BDE8F04F0AF01DB82046054A0549FFF75A
:101AE0009FFE15E73EDD000042DD0000B0D500009E
:101AF00039DD000067DD00006ADD000064120020AF
:101B0000601200204BDD0000C4D500006EDD000037
:101B100074DD00005BBB00002DBB00006D390000D0
:101B200081DD000079DD000083DD000085DD00003F
:101B30007FDD000042F20F7373B58B4228BF0B4666
:101B400005680446052168460D4A08F04DFE064624
:101B5000636828460B225B680A4909F0CCFF63687A
:101B60003246694628465B6809F0C5FF63681B2258
:101B700028465B68044909F0BEFF02B070BD00BF93
:101B80001DEE0000A4DD000088DD0000002101231F
:101B9000064A904206D8064A01B901231360054B54
:101BA00018607047012140085B00F2E740420F00D7
:101BB0006012002064120020F8B50D460446064F5E
:101BC0004618B44201D12846F8BD14F8011BBB6881
:101BD00001485B689847F4E7D4D00000014B0360EC
:101BE000002070470CD60000F0B40D4B0D4E5F6A1C
:101BF0000D4BB34203D36FF08500F0BC70475C68B7
:101C0000BC420AD31D6945B194F802C08488E4B28D
:101C1000A44502D12B46F0BC18472433E9E700BFA6
:101C20008C120020B00300208C0300202DE9F04727
:101C300005460E461746134CDFF84C80DFF84C90F3
:101C4000444503D36FF08500BDE8F0876268D9F89A
:101C500024309A4213D3A3698BB1A9889078C9B272
:101C6000884205D13A4631462846BDE8F047184734
:101C70005279012A03D13A463146284698472434FE
:101C8000DEE700BF8C030020B00300208C12002090
:101C90002DE9F04105460E4617460A4CDFF828802C
:101CA000444502D36FF0850009E063690BB9243421
:101CB000F6E73A463146284698470028F7D1BDE86E
:101CC000F08100BF8C030020B00300200022024BF3
:101CD0001A605A60704700BF4713002070B50B4B65
:101CE0000B4CA34201D3002070BD0022196A1E7F55
:101CF0000439D5B2AE4201D82433F2E7013211F8EB
:101D000032508542F5D10120EEE700BF8C03002060
:101D1000B003002073B584880D46E4B263068DF8E5
:101D2000074007D02046FFF7D9FFB0B1144B93F816
:101D3000BA0090B12346124E8DB10321114A1248C8
:101D400009F087FF9DF8070002F04AFEF3691BB116
:101D500008200DF107019847012002B070BD032152
:101D60000A4A094809F075FF9DF8070002F06AFE6B
:101D7000F369002BF0D009200DF10701EBE700BF5C
:101D80008C120020EADD000000D50000FDDD00001F
:101D900008B501210346034A034809F05AFF002011
:101DA00008BD00BF12DE000000D5000038B50546B2
:101DB0000AF07DF810F1780F044611D12B4602216C
:101DC0000C4A0D4809F045FF284609F044FF0B4A2C
:101DD0000024D2F8C43023EA0003C2F8C43007E07C
:101DE0000028F1D02B460121054A034809F031FFB4
:101DF000204638BD2DDE000000D500008C120020EA
:101E00004EDE000008B509480378C3F341130A33D6
:101E100050F823303BB100F1080200F1100198475F
:101E2000C043C00F08BD1846FCE700BF8C1200205D
:101E300004282DE9F74F04460F46DFF8989015D097
:101E400001282FD1DFF8908098F8B93053B300F013
:101E5000EFFD224D4D4522D24FF0000A2A6A2B7F1A
:101E60005FFA8AF6B34204D82435F3E7FFF72EFF72
:101E7000E8E702EBC606307901920AF018F88346CB
:101E8000307909F0E8FED8F8C430BBF1000F23EA3E
:101E90000003019AC8F8C4300AF1010ADFDA00230E
:101EA00088F8B9300D4D4D4508D30B4B1B6A6BB10B
:101EB0003946204603B0BDE8F04F1847EB681BB128
:101EC0003A462146284698472435ECE703B0BDE85A
:101ED000F08F00BFB00300208C1200208C03002084
:101EE00073B5044680782B4D8DF800002379627914
:101EF00043EA0223ADF80230E37803F003038DF8E0
:101F0000043009F0A8FED5F8C430064618420CD0BB
:101F1000A478204600F06EFD2046FFF747FF0AF048
:101F2000C9FD10B9962007F015FF684602F02AFD9A
:101F300010F1780F9DF800301BD10221164A174886
:101F400009F087FE9DF8000002F0B8FD10F1780F4F
:101F500019D102219DF80030114A104809F079FE8C
:101F60000120D5F8C43085F8B9003343C5F8C43032
:101F700007E00028E6D00B4A0848012109F069FE75
:101F8000002002B070BD0028EAD09DF80030064A5B
:101F9000F2E700BF8C12002070DE000000D50000C8
:101FA000B7DE000093DE0000D7DE00002DE9F04729
:101FB000A84E0446B3690F461546FBB9237803F0D3
:101FC0001F03012B00F09E80022B00F0068133BB23
:101FD00094F900002A680028617834DA062912D0C2
:101FE00008292BD0D9B901235170137096F8C3304A
:101FF0005B0043F001031370022328E19847002897
:10200000DCD100200DE06288100A011F01298446FE
:1020100005D9072803D8716AD2B20C781CB96FF0C1
:102020001500BDE8F0874E78664503D19A4200F06E
:10203000098101332144F0E70B7808E196F8BA30C2
:102040001370012303E101390829E8D801A353F8EB
:1020500021F000BFEF2000001F200000FD20000045
:102060001F200000792000001F2000001F2000001A
:102070001F200000872000006088C0B202F044FCEE
:102080000028BED0CBE76388756A63BBFFF71EFEEE
:10209000638886F8BA30F369002BB2D003206E490A
:1020A0009847AEE76B78042B10D0052B11D0022B8C
:1020B00004D16F796388BB4208BF01202B781D448F
:1020C0002B78002BEED10028A9D0DFE795F803800C
:1020D000F4E76388BB42F1D1B8F1000FEED1284696
:1020E000FFF7FEFEEAE7FF270020B846E8E763882F
:1020F000012B94D1002386F8C33082E76388012B3B
:102100008DD1F8E796F8BA30D5F800C0002B86D00C
:10211000756AA3882A465FFA83FE107800283FF488
:102120007EAF5178022904D192F80480F04500F284
:1021300095800244F1E78CF800208CF8012039608A
:102140005FE7154496E00B2A7FF469AF00274FF054
:10215000FF08BA46C14606E06B78042B0FD0052B6A
:1021600021D02B781D442B78002BF5D1F36913B1C6
:10217000514607209847002F7FF443AF4FE795F86B
:102180000280A38895F803909845EAD16388994521
:10219000E7D1B8F1070F1DD806EB0803AA460127BF
:1021A00083F8BB90DDE7A3884345DAD16388DBB2CF
:1021B0004B450AD0AF78384600F01CFC3846FFF794
:1021C000F5FDB0FA80F77F09CBE72846FFF788FED8
:1021D0000746C6E7AA460027C3E794F900206378BC
:1021E000002A19DA002B7FF41AAFA3882D68DCB21D
:1021F0005B060AD02046FFF771FD00283FF40FAFC1
:1022000096F8BA30002B3FF40AAF2946204602F078
:1022100039FC00236B70EFE6012B08D0032B7FF411
:10222000FEAE6388002B7FF4FAAE012103E06188E3
:1022300000297FF4F4AE2046FFF76CFD00287FF400
:10224000E0AEECE6022829607FF4F6AE4B883B60F6
:10225000D7E600BF8C1200204613002094F900003E
:1022600062780028BFF66FAF002A3FF464AF0A2AF5
:102270007FF4D5AE2A78002A3FF4D1AE69780429DC
:102280007FF45FAFA9788B427FF45BAF072B8EBFE3
:1022900000239B1993F8BB308CF80030D1E600BFC7
:1022A0002DE9F84F05460F46904699460426DFF87B
:1022B00034B0DFF834A04B4642463946284602F097
:1022C00027FC10F10B0F044609D12B465A46022178
:1022D000504609F0BEFC07F0BDFC013EEBD12046A4
:1022E000BDE8F88FF8DE000000D5000013B5164CED
:1022F000237DF3B9E26801AB8020A1680192FFF76A
:10230000CFFF019AA3681344A360E3689B1AE360BC
:102310006BB962B12369E2889A4208DD94F8C8205B
:1023200093FBF2F102FB11330BB90123237502B0C9
:1023300010BD002380201A461946237502B0BDE85F
:10234000104002F0E5BB00BF8C1200207FB50023D7
:102350000D4606460193002862D100293AD1082291
:102360000B460DEB020109F0BBFD002804DA8020CA
:1023700002F036FB04B070BD2E4C029AC4E903553E
:102380002260039ABDF80E30626004F13802A26048
:102390009DF908202575002A0FDB802B09D9012122
:1023A000254A264809F088FB802002F019FB2846C0
:1023B000DEE713B1C4E90333DCE7FFF723FD0028B0
:1023C000D5D0E28823699A42D4BFE260E360FFF788
:1023D0008DFFCFE7174C01ABD4E90212002A05DCD0
:1023E000024609F07DFD0028C4DAC0E709F078FD57
:1023F000002804DA802002F0F3FA3046B8E7019AA8
:10240000A3681344A360E3689B1AE360002BB1D177
:1024100004F13803A360FFF7F5FC0028D7D1A6E745
:102420008028A7D1034BDA68002AD0D11B7D002B6E
:10243000CDD19FE78C1200201FDF000000D50000E7
:10244000054B064A58629A62054A0020DA62054A3C
:102450001A63054A9A6170478C120020AD1F000074
:10246000E91B0000911C00002D1C00002DE9F34128
:1024700004464C4D4FF0FF334FF0FF324A4806F010
:10248000AFFE95F8B8306BB10221484A484809F0D0
:1024900013FB6FF07704444806F01AFF204602B0A1
:1024A000BDE8F0816B6A6BB900F0D4F8FFF7C8FFA4
:1024B0006B6A3BB901213F4A3D4809F0FDFA4FF0F4
:1024C000FF34E8E73C482C62E8616E6A02F062FC87
:1024D00002F0E8F9041EDEDB00F0CCFA041EDADBC1
:1024E0007378012B01D1F3793BB90121334A30488C
:1024F00009F0E2FA6FF01504CDE70026684685F88A
:10250000C830ADF802308DF804608DF8006002F03C
:1025100039FA041EBFDB802768468DF8007002F090
:1025200031FA041EB7DB3046254902F01FFC041EB9
:10253000B1DB3846224902F019FC041EABDB214C0A
:10254000DFF8848044451AD3002002F0B7FA041E55
:10255000A1DBD5F8C430802043F00103C5F8C430B6
:1025600002F0ACFA041E96DBD5F8C430002443F424
:102570008033C5F8C430012385F8B8308BE70026D6
:10258000276A227FF3B29A4201D82434DAE707EBB4
:10259000C30257F83310107902F0E8FB0136002827
:1025A000EFD08CE78C1200209802002038DF00006A
:1025B00000D500005BDF0000311E000080DF00005E
:1025C0004D2300008C030020B003002030B51F4BCA
:1025D0008BB005AA03F11005144618685968083332
:1025E00003C4AB422246F7D11B781022237000218E
:1025F00001A80AF063FC1222002115480AF05EFCD3
:10260000102101A809F071FD00281BDD0828B8BFC2
:10261000082001AB09381A1800200D4912F8013FB3
:102620000AAC04EB131403F00F0328336B4414F8C3
:10263000144C13F8143C013008280C704B7001F155
:102640000201EBD102480BB030BD00BFBADF000081
:10265000E22800202DE9F04F87B0894B00AF93F8B6
:1026600000A0BAF1000F04D086481C37BD46BDE873
:10267000F08F844C00264FF001193546B046FE60BD
:1026800023783BB9804B02349C42F3D101237C4A2E
:102690001370E9E76378052B1DD8DFE813F0AD0070
:1026A0000600EE00AD001F005000402387F810A088
:1026B0007B8287F814A007F1100002F037F940B1CF
:1026C000082307F110007B8202F030F908B1A7F867
:1026D00012A07B8AE37123781C44D1E7E378002BB6
:1026E000F9D1A37813B3FB680133DBB2FB60F2E7E7
:1026F0006B689C421CD02435644B9D42F8D36D46D8
:1027000088B06A46624BC2E90534032342F8103FA1
:1027100000234FF4C2515F48FEF7A2FFAD465D486B
:1027200001215D4A09F0C8F900209EE75B4DE3E70F
:10273000AB68002BD7D02046F9689847D3E7002D27
:1027400058D1574A0121534809F0B6F9E7E72B6AF7
:10275000A07803EBC2010B79984245D14FF0010BF1
:10276000E0785FFA8BF300F003003875207994F875
:1027700005C040EA0C20788294F90200002826DA8D
:102780004FF0010C0BF110000CFA00F010EA090FE9
:1027900025D143F08000387407F11000C7E90031FB
:1027A000BA6002F0C3F8D7E901123B68B8B93A7CC5
:1027B00012F0800FA2700A714FF001021DBF10339A
:1027C000DBB29A4002FA0BF249EA020983E70120E0
:1027D00000FA0BF010EA090F01D11846DBE70BF104
:1027E000010BBBF1100FBBD101322B7F9A42AED34C
:1027F0002C4AA7E70022F8E7032E24D1FFF7E6FED4
:102800008346A0B1FDF7CAFC034680B1102806D06C
:10281000B8600221244A1F4809F04EF9BB68102B0A
:10282000A8BF102359461A46A01C0AF020FB6FF0DF
:1028300002012378091BE21804EB5303D14209D5A6
:102840000136F6B247E7002EF1D1B8F1000F08D1FA
:10285000164A77E702F801AC13F8010902F8020DF5
:10286000ECE7A4EB080388F80230C3F3072388F8E9
:102870000330FB6888F80430E2E7A0462BE700BF8E
:10288000E1280020040300208C030020B003002076
:10289000CBDF0000F8D40000B1E000008C03002082
:1028A000EBDF00002CE0000049E0000094E00000B5
:1028B000094B00211A4610B51C78844204D15C688B
:1028C00014B102EB811010BD0131042903F1400362
:1028D000F2D10020F7E700BF581300202DE9FF4197
:1028E00050F8283C0446103310F82C6C0AD10369C8
:1028F00050F8202C98073DD5D2B9590715D500239B
:1029000044F8283C54F8283C10330BD054E90775A0
:1029100054F8148C0AF0CEF8002857D021463248DB
:102920000AF0ACF804B0BDE8F08143F00403236181
:1029300003AB304654F8241CFFF7B2FC034640B109
:1029400001212A4A2A48009609F0C9F86FF01503B8
:10295000D6E7039A54F8243C134444F8243C54F832
:10296000203C9B1A44F8203C54F81C3C134444F887
:102970001C3CC7E703AB304654F8241C02F052F964
:1029800003460028DCD1039D54F8243C2B4444F832
:10299000243C54F8203C5B1B44F8203C54F81C3C7D
:1029A0002B4444F81C3C002DA9D0304602F0F8F925
:1029B000B5FBF0F303FB1055002DA0D154F8203CDB
:1029C000002B9CD0304602F083F99BE744F8180CAA
:1029D000A4F1100006F0FEFC002DA3D042463946BB
:1029E0003046A8479EE700BF08110020DFE0000046
:1029F00018D5000010B5EFF31184202383F312885B
:102A0000BFF36F8FFFF754FF50B14368103307D106
:102A10006FF08B0300F12C01436004480AF02EF89C
:102A200084F31188BFF36F8F10BD00BF0811002021
:102A3000F8B5042520270D4CEFF3118687F3128893
:102A4000BFF36F8F6368103307D16FF08B030848B3
:102A5000636004F12C010AF011F886F31188BFF3CA
:102A60006F8F013D04F14004E6D1F8BD58130020FA
:102A70000811002070B50025094C0A4E3146204649
:102A800009F0E0FF0122A4F110001146013509F020
:102A90008EFF042D04F14004F0D1002070BD00BF72
:102AA00084130020DD28000008B5044808F0BAFBB4
:102AB000BDE80840024808F0B5BB00BF09E10000CE
:102AC0003EE10000014807F04DBD00BF0CD60000FC
:102AD00038B5044618B90F4B0F485B6898476168D2
:102AE000B1F5683F10D0B1F5680F0DD00B4DA9427C
:102AF0000AD011F46861206807D00146084809F03F
:102B00005EFE00232360656038BD14220AF0D6F90A
:102B1000F9E700BF600100206CE100002C5F5CA9B8
:102B20005819002008B560B34368B3F5683F0ED06C
:102B3000B3F5680F18D0144A934220D000684FF0C4
:102B4000FF324FF0FF3306F04BFB58B115E0012286
:102B50000368D3E8EF1F002903D1C3E8E02F002862
:102B6000F7D10AD1002008BD0368084A1B7803F595
:102B7000807352F82330002BF4D00548F3E7054862
:102B8000F1E76FF4E040EEE72C5F5CA90000035032
:102B9000E98FFFFFEA8FFFFF08B520B34368B3F565
:102BA000683F09D0B3F5680F13D0114A93421DD086
:102BB000006806F08DFB14E000220368D3E8EF1FE5
:102BC000012903D1C3E8E02F0028F7D109D0094833
:102BD00008BD00210368084A1B7803F5807342F89A
:102BE00023100020F4E76FF4E040F1E70348EFE73B
:102BF0002C5F5CA9E98FFFFF00000350EA8FFFFF05
:102C000010B5044618B91D4B1D485B6898476368AA
:102C1000B3F5683F2FD0B3F5680F2CD0194A934213
:102C200019D1236803BB4FF0FF324FF0FF33214629
:102C3000154806F0EDF908B923681BB90F4B134886
:102C40005B6898471422002120680AF037F94FF496
:102C50006863636008E0B3F5683F0DD83A2B03D092
:102C600040F6BA629342DED1206809F00EFE636836
:102C700043F03A03636010BD054AF3E760010020AA
:102C80006CE100002C5F5CA95819002092E1000063
:102C90003A00003A08B5064940231422054809F0D5
:102CA00080FDBDE808400449044807F0CDBC00BFE2
:102CB000581400205819002014D6000028D600000F
:102CC0002DE9F04706460C4600AF002936D0D1E981
:102CD0000012E9468AB06D46A3684FF0050AA8467F
:102CE0001F48C5E90723C5E9050148F810AF0023CF
:102CF00042464FF421511B48FEF7B2FCD4E90312BF
:102D0000CD466369AD461848C5E90723C5E9050105
:102D1000C5F810A0002342464FF421511148FEF798
:102D20009FFCCD46E3690121104A0E4808F0CDFE14
:102D3000A36901210E4A0B4808F0C7FE012E07D1F6
:102D4000EFF305830B4A31460648103B08F0BDFE01
:102D50002146304605F0B0FFBD46BDE8F08700BF14
:102D6000BFE10000E0D40000EEE100001DE2000041
:102D70002CE200005AE2000030BFFFF7FDBF00BFA9
:102D80002DE9F04105460B4EDFF82C80324606EB6C
:102D90000807CC1B204609490AF069F8A0194246E9
:102DA0000021083C0AF08AF82C6707F10800BDE80A
:102DB000F08100BF000000000400000050D50000BA
:102DC000054B5A699B689A421FBF044A536843F0F7
:102DD00080535360704700BFC426002000ED00E020
:102DE00070B52A4C06460D4629482A4908F07CFF52
:102DF000A36ADB0647D52648274908F075FF11204E
:102E0000A36A1C0704D52248244908F06DFF12204C
:102E10001E4CA36A990712D521491D4808F064FF8A
:102E2000636BA26A120609D501211E4A184808F0F0
:102E30004CFE1EB1A36A23F08003A3621320134C3F
:102E4000A36ADE0704D51248174908F04DFF142085
:102E5000A36A9C0604D50E48144908F045FF1520C6
:102E60000A4B9A6AD10658BF9A6A9A6A920642BF7A
:102E70005A6A22F400525A629A6A42F0FF029A6237
:102E800000232B7070BD1020BAE700BF00ED00E0FA
:102E9000E0D400006DE2000083E20000B6E2000032
:102EA000C9E20000E1E20000F7E2000016E30000E2
:102EB00010B5244C2449254808F016FFA36A99014F
:102EC0003ED52248224908F00FFF1E20A36ADA01EE
:102ED00004D51E481F4908F007FF1F20194CA36A9C
:102EE000DB0204D519481C4908F0FEFE0220A36A43
:102EF0001C0304D51548194908F0F6FE2120114C91
:102F0000A36A590304D51148154908F0EDFE2220A3
:102F1000A36A9A0304D50D48124908F0E5FE232060
:102F2000084CA36ADB0304D508480F4908F0DCFE0F
:102F30002420A36A6FEA03436FEA1343A36210BD20
:102F40001D20C3E700ED00E045E30000E0D40000F1
:102F50005DE3000070E300008AE30000B4E30000DA
:102F6000D2E30000F7E3000011E4000070B5294C43
:102F700006460D462848294908F0B6FEA36AD9043A
:102F80003CD52548264908F0AFFE1720A36A1A054C
:102F900004D52148234908F0A7FE18201D4CA36A38
:102FA0009B0512D51C48204908F09EFEA36BA26A1F
:102FB000100409D501211D4A174808F086FD1EB1ED
:102FC000A36A23F40043A3621920124CA36A590593
:102FD00004D51148164908F087FE1A20A36ADA05BD
:102FE0000ED50D48134908F07FFE1B20094A936A4D
:102FF00043F47F43936200232B7070BD1620C5E716
:10300000A36A9B04F2D504480B4908F06DFE1C200E
:10301000ECE700BF00ED00E0E0D400003CE400007D
:1030200052E40000B6E2000063E400007CE400002B
:1030300091E40000ACE4000016E300002DE9F0414B
:103040008AB0654B0446D3F80480002600AFC8F36D
:10305000080586F31188BFF36F8F02F07F43B3F149
:103060007F4F07D102F00C03082B12D15B495C485B
:1030700008F03AFE002634460023FB71EB1E092BB4
:1030800000F28980DFE803F00A7F827B87878787E9
:10309000878510074CBF0C460126EDE75149504883
:1030A00008F022FE00234C4DFB71EB6A9A0705D510
:1030B0004D494B4808F018FE002331E0EB6A002B25
:1030C00001DA4A49F5E7EB6A5B00F5D5484944481F
:1030D00008F00AFE6B69A26943F480736B61BFF369
:1030E0004F8FBFF36F8F6B6932F8022C23F480731C
:1030F0006B61BFF34F8FBFF36F8F4DF602739A4230
:1031000007D0AB6ADBB26BB30120F91DFFF768FE95
:1031100037E023680121374A314808F0D6FC23689C
:10312000FA79DAB907F1080504F1200C2A4620687B
:103130006168083403C264451546F7D17A6A002EE7
:1031400045D0C2F3080121B96FEA52226FEA422248
:103150007A62184607F10801FFF7B2FD2837BD462D
:10316000BDE8F081AB6A13F47F4F04D00120F91D54
:10317000FFF7FCFE05E0AB6AB3F5803F9CD3FFF799
:1031800097FE0346CCE70020F91DBFE70020F91D9C
:10319000EEE719498DE7194A18F4F87FE8468AB036
:1031A000174B18BF13466A461649103DC2E905136E
:1031B0004FF400731384144BD56142F8103F002381
:1031C0004FF411510648FEF74BFAC54674E722F456
:1031D000FF7222F00102BBE700ED00E0F2E4000024
:1031E000E0D400001DE5000034E5000055E50000D6
:1031F00063E5000082E500009EE50000D9E40000E0
:10320000C4E40000C2E5000004000001064B5A6956
:1032100042F010025A615A6942F480625A615A6956
:1032200022F008025A61704700ED00E0EFF30880D9
:10323000EFF3098101B57246FFF700FF01BD00BF42
:10324000002080F31488BFF36F8F002080F30A887A
:1032500080F30B880F4880F3088804F047FB0020B8
:103260000D490860BFF34F8F00F02CF8202080F349
:1032700011880A484FF40061401880F30988EFF381
:1032800014800221084380F31488BFF36F8F00F08D
:10329000EBF800000042002094ED00E0C034002074
:1032A000002318460649D1F89020C2F30722934222
:1032B00000DB7047C1F89830C1F8A0000133F6E791
:1032C00000ED00E010B572B6002484F31388FFF718
:1032D000E7FF23464FF0FF300C4A03F12001013392
:1032E000102B42F82100F8D100234FF0FF30074A9D
:1032F00003F160010133102B42F82100F8D162B6CE
:10330000BFF34F8FBFF36F8F10BD00BF00E100E030
:10331000084B9B6883420BD1EFF3058343B1064B07
:103320005A6842F080525A605A6A22F400425A6245
:1033300006F058BDC426002000ED00E014498A685C
:103340004FF030001044EFF3098C80E8F01F20208C
:1033500080F31288BFF36F8F0E4F4FF000664A69FB
:103360008A603E60106F0C4C2060506F00235367E2
:1033700080F3118802F1300090E8F01F8CF3098887
:1033800002F1000004B508F0B7FCBDE80440704746
:10339000C426002004ED00E0741900201EF0040F84
:1033A0000CBFEFF30880EFF30980816911F8021C6C
:1033B0000229FFD001B5724608F08BFC01BD00BFA9
:1033C00040B2002807DB01234109034A00F01F0037
:1033D000834042F82130704700E100E040B200280D
:1033E0000CDB01220649430900F01F008240203314
:1033F00041F82320BFF34F8FBFF36F8F704700BF9B
:1034000000E100E0054B420953F82220012300F0BF
:103410001F0003FA00F01040704700BF00E100E019
:1034200040B2002801F10101ACBF00F16040064B41
:103430004FEA4111C9B2ABBF00F5614000F00F0087
:1034400080F800131954704714ED00E0044B054A4E
:1034500023F07F039360BFF34F8FBFF36F8F7047ED
:103460000000000000ED00E008B5FFF7EFFF074A9D
:10347000D2F8883023F47003C2F8883005F00AFDD2
:1034800006F0E4FD00F046F805F044FD00ED00E034
:1034900042F8203C009B0B4942F81C3C019B21F068
:1034A000010142F8183C029B42F8081C42F8143C07
:1034B0004FF0807342F8043C0023203A02654367D2
:1034C000704700BFE10E000000B50B4B1546986039
:1034D000026F0A4B0E461A60036E83F30B882C466C
:1034E00086F309880020064B9847204600210022D9
:1034F0000023044C204700BFC4260020741900207C
:1035000001BD0000E10E00001022014B1A6170475E
:1035100000ED00E0002320210348C2180133452BB1
:1035200082F80013F9D1704700E100E008B5EFF32D
:103530000583064A103B02EBC30152F83300496889
:103540008847BDE80840FFF73BBC00BFB4D100008E
:103550001FB5094C094A23460121094800F012F918
:1035600000230393074B0121E41A01A8019302945D
:1035700000F012F904B010BD000007200000002088
:1035800038D60000B003002010B50C7A0B6804F0A8
:103590001F0223F01F031A43CB68640923F01F03A3
:1035A000054943EA440343F00103C1F89800C1F818
:1035B0009C20C1F8A03010BD00ED00E010B50A4B12
:1035C000D3F89030C3F30723013B984208D9012177
:1035D0000346064A064808F078FA6FF0150010BD59
:1035E000FFF7D2FFFBE700BF00ED00E0D9E50000E8
:1035F000D0D400002DE9F04F8946144606464FF01E
:103600000008514D85B0C84527DAD6F804A0BAF1B4
:10361000000F44D0BAF11F0F17D91AF01F0F14D1A1
:10362000D6F800B01BF01F0F0FD1584608F0A4FBCE
:1036300007460AEB0B00013808F09EFB874210D0CA
:103640006FF01507414A3B4601E04346404A0121DD
:10365000404808F03AFA6FF01504204605B0BDE87E
:10366000F08F17F1160FEDD0BC42EBDDC5F8987066
:10367000D5F89C10C5F89870D5F8A03021F01F013E
:1036800043F01F0BD6E900321A44994202F1FF3A87
:103690001DD1D34507D13146F8B208F076FB08F1C9
:1036A00001080C36AFE73146C5F89870D5F89C3064
:1036B00022F01F0203F01F031343C5F89C30E0B251
:1036C00008F063FB10F1160FC5D0441CE7E7C5F8FE
:1036D0009870D5F8A020013B23F01F0302F01F02D1
:1036E0001343D3453146E0B2C5F8A030E8D008F026
:1036F0004CFB10F1160FAED0C5F89870D5F89C2091
:103700009DF808300BF1FF3B62F304038DF808309D
:10371000D5F8A0309DF808205B0863F347128DF8B8
:103720000820D6E900321344009323F01F035B44C2
:10373000A3EB0A03013023F01F036946C0B20393D1
:10374000FFF73CFFBEE700BF00ED00E022E600000F
:10375000FFE50000D0D400000522044BC3F89420FC
:10376000BFF34F8FBFF36F8F704700BF00ED00E0D6
:10377000BFF35F8F0022024BC3F89420704700BF55
:1037800000ED00E010B5034C2278FFF733FF207006
:1037900010BD00BFF42800202DE9F74F294D8A46BF
:1037A00006464FF00008AB46274FD0451BDAD6F847
:1037B0000490B9F1000F3FD031680846019108F03C
:1037C000DBFA0199044609EB0100013808F0D4FA4C
:1037D00084424FF014021D4B08D002FB08F36FF037
:1037E00015024BF8032003B0BDE8F08F14F1160F5B
:1037F0002C60F8D01978A142F5DD02FB08B0C7F8BB
:103800009840C7F89840D7F89C4000F10801007B29
:1038100064F304000871D7F8A0000C79400860F345
:1038200047140C71D7F89C1021F01F016960D7F87C
:10383000A01021F01F01296108F1010814350C3690
:10384000B3E700BF7819002000ED00E0F428002065
:10385000F0B54149414CD1F890302568C3F30723B6
:103860009D4287B075D80020FFF782FF3C4BC1F81E
:10387000C030854216D13B4C01A82570FEF7AEF949
:1038800000250646384FAE4213D100202378324936
:10389000D1F89020C2F30722934254DBFFF75CFF7C
:1038A00000202FE0616801EB0011FFF76DFE013091
:1038B000DFE70199280101EB0513DA683A40B2F518
:1038C000001F21D0B2F5800F2BD0B2F5801F38D168
:1038D0005A689B680958013B22F01F0003440120ED
:1038E000844623F01F0340EA4C10CDE902218DF8F5
:1038F000100002A920780593FFF760FE00281DDA6A
:103900006FF0150007B0F0BD5A689B680958013B7D
:1039100022F01F0003444FF0020C012023F01F038C
:10392000E1E75A689B680958013B22F01F000344F5
:103930004FF0000C062023F01F03D4E72378013357
:10394000237001359FE7C1F89830C1F8A00001331A
:103950009EE74FF0FF30D5E700ED00E044D60000D1
:10396000AAFF4400F42800200000F0FFF0B587B063
:1039700007460E4614460021102268461D4609F0EF
:103980009DFA02238DF80230054B2A4621466846EF
:10399000CDE90476019306F053FF07B0F0BD00BFF8
:1039A000BDBD000008B5024B1B689847002008BD4C
:1039B0008C190020034B044A1860937843F00203EB
:1039C000937070478C1900203000002008B506491C
:1039D000064821F00701C1F1005202F5E02207F08C
:1039E00071FB002008BD00BFDF4A002090190020B5
:1039F000054B03EB8000D0F8003223F0E04343F0A6
:103A00004053C0F80032704700258450052370B53C
:103A1000144D154E2C780134B4FBF3F303EB830300
:103A2000E41A08F0B9FD114A137823B156F824308E
:103A3000C01A072814D94FF05023D3F8141141B1FC
:103A40000021C3F81411D3F814312C700CB90123E0
:103A500013702C7808F0A0FD46F82400012070BDFA
:103A60000020FCE7F62800209C190020F528002003
:103A7000012208B50B4B0C49C3F800250223002096
:103A8000C1F8D036FFF7B4FF1046FFF7B1FFC1F819
:103A90000427C1F80429C1F8002BBDE8084000F054
:103AA000A5B800BF001000500040005007B50DF150
:103AB000070004F03FF80F4B984218D14FF4806292
:103AC0000D4B0E49C3F8B8254FF40062C3F83C25EE
:103AD0009DF8070008F077FD9DF80700084908F0F9
:103AE0006DFD01209DF80730984004F01DF803B0EB
:103AF0005DF804FB0000AD0B00A002502CA00250AA
:103B000028A1025048B1054B054A1B68B3FBF2F3EC
:103B10005843044B43F00103184770473401002019
:103B200040420F0050D50000002170B5104C114DDF
:103B3000114E000714F8013B03F01F025B090FD080
:103B4000012B0FD1334603EB8203D3F8002201315E
:103B500022F0E04202430429C3F80022EAD170BDFA
:103B60002B46F0E70023803253F82230FFDE00BFFF
:103B70005CE6000000258450002884502DE9F041C7
:103B8000064601200D46FFF7CFFF4FF47F03D3F821
:103B90003021D3F83431072A20D1023B032B02D83D
:103BA000114AD35CD3B14FF050244FF001080027E5
:103BB0000520C4F81886C4F8147608F0FDFC4046C9
:103BC000C4F8148608F0F8FCC4F81476C4F8187623
:103BD00030462B46BDE8F041002118474FF05023F6
:103BE0000022C3F81426F3E758E600000149024812
:103BF00007F0FBBD6CD60000B0190020034602217F
:103C0000014A024807F061BF60E6000008D50000E5
:103C100070B504460D4601460A4808F043F820B93D
:103C20002046BDE87040FFF7E9BF022D08D150F8EB
:103C3000083C2BB11B691BB1BDE8704000681847F8
:103C400070BD00BFE419002080B500AF88B06A469F
:103C5000064BC2E90530032342F8103F00234FF41E
:103C6000C4510348FDF7FCFCBD4680BD86E600005C
:103C700008D5000070B506460D460146314807F0EC
:103C8000F9FF044620B93046BDE87040FFF7DCBFBD
:103C90000A2D55D8DFE805F0060D2729323D44549A
:103CA00054543100284A0321BDE87040274808F0E9
:103CB000A5B803212548264A08F0A0F800230121D1
:103CC00004F8033C04F8023C14F8043C20688B42DE
:103CD00004F8041C11D054F8083C73B19B6863B11C
:103CE000BDE8704018471B4ADDE703211A4A174810
:103CF00008F084F8012304F8033C70BD0321174A3F
:103D0000124808F07BF8002304F8033C04F8023C56
:103D1000F3E70321124A0D4808F070F80123F5E794
:103D20000321104A094808F069F814F8023C002BF6
:103D3000E3D003210C4A054808F060F80023E5E7CA
:103D40000A4AB0E7E4190020A7E6000008D5000001
:103D5000B4E60000CAE60000DBE60000EDE6000085
:103D600001E7000012E7000021E700002EE7000055
:103D70002DE9F041904690F900200446002A0D46B6
:103D8000037803DB6FF01500BDE8F08103F01F033B
:103D9000012BF7D14378062BF4D187884688FFB2F0
:103DA00039461548360A07F070FF30B902213B4604
:103DB000124A134807F089FEE4E7212E04D0222E90
:103DC00010D06FF08500DFE70368E1885B685B680F
:103DD00013F8092F914294BF29602A600020C8F887
:103DE0000030D1E7E38850F80C2C9A4294BF2A6047
:103DF0002B6050F8103CF1E7E41900203CE700008C
:103E000008D500002DE9F0410F4681880546C9B26A
:103E10003048904607F039FF044648B9AB882E4831
:103E200002212E4A07F051FE6FF01200BDE8F0812A
:103E300095F900300068002B6E781CDA022E08D04D
:103E4000032E09D0012E42D154F8083C0BB11C6856
:103E5000ECB96FF08500E9E76B882BB10121204AAE
:103E60001D4807F0CBFFF4E70123043CC8F80040ED
:103E70003B600020DAE70A2EEBD00B2E0ED0092E85
:103E800025D154F8083C002BE3D05C68E0E74346BA
:103E90003A462946A446BDE8F04160476B88012BAD
:103EA00005D9104A01210C4807F00FFED1E714F89C
:103EB000042C9A42DDD0D9B254F8083C04F8041C12
:103EC000002BD6D09B68002BD3D09847D1E7064A69
:103ED0003346E7E7E419002008D500003CE700007E
:103EE00063E700008FE7000076E7000010B5046983
:103EF000A3600023C4E900126361064B2061596886
:103F000004F1140211B9C3E9002210BD0A605A601D
:103F1000FBE700BFE419002070B544680069457BE9
:103F20003DB1807B28B9206ABDE870400079FEF77A
:103F3000B7B90221034A044807F060FF6FF00A0096
:103F400070BD00BFA8E7000008D50000F0B5114D16
:103F5000114E124F85B04FF0FF334FF0FF3228461D
:103F600001A905F0DBF8034690B101213A460C485F
:103F700007F0ABFDEFE7236813B1019A934203D139
:103F8000D4E9013101A898470C34B442F3D3E2E7F5
:103F9000044CFAE7AC02002050D50000C9E700004D
:103FA00090D4000038D50000F0B517461E4685B005
:103FB00001909DF82800DDE90C5423462C432A4645
:103FC0008DF808008DF80910ADF80A7003960AD034
:103FD00008F0F6FF0C49D1F880400C4909588C4292
:103FE00004BF002213460A4801A905F03FF8041E49
:103FF00007DA0221074A084807F05EFD204605B0AF
:10400000F0BD0024FAE700BF0811002008000000FE
:10401000AC020020DEE7000090D40000772804D82E
:10402000034B185C08B100B270474FF0FF30704787
:1040300016E8000008B50121034A044807F03CFDDA
:104040006FF0120008BD00BF8EE80000A8D4000089
:104050007FB503460846DA884968012A04694E6834
:1040600017D0B2F5A57F17D00AB99A6862601B799C
:104070006BB1D4E900320D7BAB4202D24D7B95424D
:1040800010D8022100921248124A07F028FD04B00D
:1040900070BD9A682260EAE79A68003A18BF012268
:1040A0002272E4E705FB03228B689342EFD936F8CE
:1040B0001220002AEBD0237A4FF0FF354FF0FF3467
:1040C0000121CDE902450091FFF76EFFDFE700BF58
:1040D000A8D40000A5E80000020600F07F0312D576
:1040E000082B05D1010700F00F0306D50E487047D5
:1040F00010F0780F12D100F00F034C2000EB4310AA
:104100000A4B18447047082B05D1020700F00F0333
:1041100006D50748704710F0780FF6D0002070479A
:10412000044800EB43107047441B0020F81900209E
:10413000641C0020641B00200149024808F09EBC5A
:10414000201A0020F00800200146014808F024BC95
:10415000F402002000220023014805F009B900BF45
:10416000F402002013B5002201213720FFF758F98F
:10417000114800F0CFFE114B98421AD1002410488C
:1041800004F098FC0F4804F027FD4FF0FF334FF484
:1041900080620D490D48009405F08EFA0C490B48D9
:1041A00008F08EFC0B480C4908F04CFC204602B08D
:1041B00010BD6FF00400FAE7594700000000AD0B96
:1041C0000CEB00008CD60000C0300020F00800206E
:1041D000DBE80000201A002051430000002310B546
:1041E0000B49D1E8EF2F012A03D1C1E8E03F0028B5
:1041F000F7D10CD151F8044C1439204607F083FB59
:10420000783004D12046BDE8104007F058BB10BDFF
:10421000181A002038B5002464F07F00C0B2FFF700
:104220005BFF013407F02AFE082CF5D100240E4D67
:10423000E0B2FFF751FF036903B90561013407F0EC
:104240001DFE082C05F14005F2D1084807F016FEC6
:10425000074BD3F87C2212B9064AC3F87C220648E1
:1042600007F00CFE002038BD88200020441B0020F1
:10427000F8190020881C0020641C002010B5054C93
:10428000FFF768FF20B14168204608F098FAF7E789
:1042900010BD00BF1002002007B500230022144803
:1042A00001A904F0B5FEE8B10121124A124807F055
:1042B000F8FDFFF7E3FF002200230D4801A904F0F9
:1042C000A7FE30B101210D4A0B4807F0EAFD00209E
:1042D0000AE00423019840600374FFF735FFFFF7FD
:1042E0002BFFF4E70198406003B05DF804FB00BFCA
:1042F00010020020E6E8000010D5000004E90000EC
:1043000003460121014A024807F0DFBB20E9000013
:1043100010D50000022810B511D80B4A145CFFF725
:10432000BBFF80B1002204720274FFF70DFF074B40
:1043300093F824303BB1BDE81040FFF7FDBEBDE867
:104340001040FFF7DDBF10BD09EB0000F819002099
:104350002DE9F0438046A04CDFF8809285B0FFF74E
:10436000F9FE074610B905B0BDE8F08394F82520A2
:104370003B7C3AB9002B00F09B807968974808F0A5
:104380001EFAECE7042B00F27181DFE813F09100D4
:1043900005000F0139015A0118F8043C33B9BB6814
:1043A0005B7A01218E4A8F4807F08FFB3B7BBD680B
:1043B000032B38D8DFE803F0023E646900226E69FF
:1043C000894B32607260D3F880143170D3F8841452
:1043D0007170D3F88814D3F88C0441EA00217180FD
:1043E000D3F89014D3F8940441EA0021B180D3F8B3
:1043F0009814D3F89C3441EA0323F3800823EB603C
:1044000030687168794B03C311462B68687A984706
:1044100096F90030002B09DBF3889AB232B1A4F888
:104420008C3201F0C3F848467968A8E70023A4F865
:104430008C32F8E76B7F002BF5D02B7F002BF2D06E
:1044400000264FF0FF324FF0FF3369486E772E772A
:1044500007F029FD6B6901A901936B68CDE902366C
:10446000687A00F0ADFD634A0346904204D0012112
:10447000614A5C4807F029FB5D4807F016FDD2E76A
:1044800001212B68687A9847CDE7AB7A6BB9EB7F4F
:104490005BB957484FF0FF324FF0FF3307F003FD91
:1044A00001F08AF8524807F000FD02212B68E9E785
:1044B0003B7A042BB7D8DFE803F055031F636F0086
:1044C00000F0E8FC05460028ADD100F095FC012382
:1044D0004A49D1E8EF2F002A03D1C1E8E03F002884
:1044E000F7D1A0D141F8085C41F8105CE0691439BB
:1044F000636107F08DF996E7002565F07F00C0B293
:10450000FFF7EAFD037A13B1407A01F0B7F90135FC
:10451000082DF2D194F854311BB194F8550101F0F3
:10452000ADF90025E8B2FFF7D7FD037A13B1407A61
:1045300001F0A4F90135082DF4D194F874321BB1BF
:1045400094F8750201F09AF9002000F087FC01232D
:1045500084F825302368002B3FF465AF002102204A
:10456000984760E7002584F8255001F0EFF8FFF741
:1045700035FE2368002B3FF456AF29460420EFE7B1
:10458000002A3FF450AF00F08FFC2368002B3FF46B
:104590004AAF00210520E3E72368002B3FF443AF37
:1045A000002A3FF440AF00210620D9E708F11005AA
:1045B0004FF0FF334FF0FF32284607F074FCFFF74F
:1045C00029FE284607F071FC58F8283C002B3FF4E0
:1045D0002AAF00210120C3E7F819002010020020B3
:1045E0003BE9000010D5000000600350FC190020DA
:1045F000301A00200000AD0B61E90000181A0020FD
:1046000094F8743263B1012584F8895284F8885291
:10461000FFF742FE60B92946174A184807F041FCE7
:1046200058F8283C002B3FF4FEAE00210A2097E703
:10463000134A057405738260FFF786FDFFF77CFD62
:10464000EEE701210F4A0D4807F02BFC04F0ACFA0D
:1046500001F07CF800F0C6FBFFF710FEFFF7DAFD73
:1046600004F09AFA084800F055FCDCE60121074AFC
:10467000024807F02AFAD6E687E9000010D50000C4
:10468000641C00209BE9000059470000B2E90000CB
:10469000F7B5877806463846FFF71EFD3B06054608
:1046A000F4781DD554B1032C06D001212346274AA6
:1046B0002748009707F013FA03B0F0BDFFF7ECFDB1
:1046C00003460028F8D00122AC770274032202735B
:1046D0009D60FFF739FD03B0BDE8F040FFF72CBD4A
:1046E00054B1012CE1D1FFF7D7FD03460028E3D0F8
:1046F0006C7704740473EBE7FFF7CEFD0028DBD082
:10470000B278144B12F0800F02F0080111D041B1C1
:10471000D3F8A836EB60012303740223856003738A
:10472000D7E7142102F00F0201FB0233D3F8083659
:10473000F0E711B1D3F8A837ECE7142102F00F022B
:1047400001FB0233D3F80837E4E700BFCAE90000F1
:1047500010D50000006003501422F0B506468BB05F
:1047600000210DEB020008F0A9FB3378013B052B7B
:1047700021D8DFE803F08B0314147B1603230024F5
:104780008DF81C30FFF788FD0346A0B100F1080248
:104790000474DDE9070182E80300184626E00423DB
:1047A000EDE7B7783846FFF797FC837A054623B1E3
:1047B000013B022B54D90BB0F0BD3B06F4781CD55D
:1047C0004CB1032CF7D001212346314A31480097E0
:1047D00007F085F9EFE7FFF75FFD03460028EAD011
:1047E0000122AC770274032202739D60FFF7ACFCD8
:1047F0000BB0BDE8F040FFF79FBC54B1012CE2D1F3
:10480000FFF74AFD03460028D5D06C770474047383
:10481000EBE7FFF741FD04460028CCD00223012737
:10482000037307748560B07805F10C0107F074FB21
:10483000034620B1184A3946164807F046F9174A88
:10484000E968B2F88C328B4206D95B1AA2F88C3236
:1048500000F0ACFE2046C9E70023A2F88C32F9E74D
:1048600030460BB0BDE8F040FFF712BF03A800F0E0
:104870007BFE9DF80D30052B04D19DF80C3013F014
:10488000600F98D0064B012407937BE7022479E759
:10489000CAE9000010D50000F6E90000F819002070
:1048A000641B002038B5154D95F8244024BB05F154
:1048B000380007F0EAFF022001F044F92246012106
:1048C000E8613620FEF7ACFD04F066F9FFF7A2FCC4
:1048D000044610B9012385F82430094B1B680BB13D
:1048E000FFF72AFC074BD3F80034DB0702D5002082
:1048F000FFF710FD204638BD0024FBE7F819002023
:10490000F402002000700350074B93F824203AB1C2
:1049100093F82530002B14BF00206FF01200704771
:104920006FF01200704700BFF819002008B5037837
:10493000027903F00F0142B991B10D4A01210D48EE
:1049400007F0AFFA4FF0FF3008BD082901D90A4A35
:10495000F4E7012A04D11B0707D4084A0221EEE735
:1049600013F00800F0D0064AF8E70020ECE700BF9B
:1049700016EA000010D5000035EA000054EA0000F5
:104980006AEA000038B5134B044693F82430EBB1C3
:1049900005782846FFF7A0FB88B14572237983721A
:1049A000638843602078618810F0080F0AD14B1E9D
:1049B0000B4207D00121084A084807F072FA6FF04D
:1049C000150038BD07F0A3FA0020FAE76FF01200D7
:1049D000F7E700BFF819002087EA000010D50000B3
:1049E00038B5154B054693F824200AB393F82530C3
:1049F000F3B1FFF771FB044610B96FF0150038BD35
:104A0000817A01290FD007D90239012907D900205D
:104A10006369E060A361F2E700F0D4FDF7E72846A0
:104A200000F076FDF3E7054A054807F03AFAE4E7B7
:104A30006FF01200E3E700BFF8190020AFEA0000B2
:104A400010D5000038B50E4B054693F8242082B1EE
:104A500093F825306BB1FFF73FFB68B115F0080400
:104A60000AD1284600F076FD284600F03FFF204698
:104A700038BD6FF01200FBE76FF01500F8E700BFDC
:104A8000F819002038B50C4B054693F824200C4645
:104A900062B193F825304BB1FFF71EFB48B144B12A
:104AA000284600F03DFD2070002038BD6FF0120058
:104AB000FBE76FF01500F8E7F819002070B5134E0A
:104AC000044696F82430C3B1FFF706FB0546B8B19B
:104AD000230705D4204600F03DFD204600F006FFE8
:104AE0002B7A83B901232B7296F825300BB900205D
:104AF00070BD204600F0C2FEF9E76FF01200F7E744
:104B00006FF01500F4E76FF07700F1E7F819002077
:104B10002DE9F043DFF8F4801E4698F8243007466C
:104B20008946154685B0002B6DD098F82530002BAE
:104B300069D003060BD5FFF7CFFA044638B1037AE4
:104B40005BB901213B46324A324806F0BEFF6FF0A6
:104B50001504204605B0BDE8F0834FF0FF334FF059
:104B6000FF3208F1380007F09EF9A37F33B108F156
:104B7000380007F09AF96FF00A04EAE7A37A05B360
:104B80007BB301234FF00008A377384601A9CDE994
:104B90000195CDF80C8000F013FA1F4A03469042AD
:104BA0002DD084F81E800EB1C6F8008001211B4A6A
:104BB000184806F08AFF6FF00404194807F075F9E9
:104BC000C7E7E27F02B1E577002BDAD100F000FD04
:104BD0008742D6D000F0F0FC114807F066F90024B7
:104BE000B7E7B8F80A309D42F0D26268B5FBF2F33D
:104BF00002FB1353002BE9D10123E377E6E706B16B
:104C000035600024D9E76FF01204A2E7F8190020FC
:104C1000D1EA000010D500000000AD0BF0EA000062
:104C2000301A00202DE9F0411D46254B174693F818
:104C3000242080460E46002A3FD093F82530002BD2
:104C40003BD010F0800F0ED101B967B94046FFF795
:104C500043FA044638B1037A43B901214346194A5D
:104C6000194806F032FF6FF0150013E04FF0FF33E4
:104C70004FF0FF32154807F016F9E368B8469F4237
:104C800028BF984646B93FB905B12B600F4807F0D9
:104C90000CF90020BDE8F08142463046A16908F0D9
:104CA000E6F8A3694344A361E368A3EB0803E36068
:104CB000002DEBD0C5F80080E8E76FF01200E9E7BF
:104CC000F8190020D1EA000010D50000301A0020A9
:104CD00070B5224D064695F82430002B3AD095F851
:104CE0002530002B36D003060BD4FFF7F5F9044628
:104CF00038B1037A43B901213346194A194806F0FD
:104D0000E4FE6FF0150070BD4FF0FF334FF0FF323F
:104D100005F1380007F0C7F8E368B3B90126636905
:104D20002677A361637F83B1FFF7B6FA30B905F147
:104D3000380007F0BAF86FF00B00E4E706748460FF
:104D40000673FFF701FAFFF7F7F9074807F0ADF828
:104D50000020D8E76FF01200D5E700BFF819002057
:104D6000D1EA000010D50000301A002010B5084B21
:104D70000C4693F824302BB1FFF7AEF928B104604C
:104D8000002010BD6FF01200FBE76FF01500F8E790
:104D9000F8190020014B1860704700BFF819002077
:104DA00008B5074B93F8243023B1FFF795F920B1EC
:104DB000406808BD6FF01200FBE76FF01500F8E7E0
:104DC000F8190020064B10F0800FA3F1D80208BF9D
:104DD0001346182200F00F0002FB0030704700BF9E
:104DE000A02300200023024A1360024A1370704778
:104DF00080240020FB2800204FF40062114BC3F8F0
:104E000000240122C3F80025D3F800241205FBD5A5
:104E10004FF40062C3F800248022C3F81C2501224D
:104E2000C3F8302540F2FF12074B1A600023074AEF
:104E30001360074A1370074A13700222064B1A7058
:104E4000704700BF006003507C24002078240020BD
:104E5000F7280020F9280020FB2800200022094B19
:104E600010B51A70084A094B094C002808BF1346B0
:104E70003620C4F80033FEF7A3FA0123C4F8043542
:104E800010BD00BFFA280020FDFFDF01FDFFFF017C
:104E900000600350034B1878012894BF00200120C4
:104EA000704700BFFB28002010B54FF0FF324FF0D5
:104EB000FF33154804F0C2FAEFF31181202383F386
:104EC0001288BFF36F8F114B1B7803F0FF0483B17F
:104ED0000F4BD3F8002412F400720AD10120C3F85A
:104EE0002C05D3F82C05D3F80004800502D5C3F8AF
:104EF0002C25002481F31188BFF36F8F024804F042
:104F000069FA204610BD00BFD4020020FA28002014
:104F100000600350F8B51C4B1C7894BB1B4A40F250
:104F2000FF171060012226461A7064F07F0514F006
:104F3000080FEDB214BF39464021284606F0E7FFBE
:104F40002846FFF73FFF0134092C8675067306617A
:104F5000EBD1002440F2FF17254614F0080FE6B20B
:104F600014BF39464021304606F0D1FF3046FFF7E6
:104F700029FF0134092C857505730561EDD10448BD
:104F8000F8BD0448FCE700BFFB2800208024002077
:104F90000000AD0B0500AD0B084B10F0800F14BFE7
:104FA000D3F81025D3F81425012300F00F018B400E
:104FB000134214BF01200020704700BF006003505F
:104FC00002462DE9F843EFF31187202383F312887B
:104FD000BFF36F8F030703D1194B1B7883422AD18C
:104FE000184B10461C684FF00109E44306F087FF98
:104FF000154EA4B2356809FA00F82C4314EA0804E7
:105000001BD11046FFF7DEFE034680F80C9007C95F
:1050100083E807004FF480021C619C750B4B45EA46
:1050200008050B483560C3F8042187F31188BFF3E6
:105030006F8FBDE8F8830748F7E70748F5E700BF3B
:10504000F92800207C2400207824002000E100E0E2
:105050000000AD0B0A00AD0B0B00AD0B10F0080FFC
:10506000074B06D0D3F8C00410F4803F18BF0020CF
:10507000704700F00F0000F5947053F8200070475F
:10508000006003502DE9F04FAB4BAC4FD3F85421E7
:1050900085B0DAB10022C3F85421D3F80413890291
:1050A00014D58DF80C20D3F8202503A8ADF80E20D8
:1050B000D3F8C034002B14BF4FF001224FF480729C
:1050C0003B6813433B609E4B1B6898479A4BD3F851
:1050D000604134B10022C3F86021D3F86C44C3F8B6
:1050E0006C44D3F828214AB10022C3F82821954BFB
:1050F000187806F004FF012383401C43DFF8488240
:10510000924E98F8005098F9009015F0080141D19E
:10511000B9F1000F05F00F032CDA8D4A52F8230085
:1051200010B342F823101422534303F1A04303F5B4
:105130005833D3F80836874A03F0010311784B40FF
:105140001370854804F046F92846FFF73BFE837D3F
:10515000032B37D1284606F0D2FE012303FA00F0D4
:10516000336823EA0003336001254FF00609DFF8B6
:10517000D0A15DE0794A52F823000028F4D042F82B
:1051800023101422534303F1A04303F55833D3F8FB
:105190000837D0E7B9F1000F674B09DBD3F850218E
:1051A000002AE1D00022C3F85021D3F8A837C2E783
:1051B000D3F82C21002AD7D00022C3F82C21D3F811
:1051C000A836B8E7037BDBB9284606F098FE012332
:1051D00003FA00F03368B9F1000F23EA00033360EB
:1051E00001DA882DC0D106238DF80C3000238DF80C
:1051F0000F30534B8DF80E501B6803A89847B3E748
:10520000002DB1D101224C4BDA64ADE794FAA4F041
:10521000B0FA80F03A6805FA00F31A430F283A60B2
:1052200024EA0304326840F39D80134200F0AA8010
:10523000002CEBD1404BD3F800215AB1C3F8004108
:10524000474B03A81C703F4B1C70012303933C4B3E
:105250001B689847384BD3F85821002A2ED00022DB
:10526000C3F85821D3F80044C3F80044E30508D537
:1052700001223B4B03A81A7002230393304B1B6897
:105280009847A50508D50022354B03A81A700323BB
:1052900003932B4B1B68984760050FD5304B1A784A
:1052A00062B100221A700122234B03A8C3F808251B
:1052B0009A6504230393224B1B6898471E4BD3F82F
:1052C0005C3103B3244B9B681BB998F80030590636
:1052D00019D00022184B03A8C3F85C21D3F88034FE
:1052E000184A23F07F031370336823F001133360EF
:1052F0003B6823F4803343F001033B6005230393B1
:105300000F4B1B68984732683B681A4200F0938045
:1053100000220023104804F091F8002840F08B8010
:10532000054BD3F82C35002B00F0A8800A4805B0B7
:10533000BDE8F04F04F04EB8006003507C2400201C
:1053400080240020F9280020F8280020782400205C
:1053500008610350F7280020D40200203061035078
:10536000FA28002013407FF463AF60F07F018DF8CE
:105370000C908DF80E108DF80F30DAF8003003A87D
:10538000984755E7A0F110018DF80C908DF80E109C
:105390008DF80F50F1E749F080052846FFF712FD20
:1053A0004368B0F814B001689B4528BF9B4601F0E4
:1053B0006043B3F1005F044604D05A46514807F0F9
:1053C00056FD5049226863685A442260A268A3EBE4
:1053D0000B03D20768B2636005D5BBF1000F04D19F
:1053E0000023237301E0002BFAD0012202FA09F90D
:1053F0002AEA09033B60236915F0080F5B44236127
:1054000088F80050404B6FD100284FF0140005F091
:105410000F0500FB0530B5BF03EB85030A35C0F867
:105420000016C0F80017B5BFC0F804B6C0F804B73E
:105430005A6043F8252005B0BDE8F08F61464FF073
:10544000000B70454AD1003A18BF0122BCF1000F91
:1054500046D0584544D9012202FA09F223EA020350
:105460003360062302218DF80C30284BA1751B6890
:105470008DF80E508DF80F1003A898473368D7F8B1
:1054800000A013EA0A093FF451AF19F0012214BF3A
:1054900092FAA2F999FAA9F9B9FA89F9B9F10F0FB3
:1054A00001937FF678AFA9F11005EDB22846FFF71A
:1054B00089FC04462846FFF7D1FD6268B4F814E081
:1054C0009042D4F800C0019BB8D800EB0C0B121A24
:1054D000C4F800B0614683466260B2E70022B5E7D7
:1054E00068B2002A81D17BE70028B5BFC3F8A016B7
:1054F000C3F8A017C3F8A4B6C3F8A4B7B4BF5A62E0
:105500009A6498E7882200200060035080240020DD
:10551000024B40F48070C3F81805704700600350D8
:10552000030713D400F00F0310F0800F084A0BBFDD
:1055300003F5887303F5847302EB830252F82300AA
:1055400008BF5068003818BF01207047002070471E
:1055500000600350034BC3F80C0540F48070C3F89F
:105560000C057047006003500023036043600E4B3E
:10557000D3F880240270D3F884244270D3F88824AE
:10558000D3F88C1442EA01224280D3F89024D3F855
:10559000941442EA01228280D3F89824D3F89C34F0
:1055A00042EA0323C3807047006003500122014B8D
:1055B000DA647047006003500122014B1A6570479E
:1055C000006003500122014B5A6570470060035090
:1055D000014B1878704700BFF9280020024610B52B
:1055E000EFF31184202383F31288BFF36F8F06F04B
:1055F00086FC01230A4903FA00F00B6823EA000342
:105600000B6012F0080101BF02F00F02054B02F51A
:10561000947243F8221084F31188BFF36F8F10BD8A
:105620007C24002000600350F7B50146EFF311859C
:10563000202383F31288BFF36F8FFFF7C3FB064667
:10564000084606F05CFC012211F0800F02FA00F21D
:105650002D4818D1036832EA03040AD00846FFF740
:10566000BDFF0323B37585F31188BFF36F8F03B0BC
:10567000F0BD264923EA020303600B68347323EA72
:1056800002030B60EDE70B0715D48029204B2FD0C8
:1056900001F00F0404F2DA346400C3F80048D3F8D0
:1056A0000448D3F80478E4B244F002043C43C3F85D
:1056B0000448D3F80438154F04683B6864EA030CC7
:1056C0001CEA020FCFD013433B6000233373032344
:1056D00024EA02040622B3758DF807300D4B0460EE
:1056E0001B688DF804208DF8061001A89847BAE7CA
:1056F00040F2B474C3F80048D3F80448D3F80478EF
:10570000E4B244F00404D1E7782400207C24002093
:10571000006003508024002038B50446094D4FF046
:10572000FF324FF0FF33284603F088FE2046FFF794
:105730007BFF284603F04EFE4FF48002024BC3F875
:10574000042138BDD402002000E100E0F8B54FF09C
:10575000FF324FF0FF332A4803F070FE4FF480020F
:10576000284B3620C3F88421FDF74CFE98B1012761
:10577000254E264B34681B68240C24041C4354BB60
:1057800040F2FF13224D33603620C5F80445FDF783
:1057900025FEC5F800431F4A13788BB100211C4B2E
:1057A000C3F808110121C3F80026C3F80416596094
:1057B000D3F808110029FBD00021C3F8081111709B
:1057C0000022134BC3F800250D4803F003FE01220D
:1057D000114B1A70F8BD94FAA4F5B5FA85F5284670
:1057E0000F2DC6BFA5F11000C0B240F08000030726
:1057F00001D4FFF719FF07FA05F524EA0504BEE70F
:10580000D402002000E100E07C2400207824002065
:1058100000600350F7280020FB28002010B5044644
:105820004FF0FF324FF0FF33114803F007FE2046E0
:10583000FFF7FAFE012304F00F029340DB430D4A09
:1058400014F0800F15BFD2F81015D2F814150B40C4
:105850000B4014BFC2F81035C2F81435044803F0E9
:10586000B9FD4FF48002044BC3F8042110BD00BF02
:10587000D40200200060035000E100E070B504464F
:10588000FFF78AFB68B9012504F00F0214F0800FBE
:10589000144B05FA02F205D0D3F810150A43C3F8E9
:1058A000102570BDD3F814150A43C3F81425631EE0
:1058B000062BF6D8EFF31186202383F31288BFF36B
:1058C0006F8F2046FFF78AFE204606F018FB064A37
:1058D0008540136823EA0503136086F31188BFF33C
:1058E0006F8FDEE70060035078240020030610B5B8
:1058F000044605D4FFF714FE10B12046FFF76EFEF4
:10590000014BC3F8184510BD00600350084B70B53B
:10591000C31A0D4607499B100446594340220648C6
:1059200006F019FB2B4601462046BDE8704018479B
:1059300098240020B76DDBB674D00000402373B507
:105940000B4C0093041B0B460D460A49A4106143FF
:105950000646094A094806F029FB011E05DA3046C9
:105960002B4602B0BDE87040184702B070BD00BFC2
:1059700098240020B76DDBB615C0000074D000007D
:1059800010B5EFF31184202383F31288BFF36F8FD8
:10599000074A136823F00201DB07116002D40120DB
:1059A00006F01DFE84F31188BFF36F8F10BD00BF9A
:1059B000382500202DE9F843002201210646052064
:1059C000FDF72EFD114802F035F9114B984219D11F
:1059D00002F040F900244FF01C090C27DFF8348056
:1059E0003569414609FB045005F0FFFE002807DB3E
:1059F000012307FB04551C44042CAB67F0D10020A5
:105A0000BDE8F8836FF00400FAE700BF115B000007
:105A10000000AD0B94D600001FB500220123CDE994
:105A200002236B46084ACDF800D0CDF804D006F02A
:105A3000EAFA002805DB4FF480420023684603F0B1
:105A4000FDFC05B05DF804FB4BC000000C22104BC0
:105A5000014602FB0033002030B4D3E91C52186722
:105A6000EFF31180202484F31288BFF36F8F9C6FB3
:105A700004F0C00444F002049C6780F31188BFF373
:105A80006F8F1DB12B4630BC0248184730BC7047A1
:105A90009824002074D0000010B4EFF3118220236A
:105AA00083F31288BFF36F8F1748016841F0020437
:105AB0000460C80707D482F31188BFF36F8F0120F9
:105AC00010BC02F0E3B84FF05021D1F80C04D1F82B
:105AD0000C14C907EFD5EFF3118083F31288BFF3DD
