:10000000A8380020C1260000A9C80000AD260000C5
:10001000AD260000AD260000AD260000AD26000094
:100020000000000000000000000000001D2800008B
:10003000AD26000000000000BD270000AD26000036
:10004000CD290000CD290000CD290000CD290000D8
:10005000CD290000CD290000CD290000CD290000C8
:10006000CD290000CD290000CD290000CD290000B8
:10007000CD290000CD290000CD290000CD290000A8
:10008000CD290000CD290000CD290000CD29000098
:10009000CD290000CD290000CD290000CD29000088
:1000A000CD290000CD290000CD290000CD29000078
:1000B000CD290000CD290000CD290000CD29000068
:1000C000CD290000CD290000CD290000CD29000058
:1000D000CD290000CD290000CD290000CD29000048
:1000E000CD290000CD290000CD290000CD29000038
:1000F000CD290000CD290000CD290000CD29000028
:10010000CD290000CD290000CD290000CD29000017
:10011000CD290000CD290000CD290000CD29000007
:10012000CD290000CD290000CD290000CD290000F7
:10013000CD290000CD290000CD290000CD290000E7
:10014000CD290000CD290000CD290000CD290000D7
:04015000CD290000B5
:1001540053B94AB9002908BF00281CBF4FF0FF312A
:100164004FF0FF3000F00CB8ADF1080C6DE904CE8F
:1001740000F01AF8DDF804E0DDE9022304B070476A
:10018400704700BF10F8012B11F8013B012A28BF6A
:100194009A42F7D0D01A7047034613F8012B002A6D
:1001A400FBD1181A013870472DE9F04786468C4672
:1001B4000846089E154674461946002B40F0C18037
:1001C4008542B2FA82F245D94AB1C2F1200300FA5B
:1001D40002FC954094402EFA03F343EA0C0C4FEAD8
:1001E400154EA8B2230CBCFBFEF80EFB18CC08FB82
:1001F40000F943EA0C43994528D9EB1808F1FF3775
:1002040004D2994502D9A8F102072B44A3EB0903B0
:10021400A4B2B3FBFEFC0EFB1C330CFB00F044EA5F
:100224000344A04214D92C190CF1FF3304D2A04288
:1002340002D9ACF102032C44241A43EA07401EB14C
:10024400D440002334607360BDE8F0874746DDE79F
:100254006346F1E792BB431B01214FEA154EAFB24F
:10026400200CB3FBFEFC0EFB1C330CFB07F840EA2E
:100274000343984561D9EB180CF1FF3004D298453B
:1002840002D9ACF102002B44A3EB0803A4B2B3FBE4
:10029400FEFC0EFB1C330CFB07F744EA0344A742A5
:1002A4004DD92C190CF1FF3304D2A74202D9ACF179
:1002B40002032C44E41B43EA0040C0E7C2F12003DC
:1002C4009540944020FA03F12EFA03F34FEA154EB9
:1002D4009040AFB20343B1FBFEFC0EFB1C10190CA3
:1002E4000CFB07F841EA0041884522D969180CF152
:1002F400FF3004D2884502D9ACF102002944A1EBB5
:1003040008019BB2B1FBFEFC0EFB1C110CFB07F7B2
:1003140043EA01439F420ED9EB180CF1FF3104D29A
:100324009F4202D9ACF102012B44DB1B41EA00419C
:1003340093E76046E3E76146F7E76046A4E7634670
:10034400B8E7834206D916B9002108467CE7C6E916
:1003540000E0F9E7B3FA83F78FB9834201D372451A
:1003640008D8BEEB020460EB030301209C461EB9CF
:10037400002169E73846FAE7C6E9004CF8E7C7F117
:10038400200CBB400EFA07F522FA0CF42EFA0CF1FD
:10039400BA401C4320FA0CF3B8404FEA1449014315
:1003A4001FFA84FEB3FBF9F809FB18300B0C08FBA9
:1003B4000EFA43EA00439A4540D9E31808F1FF30A6
:1003C40004D29A4502D9A8F102002344A3EB0A03FC
:1003D40089B2B3FBF9F809FB183308FB0EFE41EAB6
:1003E40003418E452CD9611808F1FF3304D28E45A0
:1003F40002D9A8F10203214443EA0040A1EB0E0113
:10040400A0FB02984145CE46434602D306D14D4552
:1004140004D20138B9EB020E68EB0403002EA7D016
:10042400B5EB0E0261EB030101FA0CFC22FA07F3AF
:10043400F9404CEA0303C6E9003199E74046C5E7B1
:100444004346D9E72DE9F0414379012B4FD1C588C3
:100454008468284603F070F8074628460CF0B3FA7F
:10046400002F44DB234D00212B68CCB9224EFAB275
:1004740030469C420FD016F8011B914204F1010151
:1004840031D15E1E321B0144B44288BF0022204495
:100494000CF059FF2E600022184B1A705A700BE0B2
:1004A400052B98BF5C1C154A9CBF2C60124C117024
:1004B40098BFE7545170C0B900232868104A0E4C05
:1004C400984294BF0021E15C0133062B02F8011F1E
:1004D400F6D10C4808F088FCBDE8F041002308225E
:1004E400064902F0A5BF0C46C3E71070E4E7BDE877
:1004F400F08100BF080C00207C2200208222002012
:100504008322002030DE000010B5134808F06CFC94
:10051400044618B911480CF0DDF810BD1049002349
:100524003F2202F06FFF20460CF043FA014618B157
:100534000C480CF0CFF8F0E701F0CCF9014608B113
:100544000948F6E709480CF0C5F84FF0FF314FF0C1
:10055400FF300AF00FFDF8E730DE000036DE000061
:10056400C8DE000055DE000083DE0000A9DE0000C6
:1005740070B586B045680646122200210DF10600CA
:100584000CF0FBFEEA691A4BB3FBF2F31022029360
:10059400AB688DF8042003936B68022204934FF434
:1005A4007A738DF8052005932868836801211B68F8
:1005B40001AA9847041E06DB0023297BDAB2914284
:1005C40009D8002404E0224645210A480CF027F902
:1005D400204606B070BD6A69D25C0133042AEDD9A5
:1005E4004521326804480CF01AF96FF01504EFE75E
:1005F40040420F000CDF00002BDF00002DE9F34721
:1006040045680C46164600234FF4A022A86801A9A9
:1006140095F8247095F8258095F8269008F0CEFD7D
:10062400021EC7F1000709DA45213F480CF0F7F82C
:100634006FF00B04204602B0BDE8F0872146019814
:1006440006EB860640F8047B26448E424BD10023F9
:10065400298B9AB2914248D828686A6883680199BC
:10066400DB689847041E44DA0199A86808F018FE6C
:10067400224645212D480CF0D2F8DBE76B699B5CE0
:10068400042B29D8DFE803F02403202226000A786B
:100694004FF0080C4FF0800E002312EA0E0F0CBF2F
:1006A400CA46C246BCF1010C4AEA03134FEA5E0E85
:1006B400F3D187EA334340F8043B01342B7BE2B2A5
:1006C4009342DBD80531C0E74A78E1E78A78DFE76F
:1006D400CA78DDE70A79DBE70199A86808F0E0FD4C
:1006E4006FF01504A6E70024E8E740F8237001330F
:1006F400AEE728688368002201211B699847041E1D
:1007040098DB28688368022201211B699847041E2C
:1007140090DBD5E907206B689B0802FB03000AF015
:1007240065FC002486E700BF4BDF00006ADF0000A1
:1007340070B589B30668012230460BF02DFE0146E0
:10074400044630460BF0F0FDC30708D41349AF222A
:1007540013480BF0D5FFAF2110480BF0C8FF21461A
:1007640030460BF0F7FD25182946002230460BF0E1
:10077400DBFD2D1AAC4206D00849B72208480BF01D
:10078400BFFFB721E8E7214630460BF0E9FD2146DB
:10079400BDE870400BF025BF70BD00BF9EDF0000B8
:1007A400C1DF0000B2F5802F2DE9F0410CD2042AFC
:1007B40020D83D494FF407723C480BF0A1FF4FF499
:1007C400077139480BF093FF0823D21ACC1D11444A
:1007D40024F0070421F00701091B17294FEAD10669
:1007E4000AD8314940F2252230480BF089FF40F203
:1007F4002521E6E70423E8E7002704603146304674
:10080400A660E7600BF0DBFD0121421D8046304607
:100814000BF0CCFD9200D51DED082844B0423AD827
:10082400B8F1FF3F3946A2F1100204F11000B8BF3D
:100834003A460CF0A2FD2A46394620460BF0A8FDA4
:100844003B463A46394620460BF079FDA6EB0508AF
:100854002046394601220BF083FD424629460BF01F
:1008640097FD2B463A46294620460BF068FD314653
:1008740020460BF08DFD43463A46314620460BF0A8
:100884005EFD3146204601220BF06AFD2946BDE893
:10089400F0410BF064BE044940F23A2203480BF0E5
:1008A4002FFF40F23A218CE79EDF0000C1DF0000F9
:1008B400014B1B68184700BF00000020014B186063
:1008C400704700BF0000002030B585B004460D46D7
:1008D4001022002168460CF050FD02238DF80230EE
:1008E400044B2A462146684601930BF0BFFA05B033
:1008F40030BD00BFB508000080B505460E4617465A
:1009040098460AF0D7FB03460CF0B2FD0446DFF824
:100914001890424649F8003039463046A84754F802
:10092400090001F033FF00BF08000000044608B5C9
:10093400EFF31183202383F31288BFF36F8F06F044
:10094400D5FD204602F0FAFB02480BF0C3FE0BF083
:10095400BFFFFCE7EADF00002DE9F84F0446A38B54
:1009640008461907164612D4022803F0070162D17B
:1009740020460BF0EDFE88B10138042800F22581F1
:10098400DFE810F0590023017E00C800F5000128BB
:100994000CBF43F0100143F02001A18304F11400C3
:1009A4000AF0B6FD002800F0AB8086F31188BFF38F
:1009B4006F8FBDE8F88F03F00702501F01281ED87F
:1009C4000020062A2768C4E9000014D13A4603E04F
:1009D400E08B0130E0831268002AF9D123F0070389
:1009E40043F002022046A2830BF0B2FE90B342F021
:1009F4002002A2832EE023F007039AB2F2E7042A2E
:100A040033D123F007039AB22046A2830BF0A0FE51
:100A140010B142F02002A283A38B03F00709894599
:100A240040F0DC80A18BCA0640F1218121F0100343
:100A3400A38301F00701D4F81880A38BB8F1000F49
:100A4400B9DA0022276823F00703C4E9002243F03F
:100A54000103A383A38B03F00709894540F0BF80FA
:100A6400002FDFD00025AA4640E0854940F21B1242
:100A740084480BF045FE40F21B1181480BF037FE11
:100A840041B17F494FF4AB727E480BF039FE4FF40D
:100A9400AB71F2E7236843B9794940F257127948B8
:100AA4000BF02EFE40F25711E7E723691D6845B9A4
:100AB40073494FF4AD7273480BF022FE4FF4AD71DD
:100AC400DBE70F4688464FF00609A38B23F00703A4
:100AD40043F006039BB2A383A268002A40F08180FE
:100AE400002F40F08180002D9CD0BA4643F00803CB
:100AF40004F1140B5846A3830AF00AFD002875D1AB
:100B0400614940F231125F480BF0FAFD40F23111B5
:100B14005D48B3E7022908D0594940F25D125948AB
:100B24000BF0EEFD40F25D11A7E7E78B47B15449A6
:100B34004FF4AF7253480BF0E3FD4FF4AF719CE7F1
:100B440023695D6845B94E4940F261124D480BF086
:100B5400D7FD40F2611190E7A38BB84623F0070359
:100B640043F004039BB24FF00409A383B4E70129C3
:100B740008D043494FF4B27242480BF0C1FD4FF420
:100B8400B2717AE7236843B93D4940F265123D48A2
:100B94000BF0B6FD40F265116FE723699D6845B916
:100BA40037494FF4B47237480BF0AAFD4FF4B471CF
:100BB40063E70027A38BB84623F0070343F005033C
:100BC4009BB24FF00509A38386E72D4940F26B12CF
:100BD4002C480BF095FD40F26B114EE700270025E1
:100BE4007AE74FF0010A81E792467FE786F311889E
:100BF400BFF36F8FBAF1000F16D147BB15B1204672
:100C04002249A847EFF31186202383F31288BFF308
:100C14006F8F58460AF06EFC08BB1B49882219489E
:100C24000BF06EFD882173E7A1680029E5D00E68FA
:100C34000029E2D043464A462046D1F804A0D047D2
:100C44001EB1336831461E46F2E73346FAE73946A9
:100C540043464A4620463F680BF0A6FDCDE758467A
:100C64000AF06CFCA38B23F00803A383DAE68B065B
:100C74007FF594AE21F02003A38301F0070177E60A
:100C840013E00000C1DF000038E00000950C000014
:100C9400F8B504460D4600F11406EFF3118720233E
:100CA40083F31288BFF36F8F30460AF023FC40B9F8
:100CB40009490A4888220BF023FD882106480BF0D5
:100CC40016FD30460AF03AFCA5613A462046BDE8D6
:100CD400F8400121FFF740BE38E00000C1DF00000A
:100CE4002DE9F04704460F460BF04EFD051E5DDB73
:100CF40004F11409EFF3118A202383F31288BFF35C
:100D04006F8F48460AF0F6FB804638B9334988228B
:100D140033480BF0F5FC882130483CE048460AF0A3
:100D24000DFC4FF6FF72E38BA68B934206F0070689
:100D34003FD0022E10D135460133E38348460AF0F2
:100D4400E7FB00283BD1254940F2311224480BF03F
:100D5400D7FC40F23111DFE7062E13D8DFE806F0A6
:100D6400092C1212090409006FF085054FF00008E0
:100D7400E4E700233B6063687BB9C4E900777EB194
:100D84003546F3E7174916484FF4E4720BF0B8FC04
:100D94004FF4E47113480BF0AAFC1F606760EEE7A0
:100DA400524602212046FFF7D7FD35462846BDE8C6
:100DB400F0876FF00A05D9E76FF00405D6E78AF3E8
:100DC4001188BFF36F8FB8F1000FEFD000233246C4
:100DD400394620460BF0E8FCE8E700BF38E00000A5
:100DE400C1DF000013E00000F8B5054600F1140669
:100DF400EFF31187202383F31288BFF36F8F3046FC
:100E04000AF078FB38B92049882220480BF078FC96
:100E140088211D4825E030460AF090FBAC8B04F095
:100E24000704022C12D0012C0CBF6FF004046FF0E5
:100E3400850430460AF06CFB08BB134940F23112BA
:100E440012480BF05DFC40F23111E2E7EB8B53B931
:100E54000F490E4840F2EF120BF052FC40F2EF1132
:100E64000B480BF044FC013B9BB2EB83002BE0D11D
:100E74003A4621462846FFF76FFD2046F8BD87F322
:100E84001188BFF36F8FF8E738E00000C1DF00007E
:100E940013E000002DE9F0410E460546002845D038
:100EA400002943D000F11407EFF31188202383F3C2
:100EB4001288BFF36F8F38460AF01CFB38B91D49FE
:100EC40088221D480BF01CFC88211A4816E038467D
:100ED4000AF034FB31462846AC8B0BF01EFC78B18B
:100EE40004F00704231F022B0CD91449124840F2C2
:100EF4002D220BF005FC40F22D2110480BF0F7FBDE
:100F04006FF0770438460AF003FB40B9094940F210
:100F1400311209480BF0F4FB40F23111D5E788F3A4
:100F24001188BFF36F8F2046BDE8F0816FF0150480
:100F3400F9E700BF38E00000C1DF000013E0000063
:100F440008B54268034602F00302032A816002D016
:100F54002AB1002000E0006800225A6008BD04495C
:100F6400044845220BF0CCFB452101480BF0BFFBA4
:100F740065E00000C1DF0000014B03600020704702
:100F8400ECD900002DE9F04705460E461746194CEA
:100F9400DFF86480DFF86490444525D9184919487E
:100FA4004FF4BB620BF0ACFB4FF4BB6114480BF085
:100FB4009EFB6268D9F824309A4213D3A3698BB19B
:100FC400A9889078C9B2884205D13A463146284664
:100FD400BDE8F04718475279012A03D13A46314611
:100FE400284698472434D7E7E3D36FF08500BDE85B
:100FF400F08700BF4C030020700300200C0C00207D
:101004008BE00000C1DF00002DE9F041134B144FC9
:101014005E6A144BBB421BD91349144840F2BB52BD
:101024000BF06EFB40F2BB510F480BF060FB5C68A9
:10103400B4420BD31D694DB194F802C08488E4B264
:10104400A44503D12B46BDE8F04118472433E1E71A
:10105400EDD36FF08500BDE8F08100BF0C0C0020DB
:10106400700300204C0300208BE00000C1DF00006F
:101074000022024B1A605A60704700BFC70C002060
:1010840010F0700F08B5024600F07F0305D0074842
:1010940045210BF0C4FB002008BD10F0800F4FF079
:1010A400010018BF10339840F6E700BFBDE0000010
:1010B40038B505460BF0C6FC10F1780F044610D184
:1010C4002A4657210B480BF0AAFB2846FFF7D8FF06
:1010D400094A0024D2F8C43023EA0003C2F8C43019
:1010E40006E00028F1D02A46452104480BF097FB7E
:1010F400204638BDDDE000000C0C002003E10000B8
:101104002DE9F04105460E461746104CDFF84080A5
:10111400444516D90F4910484FF4C1620BF0F0FA58
:101124004FF4C1610B480BF0E2FA63690BB9243444
:10113400EEE73A463146284698470028F7D1BDE8FD
:10114400F081F2D36FF08500F9E700BF4C03002073
:10115400700300208BE00000C1DF0000430670B57F
:101164001CD0114B114CA3421AD9114911484FF408
:101174007D720BF0C5FA4FF47D710D480BF0B7FA90
:101184000022196A1E7F0439D5B2AE4201D8243335
:10119400E9E7013211F832508542F5D1012001E02E
:1011A400EED3002070BD00BF4C030020700300206C
:1011B4008BE00000C1DF0000F7B584880F46E4B27D
:1011C40020468DF80740FFF7C9FF0546B0B114F07B
:1011D4007F0F144E02D096F8BA3003B32246492149
:1011E4007FB111480BF01BFB9DF8070002F018FFBC
:1011F400F3691BB108200DF107019847284603B095
:10120400F0BD0A480BF00BFB9DF8070002F038FF15
:10121400F369002BF2D009200DF10701EDE71D461B
:10122400ECE700BF0C0C00202AE1000042E10000C2
:1012340008B509480378C3F341130A3350F823303F
:101244003BB100F1080200F110019847C043C00F00
:1012540008BD1846FCE700BF0C0C002004282DE94B
:10126400F74F04460F46DFF8C49016D0012830D15A
:10127400DFF8BC8098F8B9305BB300F023FE2D4D45
:101284004D4532D92C4940F2C2422C480BF038FA71
:1012940040F2C24128480BF02AFAFFF7E9FEE7E7DB
:1012A40002EBC606307901920BF0CCFB8346307911
:1012B400FFF7E6FED8F8C430BBF1000F23EA0003C1
:1012C400019AC8F8C4300AF1010A12DA002388F836
:1012D400B930184D4D451BD9174940F2EE42174815
:1012E4000BF00EFA40F2EE41D4E7EFD24FF0000AD1
:1012F4002A6A2B7F5FFA8AF6B342D1D82435BFE736
:10130400EB681BB13A462146284698472435E1E765
:10131400F6D3074B1B6A2BB13946204603B0BDE810
:10132400F04F184703B0BDE8F08F00BF70030020F2
:101334000C0C00204C0300208BE00000C1DF0000F7
:1013440073B5044680782A4D8DF8000023796279BC
:1013540043EA0223ADF80230E37803F003038DF887
:101364000430FFF78DFED5F8C430064618420CD081
:10137400A478204600F088FD2046FFF799FE0BF084
:1013840008FF10B9962009F031FE684602F01EFEEF
:1013940010F1780F9DF8002019D1572115480BF052
:1013A4003EFA9DF8000002F0A7FE10F1780F17D165
:1013B40057219DF8002010480BF031FA0120D5F890
:1013C400C43085F8B9003343C5F8C43006E00028BA
:1013D400E7D0452109480BF022FA002002B070BD85
:1013E4000028EBD045219DF800200548F3E700BF15
:1013F4000C0C00205CE10000ADE1000084E1000081
:10140400D2E100002DE9F047A84E0446B3690F4627
:101414001546FBB9237803F01F03012B00F09E80CF
:10142400022B00F0068133BB94F900002A680028DF
:10143400617834DA062912D008292BD0D9B90123CE
:101444005170137096F8C3305B0043F001031370BE
:10145400022328E198470028DCD100200DE06288AF
:10146400100A011F0129844605D9072803D8716A87
:10147400D2B20C781CB96FF01500BDE8F0874E7835
:10148400664503D19A4200F0098101332144F0E713
:101494000B7808E196F8BA301370012303E101399F
:1014A4000829E8D801A353F821F000BF4B15000028
:1014B4007B140000591500007B140000D5140000B3
:1014C4007B1400007B1400007B140000E314000074
:1014D4006088C0B202F02AFD0028BED0CBE7638842
:1014E400756A63BBFFF7C4FD638886F8BA30F36995
:1014F400002BB2D003206E499847AEE76B78042BDB
:1015040010D0052B11D0022B04D16F796388BB4214
:1015140008BF01202B781D442B78002BEED1002826
:10152400A9D0DFE795F80380F4E76388BB42F1D1E3
:10153400B8F1000FEED12846FFF702FFEAE7FF27D4
:101544000020B846E8E76388012B94D1002386F88D
:10155400C33082E76388012B8DD1F8E796F8BA305F
:10156400D5F800C0002B86D0756AA3882A465FFA96
:1015740083FE107800283FF47EAF5178022904D10D
:1015840092F80480F04500F295800244F1E78CF86B
:1015940000208CF8012039605FE7154496E00B2A9F
:1015A4007FF469AF00274FF0FF08BA46C14606E052
:1015B4006B78042B0FD0052B21D02B781D442B786E
:1015C400002BF5D1F36913B1514607209847002F3A
:1015D4007FF443AF4FE795F80280A38895F8039012
:1015E4009845EAD163889945E7D1B8F1070F1DD82A
:1015F40006EB0803AA46012783F8BB90DDE7A3881E
:101604004345DAD16388DBB24B450AD0AF7838461C
:1016140000F03AFC3846FFF74BFDB0FA80F77F093B
:10162400CBE72846FFF78CFE0746C6E7AA46002705
:10163400C3E794F900206378002A19DA002B7FF4B9
:101644001AAFA4882D68E4B22046FFF787FD00286E
:101654003FF411AF630604D096F8BA30002B3FF480
:101664000AAF2946204602F02BFD00236B70EFE6FB
:10167400012B08D0032B7FF4FEAE6388002B7FF48C
:10168400FAAE012103E0618800297FF4F4AE20461C
:10169400FFF792FD00287FF4E0AEECE60228296013
:1016A4007FF4F6AE4B883B60D7E600BF0C0C0020FD
:1016B400C60C002094F9000062780028BFF66FAFD2
:1016C400002A3FF464AF0A2A7FF4D5AE2A78002AB0
:1016D4003FF4D1AE697804297FF45FAFA9788B42D7
:1016E4007FF45BAF072B8EBF00239B1993F8BB30AD
:1016F4008CF80030D1E600BF2DE9F04705460F46CF
:10170400904699460426DFF830A04B4642463946B7
:10171400284602F01BFD10F10B0F044608D12A469F
:10172400572150460BF07BF809F03EFB013EECD10B
:101734002046BDE8F08700BFF8E1000013B5164C61
:10174400237DF3B9E26801AB8020A1680192FFF721
:10175400D3FF019AA3681344A360E3689B1AE36070
:101764006BB962B12369E2889A4208DD94F8C82013
:1017740093FBF2F102FB11330BB90123237502B081
:1017840010BD002380201A461946237502B0BDE817
:10179400104002F0DBBC00BF0C0C00207FB500231E
:1017A4000D4606460193002861D1002939D108224B
:1017B4000B460DEB02010BF05EF9002803DA8020E2
:1017C40002F02EFC1EE0344C029AC4E90355226058
:1017D400039ABDF80E30626004F13802A2609DF9EC
:1017E40008202575002A0FDB802B08D945212B48BA
:1017F4000BF015F8802002F013FC2846E0E71BB13B
:10180400C4E9033304B070BDFFF712FD0028D6D03D
:10181400E28823699A42D4BFE260E360FFF78EFF57
:10182400F0E71D4C01ABD4E90212002A05DC0246A4
:101834000BF021F90028E5DAC1E70BF01CF90028C8
:1018440004DA802002F0ECFB3046B9E7019AA36881
:101854001344A360E3689B1AE360002BD2D104F124
:101864003803A360FFF7E4FC0028D7D1A7E780285A
:1018740007D1094BDA68002AD0D11B7D002BCDD1CA
:10188400C0E7074907484FF4C5720AF039FF4FF41F
:10189400C57103480AF02BFF0C0C002024E2000061
:1018A4008BE00000C1DF0000054B064A58629A62D3
:1018B400054A0020DA62054A1A63054A9A617047AC
:1018C4000C0C0020091400000D100000051100008C
:1018D400890F00002DE9F3410446514D4FF0FF33C9
:1018E4004FF0FF324F4807F019FF95F8B83063B155
:1018F40057214D480AF093FF6FF07704494807F0E9
:10190400C3FF204602B0BDE8F0816B6A63B900F002
:10191400E1F8FFF7C9FF6B6A33B9452143480AF080
:101924007EFF4FF0FF34E9E741482C62E8616E6ABC
:1019340002F046FD02F0C8FA041EDFDB00F0E4FA10
:10194400041EDBDB7378012B01D1F37933B9452114
:1019540038480AF064FF6FF01504CFE700266846A4
:1019640085F8C830ADF802308DF804608DF8006059
:1019740002F02CFB041EC1DB802768468DF8007042
:1019840002F024FB041EB9DB30462B4902F004FDAF
:10199400041EB3DB3846284902F0FEFC041EADDB0E
:1019A400264CDFF89C8044451DD9264926484FF42F
:1019B400C3620AF0A5FE4FF4C36122480AF097FE01
:1019C4000026276A227FF3B29A4201D82434EAE738
:1019D40007EBC30257F83310107902F0DDFC01362F
:1019E4000028EFD09DE7EBD3002002F085FB041E16
:1019F40084DBD5F8C430802043F00103C5F8C4303B
:101A040002F07AFB041EFFF679AFD5F8C430002447
:101A140043F48033C5F8C430012385F8B8306DE74A
:101A24000C0C00206002002042E200006AE2000088
:101A34006112000094E20000A11700004C03002092
:101A4400700300208BE00000C1DF000030B51F4BA5
:101A54008BB005AA03F110051446186859680833B9
:101A640003C4AB422246F7D11B7810222370002115
:101A740001A80BF082FC1222002115480BF07DFC1A
:101A8400102101A80BF095F800281BDD0828B8BF29
:101A9400082001AB09381A1800200D4912F8013F3B
:101AA4000AAC04EB131403F00F0328336B4414F84B
:101AB400144C13F8143C013008280C704B7001F1DD
:101AC4000201EBD102480BB030BD00BFD3E20000ED
:101AD4008B2200202DE9F04F8F4B87B093F800B094
:101AE400BBF1000F03D08D4807B0BDE8F08F8B4CDD
:101AF40000264FF0011AB0463546B14623783BB96B
:101B0400874B02349C42F3D10123834A1370EAE7E2
:101B14006378052B29D8DFE813F0B2000600FC0037
:101B2400B2002B005800402304A88DF810B0ADF883
:101B340012308DF814B002F01FFA98B1082304A8EB
:101B4400ADF8123002F018FA60B1764940F28F1203
:101B54007548ADF812B00AF0D3FD40F28F11714808
:101B64000AF0C5FDBDF81230E37123781C44C5E7C3
:101B7400E378002BF9D1A37813BB6C4D03E06B68B9
:101B84009C4218D024356A4B9D4208D965494FF4CC
:101B94009B7265480AF0B4FD4FF49B71DFE7EED306
:101BA4002246452163480AF03AFE634845210AF07B
:101BB40036FE002098E7AB6813B1414620469847AB
:101BC40008F101085FFA88F8CFE7002D55D14521C7
:101BD4005A480AF024FEE8E7296AA07801EBC2011A
:101BE4000B79984242D10127E078FBB200F0030060
:101BF4008DF81400207994F805C040EA0C20ADF863
:101C0400120094F90200002826DA4FF0010C07F1C3
:101C140010000CFA00F010EA0A0F24D143F08000FF
:101C24008DF8100004A8CDE90213019202F0A4F982
:101C3400DDE90121039BB0B99DF8102012F0800F5B
:101C4400A2700A714FF001021DBF1033DBB29A403B
:101C5400BA404AEA020A88E70120B84010EA0A0FAB
:101C640001D11846DCE70137102FBDD101322B7F9B
:101C74009A42B1D345213248ABE70022F7E7032E5D
:101C840022D1FFF7E3FE074690B1FEF785FA02463C
:101C940070B1102805D0019057212A480AF0BFFDE1
:101CA400019A102AA8BF10223946A01C0BF03EFB53
:101CB4006FF002002378001BE11804EB5303C842C1
:101CC4000AD50136F6B250E7002EF1D1B9F1000F72
:101CD40014D145211C487CE71A78203A5E2A06D99B
:101CE4001049CB2210480AF00BFDCB2137E701F84D
:101CF40001BC13F8012901F8022DE0E7A4EB090364
:101D040089F80230C3F3072389F8033089F8048083
:101D1400D7E7A14629E700BF8A220020C402002099
:101D24004C030020E4E20000C1DF00004C0300206B
:101D3400700300201AE3000019E400003FE30000F0
:101D440085E30000A7E30000F7E30000094B00214E
:101D54001A4610B51C78844204D15C6814B102EBB5
:101D6400811010BD0131042903F14003F2D1002098
:101D7400F7E700BFD80C00202DE9F34150F8283CC8
:101D84000446103310F82C6C0AD1036950F8202C47
:101D940098073CD5D2B9590715D5002344F8283CF7
:101DA40054F8283C10330BD054E9077554F8148CBC
:101DB4000BF0EFF9002856D0214631480BF0D9F941
:101DC40002B0BDE8F08143F004032361304654F8C7
:101DD400241C01ABFFF790FC024638B13346452181
:101DE40028480AF01CFD6FF01503D7E7019A54F850
:101DF400243C134444F8243C54F8203C9B1A44F8F3
:101E0400203C54F81C3C134444F81C3CC8E73046BE
:101E140054F8241C01AB02F01FFA02460028DDD15D
:101E2400019D54F8243C2B4444F8243C54F8203CB1
:101E34005B1B44F8203C54F81C3C2B4444F81C3CE9
:101E4400002DAAD0304602F0C1FAB5FBF0F303FB33
:101E54001055002DA1D154F8203C002B9DD03046C4
:101E640002F050FA9CE744F8180CA4F1100007F0B3
:101E7400E9FE002DA4D0424639463046A8479FE7E4
:101E8400C80A00204CE4000010B5EFF311842023AD
:101E940083F31288BFF36F8FFFF758FF50B1436885
:101EA400103307D16FF08B0300F12C014360044819
:101EB4000BF05FF984F31188BFF36F8F10BD00BF7F
:101EC400C80A0020F8B5042520270D4CEFF311862D
:101ED40087F31288BFF36F8F6368103307D16FF0F5
:101EE4008B030848636004F12C010BF042F986F37C
:101EF4001188BFF36F8F013D04F14004E6D1F8BDB2
:101F0400D80C0020C80A002070B50025094C0A4EE0
:101F14003146204608F00CF90122A4F110001146C4
:101F240001350BF0F9F8042D04F14004F0D1002040
:101F340070BD00BF040D00207D1D000008B50448DD
:101F44000AF0C8FBBDE8084002480AF0C3BB00BF62
:101F54007BE40000B0E40000014809F045BE00BF86
:101F6400ECD9000038B5044618B90F4B0F485B682C
:101F740098476168B1F5683F10D0B1F5680F0DD08E
:101F84000B4DA9420AD011F46861206807D00146BC
:101F9400084807F085F900232360656038BD1422E2
:101FA4000BF0EBF9F9E700BF5C010020DEE4000070
:101FB4002C5F5CA9D812002008B560B34368B3F560
:101FC400683F0ED0B3F5680F18D0144A934220D05E
:101FD40000684FF0FF324FF0FF3307F09FFB58B11A
:101FE40015E001220368D3E8EF1F002903D1C3E8F9
:101FF400E02F0028F7D10AD1002008BD0368084A61
:102004001B7803F5807352F82330002BF4D0054875
:10201400F3E70548F1E76FF4E040EEE72C5F5CA9D5
:1020240000000350E98FFFFFEA8FFFFF08B520B3DC
:102034004368B3F5683F09D0B3F5680F13D0114A6C
:1020440093421DD0006807F01FFC14E000220368CF
:10205400D3E8EF1F012903D1C3E8E02F0028F7D10B
:1020640009D0094808BD00210368084A1B7803F514
:10207400807342F823100020F4E76FF4E040F1E7A6
:102084000348EFE72C5F5CA9E98FFFFF00000350D2
:10209400EA8FFFFF10B5044618B91D4B1D485B6855
:1020A40098476368B3F5683F2FD0B3F5680F2CD019
:1020B400194A934219D1236803BB4FF0FF324FF002
:1020C400FF332146154807F079F808B923681BB98E
:1020D4000F4B13485B6898471422002120680BF0CB
:1020E4004CF94FF46863636008E0B3F5683F0DD8BA
:1020F4003A2B03D040F6BA629342DED120680AF04C
:10210400EDFF636843F03A03636010BD054AF3E7EB
:102114005C010020DEE400002C5F5CA9D8120020E2
:1021240004E500003A00003A08B5064940231422A9
:1021340005480AF0ACFFBDE808400449044809F02A
:10214400C5BD00BFD80D0020D8120020F4D900006E
:1021540008DA000037B505460C46C9B18B68144847
:102164000093D1E9002345210AF059FB6369452115
:102174000093D4E903230F480AF051FB4521E26997
:102184000D480AF04CFB4521A2690C480AF047FBB4
:10219400012D06D1EFF3058245210948103A0AF0D2
:1021A4003EFB2146284603B0BDE8304006F04EBE53
:1021B40031E5000065E5000099E50000ADE50000AB
:1021C400E0E5000030BFFFF7FDBF00BF2DE9F0419F
:1021D40005460B4EDFF82C80324606EB0807CC1B75
:1021E400204609490BF0A2F8A01942460021083CF8
:1021F4000BF0C3F82C6707F10800BDE8F08100BFBD
:102204000000000004000000A8D90000054B5A6932
:102214009B689A421FBF044A536843F0805353603B
:10222400704700BF5C20002000ED00E010B5244C96
:10223400452124480AF0F3FAA36A99013ED52248BD
:1022440045210AF0ECFA1E20A36ADA0104D51F48DE
:1022540045210AF0E4FA1F20194CA36ADB0204D5D5
:102264001B4845210AF0DBFA0220A36A1C0304D5AB
:10227400184845210AF0D3FA2120114CA36A5903C6
:1022840004D5154845210AF0CAFA2220A36A9A0304
:1022940004D5124845210AF0C2FA2320084CA36A47
:1022A400DB0304D50E4845210AF0B9FA2420A36AB9
:1022B4006FEA03436FEA1343A36210BD1D20C3E713
:1022C40000ED00E0F8E5000015E600002DE6000052
:1022D4004CE600007BE600009EE60000C8E6000035
:1022E400E7E6000070B5284C06460D462748452110
:1022F4000AF095FAA36AD9043BD5254845210AF08A
:102304008EFA1720A36A1A0504D5224845210AF03B
:1023140086FA18201C4CA36A9B0511D51E4845213A
:102324000AF07DFAA26BA36A180408D545211B485C
:102334000AF075FA1EB1A36A23F40043A3621920BC
:10234400114CA36A590504D5154845210AF067FACA
:102354001A20A36ADA050ED5124845210AF05FFA5D
:102364001B20094A936A43F47F43936200232B7032
:1023740070BD1620C6E7A36A9B04F2D50A4845211E
:102384000AF04DFA1C20ECE700ED00E017E700002E
:1023940032E7000048E7000060E700007EE7000045
:1023A40098E70000B8E70000D5E7000070B5324CAC
:1023B40006460D46314845210AF031FAA36AD9068A
:1023C40048D52F4845210AF02AFA1120A36A1A0792
:1023D40004D52C4845210AF022FA1220264CA36A7F
:1023E4009B0711D5452128480AF019FA626BA36AA4
:1023F400190608D5452125480AF011FA1EB1A36A29
:1024040023F08003A36213201B4CA36ADA0704D5CC
:102414001F4845210AF003FA1420A36A9B0604D539
:102424001C4845210AF0FBF91520134B9A6AD6067D
:1024340002D49A6A94070FD59B6AD9060CD516491B
:1024440016484FF495720AF05BF94FF495711248EF
:102454000AF04DF91020B9E7074B9A6A920642BF79
:102464005A6A22F400525A629A6A42F0FF029A624D
:1024740000232B7070BD00BF00ED00E009E80000F0
:1024840024E8000048E700005CE8000079E8000068
:1024940094E80000D5E70000B8E80000C1DF0000C0
:1024A400F0B56C4B0446586800258BB0C0F30803A4
:1024B40085F31188BFF36F8F02F07F46B6F17F4F2B
:1024C40007D102F00C06082E0ED1452162480AF00D
:1024D400A6F9624940F2114261480AF011F940F24A
:1024E40011415E480AF003F916074CBF0C4601255A
:1024F400002CEED00026DA1E8DF80760092A00F2BF
:102504009880DFE802F0058B8F76969696969693E0
:10251400452154480AF083F98DF807604D4EF36A5B
:102524009A0705D5452150480AF079F9002329E096
:10253400F36A002B02DA45214C48F5E7F36A5B00A5
:1025440063D545214A480AF06AF97369A26943F4DC
:1025540080737361BFF34F8FBFF36F8F736932F86A
:10256400022C23F480737361BFF34F8FBFF36F8F1B
:102574004DF602739A4224D1452122683D480AF05F
:102584004EF923689DF80720CAB902AE04F120076A
:10259400324620686168083403C2BC421646F7D14B
:1025A400099A002D51D0C2F3080121B96FEA5222D1
:1025B4006FEA42220992184602A9FFF7CBFD0BB03D
:1025C400F0BDB36ADBB233B101200DF10701FFF7AF
:1025D400EDFE0346D6E7B36A13F47F4F05D001201E
:1025E4000DF10701FFF77EFEF3E7B36AB3F5803F11
:1025F40002D3FFF71BFEECE7184940F2EA22184821
:102604000AF07EF840F2EA216BE7144940F2ED2229
:1026140013480AF075F840F2ED2162E700200DF14D
:102624000701D4E700200DF10701DBE7452112483B
:102634007AE7124910F4F87F114A124808BF0A4693
:10264400103B45210AF0EBF870E722F4FF7222F008
:102654000102AFE700ED00E018E90000B8E800006F
:10266400C1DF000048E9000064E900008AE90000D5
:102674009DE90000C1E90000E2E90000EAE8000089
:10268400FFE800000BEA0000064B5A6942F0100212
:102694005A615A6942F480625A615A6922F0080206
:1026A4005A61704700ED00E0EFF30880EFF3098111
:1026B40001B57246FFF7F4FE01BD00BF002080F3B0
:1026C4001488BFF36F8F002080F30A8880F30B888F
:1026D4000F4880F3088804F03DFF00200D4908608E
:1026E400BFF34F8F00F02CF8202080F311880A48A4
:1026F4004FF40061401880F30988EFF3148002213D
:10270400084380F31488BFF36F8F00F0FBF80000D8
:10271400A838002094ED00E0682B00200023184620
:102724000649D1F89020C2F30722934200DB704798
:10273400C1F89830C1F8A0000133F6E700ED00E0DD
:1027440010B572B6002484F31388FFF7E7FF23461D
:102754004FF0FF300C4A03F120010133102B42F8F3
:102764002100F8D100234FF0FF30074A03F1600144
:102774000133102B42F82100F8D162B6BFF34F8F1A
:10278400BFF36F8F10BD00BF00E100E0084B9B68F2
:1027940083420BD1EFF3058343B1064B5A6842F0F1
:1027A40080525A605A6A22F400425A6208F088BC85
:1027B4005C20002000ED00E014498A684FF03000EE
:1027C4001044EFF3098C80E8F01F202080F3128876
:1027D400BFF36F8F0E4F4FF000664A698A603E6008
:1027E400106F0C4C2060506F0023536780F31188E6
:1027F40002F1300090E8F01F8CF3098802F1000028
:1028040004B50AF05AF8BDE8044070475C20002083
:1028140004ED00E0F81200201EF0040F0CBFEFF3EB
:102824000880EFF30980816911F8021C0229FFD0A6
:1028340001B572460AF032F801BD00BF40B200286B
:1028440007DB01234109034A00F01F00834042F8DB
:102854002130704700E100E040B200280CDB012287
:102864000649430900F01F008240203341F8232029
:10287400BFF34F8FBFF36F8F704700BF00E100E0DD
:10288400054B420953F82220012300F01F0003FAEC
:1028940000F01040704700BF00E100E0013107295B
:1028A40008B508D90D490E486B2209F029FF6B21A0
:1028B4000A4809F01CFF40B20028ACBF00F1604098
:1028C400084B4FEA4111C9B2ABBF00F5614000F0BB
:1028D4000F0080F80013195408BD00BF23EA00005C
:1028E400C1DF000014ED00E0044B054A23F07F0330
:1028F4009360BFF34F8FBFF36F8F704700000000EA
:1029040000ED00E008B5FFF7EFFF074AD2F8883082
:1029140023F47003C2F8883006F086FB08F016FE34
:1029240000F046F806F0C0FB00ED00E042F8203C61
:10293400009B0B4942F81C3C019B21F0010142F829
:10294400183C029B42F8081C42F8143C4FF0807378
:1029540042F8043C0023203A02654367704700BFF5
:10296400FD08000000B50B4B15469860026F0A4B3A
:102974000E461A60036E83F30B882C4686F309888F
:102984000020064B98472046002100220023044CD7
:10299400204700BF5C200020F8120020C7C80000B8
:1029A400FD0800001022014B1A61704700ED00E0A1
:1029B400002320210348C2180133452B82F8001359
:1029C400F9D1704700E100E008B5EFF30583064A4A
:1029D400103B02EBC30152F8330049688847BDE855
:1029E4000840FFF713BC00BF38D600001FB5094CE0
:1029F400094A23460121094800F00EF900230393F4
:102A0400074B0121E41A01A80193029400F01EF976
:102A140004B010BD000007200000002018DA0000F8
:102A24007003002010B50C7A0B6804F01F0223F029
:102A34001F031A43CB68640923F01F03054943EAC3
:102A4400440343F00103C1F89800C1F89C20C1F885
:102A5400A03010BD00ED00E010B50A4B0446D3F8D9
:102A64009030C3F30723013B984208D9024645211D
:102A7400054809F0D4FE6FF01504204610BDFFF799
:102A8400D1FFFAE700ED00E05EEA00002DE9F04F27
:102A94008946144606464FF00008514D85B0C84596
:102AA40027DAD6F804A0BAF1000F44D0BAF11F0F08
:102AB40018D91AF01F0F15D1D6F800B01BF01F0F4C
:102AC40010D1584609F039FF07460AEB0B000138CC
:102AD40009F033FF874210D06FF015073A464521BD
:102AE400404802E0424645213F4809F098FE6FF015
:102AF4001504204605B0BDE8F08F17F1160FEDD090
:102B0400BC42EBDDC5F89870D5F89C10C5F89870F8
:102B1400D5F8A03021F01F0143F01F0BD6E9003295
:102B24001A44994202F1FF3A1DD1D34507D13146E7
:102B3400F8B209F00BFF08F101080C36AFE7314693
:102B4400C5F89870D5F89C3022F01F0203F01F03DB
:102B54001343C5F89C30E0B209F0F8FE10F1160FEB
:102B6400C5D0441CE7E7C5F89870D5F8A020013B10
:102B740023F01F0302F01F021343D3453146E0B292
:102B8400C5F8A030E8D009F0E1FE10F1160FAED080
:102B9400C5F89870D5F89C209DF808300BF1FF3BE0
:102BA40062F304038DF80830D5F8A0309DF80820AE
:102BB4005B0863F347128DF80820D6E9003213440A
:102BC400009323F01F035B44A3EB0A03013023F0BB
:102BD4001F036946C0B20393FFF73EFFBEE700BF81
:102BE40000ED00E0B1EA000089EA00000522044B90
:102BF400C3F89420BFF34F8FBFF36F8F704700BFAC
:102C040000ED00E0BFF35F8F0022024BC3F8942075
:102C1400704700BF00ED00E010B5094C2278FFF7C3
:102C240035FF207016300AD1064907484FF4BB72AD
:102C340009F066FD4FF4BB71024809F058FD10BD60
:102C44009D220020D9EA0000C1DF00002DE9F74FE2
:102C54002E4D8A4606464FF00008AB462C4FD04511
:102C640002DB03B0BDE8F08FD6F80490B9F1000F91
:102C740047D031680846019109F05FFE0199044686
:102C840009EB0100013809F058FE84424FF01402A8
:102C9400204B10D002FB08F36FF015024BF8032011
:102CA4001D491E484FF4C37209F02AFD4FF4C37145
:102CB400194809F01CFD14F1160F2C60F0D0197896
:102CC400A142EDDD02FB08B0C7F89840C7F8984070
:102CD400D7F89C4000F10801007B64F304000871FC
:102CE400D7F8A0000C79400860F347140C71D7F8AA
:102CF4009C1021F01F016960D7F8A01021F01F017A
:102D0400296108F1010814350C36A8E7FC120020EB
:102D140000ED00E09D220020D9EA0000C1DF0000A0
:102D24002DE9F0414E494F4CD1F890302568C3F35A
:102D340007239D4286B00AD94B4940F2AD124B4855
:102D440009F0DEFC40F2AD11474809F0D0FC002048
:102D5400FFF758FF464BC1F8C03085421AD1454CA5
:102D640001A82570FEF708F9002506464FF0410832
:102D7400414FAE4215D1002023783949D1F8902033
:102D8400C2F30722934265DB0020FFF72FFF06B052
:102D9400BDE8F081616801EB0011FFF743FE0130EB
:102DA400DBE7019A290102EB0513D3F80CC00CEA06
:102DB4000700B0F5001F23D0B0F5800F38D0B0F570
:102DC400801F45D1586852589B68CDE902022122E0
:102DD400013B20F01F010B4423F01F038DF810204A
:102DE4000593207802A9FFF737FE00282DDA1E4943
:102DF40040F2D7121D4809F083FC40F2D711A3E733
:102E040058689B685258013B20F01F010B4423F083
:102E14001F031CF0010FCDE902028DF81080059309
:102E2400DFD011497B22114809F06AFC7B218BE732
:102E340058689B685258013B20F01F010B44CDE9B0
:102E4400020223F01F030622C8E72378013323700C
:102E540001358EE7C1F89830C1F8A00001338DE741
:102E640000ED00E024DA0000D9EA0000C1DF000030
:102E7400AAFF44009D2200200000F0FF08B5024B89
:102E84001B689847002008BD10130020034B044A18
:102E94001860937843F00203937070471013002076
:102EA4002400002008B50649064821F00701C1F1B5
:102EB400005202F5E022FDF775FC002008BD00BFBA
:102EC4008741002014130020054B03EB8000D0F849
:102ED400003223F0E04343F04053C0F8003270471F
:102EE40000258450052370B5144D154E2C780134FB
:102EF400B4FBF3F303EB8303E41A09F0B3FF114AC1
:102F0400137823B156F82430C01A072814D94FF087
:102F14005023D3F8141141B10021C3F81411D3F88C
:102F240014312C700CB9012313702C7809F09AFF1A
:102F340046F82400012070BD0020FCE79F220020F9
:102F4400201300209E220020012208B5104B1149B5
:102F5400C3F8002502230020C1F8D036FFF7B4FFE0
:102F64001046FFF7B1FFC1F80427C1F80429C1F8DE
:102F7400002B00F0DBF850B1074908484FF40C72FD
:102F840009F0BEFB4FF40C71034809F0B0FB08BD17
:102F9400001000500040005017EB0000C1DF00009B
:102FA40007B50DF1070004F021FC154B98420AD037
:102FB4001449154840F23A2209F0A2FB40F23A21A2
:102FC400104809F094FB4FF48062104B1049C3F889
:102FD400B8254FF40062C3F83C259DF8070004F0BF
:102FE400F1FB0C499DF8070004F0D8FB01209DF883
:102FF4000730984004F0CCFB03B05DF804FB00BF3D
:103004000000AD0B17EB0000C1DF000000A0025070
:103014002CA0025028A1025048B1054B054A1B6858
:10302400B3FBF2F35843044B43F0010318477047D2
:103034003001002040420F00B0D90000F8B5002153
:103044004FF0FF354FF6FF77174C184EDFF860C08E
:10305400000714F8013B5A090CD0012A1CD0154969
:10306400154840F2CA3209F04BFB40F2CA3111480C
:1030740009F03DFB25FA03F2D207F0D5324602EB04
:103084008303D3F80022013122F0E04202430429F1
:10309400C3F80022DDD1F8BD03F01F0327FA03F2C1
:1030A400D207DCD56246EAE77CEB000000258450B9
:1030B4000028845045EB0000C1DF00002DE9F041F9
:1030C400064601200D46FFF7B9FF4FF47F03D3F8FE
:1030D4003021D3F83431072A20D1023B032B02D804
:1030E400114AD35CD3B14FF050244FF001080027AC
:1030F4000520C4F81886C4F8147609F0C3FE4046C7
:10310400C4F8148609F0BEFEC4F81476C4F8187620
:1031140030462B46BDE8F041002118474FF05023BC
:103124000022C3F81426F3E778EB000001490248B3
:1031340009F050BB4CDA000034130020BFF34F8F6A
:103144000549064BCA6802F4E0621343CB60BFF33F
:103154004F8F00BFFDE700BF00ED00E00400FA055B
:103164002DE9F041904690F900200446002A0D46CE
:10317400037803DA03F01F03012B03D06FF015006B
:10318400BDE8F0814378062BF8D187884688FFB2E2
:1031940039461548360A09F05AFB28B93A465721E8
:1031A400124809F03CFBE9E7212E04D0222E10D06E
:1031B4006FF08500E4E70368E1885B685B6813F8F7
:1031C400092F914294BF29602A600020C8F800307A
:1031D400D6E7E38850F80C2C9A4294BF2A602B60FF
:1031E40050F8103CF1E700BF6C13002080EB0000A6
:1031F4002DE9F0410E4681880546C9B22E4817468E
:1032040009F025FB044640B92C485721AA8809F047
:1032140006FB6FF01200BDE8F08195F900300068FC
:10322400002B6A781ADA022A08D0032A09D0012A64
:103234003FD154F8083C0BB11C68DCB96FF0850031
:10324400E9E76B8823B145211D4809F0E8FAF5E761
:103254000123043C3C6033600020DCE70A2AEDD003
:103264000B2A0ED0092A24D154F8083C002BE5D0AF
:103274005C68E2E73B4632462946A446BDE8F04195
:1032840060476A88012A04D945210E4809F0C7FA23
:10329400D4E714F8043C9342DED054F8083CD1B28D
:1032A40004F8041C002BD7D09B68002BD4D098477B
:1032B400D2E745210448E9E76C13002080EB0000C5
:1032C400ACEB0000E2EB0000C4EB000070B5044678
:1032D4000D4601460B4809F0C7FA30B92246BDE84D
:1032E40070405721084809F09ABA022D08D150F8C5
:1032F400083C2BB11B691BB1BDE87040006818473E
:1033040070BD00BF6C13002000EC000070B50646D1
:103314000D460146304809F08FFA044630B932466A
:10332400BDE8704057212D4809F079BA0A2D4FD8CD
:10333400DFE805F0060C2528303A404E4E4E2F00AB
:1033440049212748BDE8704009F069BA4921254858
:1033540009F065FA0023012104F8033C04F8023C57
:1033640014F8043C20688B4204F8041C11D054F86F
:10337400083C73B19B6863B1BDE8704018474921AC
:103384001948DFE74921194809F049FA012304F8EB
:10339400033C70BD4921164809F041FA002304F8A2
:1033A400033C04F8023CF4E74921124809F037FAD7
:1033B4000123F6E74921104809F031FA14F8023CD8
:1033C400002BE6D049210D4809F029FA0023E8E74B
:1033D40049210B48B6E700BF6C1300202BEC00001A
:1033E40051EC000063EC00007EEC000094EC000063
:1033F400ABEC0000C4EC0000DAEC0000EEEC0000E2
:1034040000ED000010B50469A3600023C4E90012B4
:103414006361064B2061596804F1140211B9C3E9D0
:10342400002210BD0A605A60FBE700BF6C13002045
:1034340070B544680069457B3DB1807B28B9206A3A
:10344400BDE870400079FEF757B95721024809F0EA
:10345400E6F96FF00A0070BD13ED0000F0B5154DEC
:10346400154E164F85B04FF0FF324FF0FF3328460C
:1034740001A906F095F8024620B14521384609F025
:10348400CEF9F0E70E4C0AE0EDD2236813B1019AAD
:10349400934203D1D4E9013101A898470C34B442D2
:1034A400F2D908490848172209F02AF917210548D2
:1034B40009F01DF974020020A8D9000039ED0000BC
:1034C40090D9000053ED0000C1DF0000F0B51746AD
:1034D4001E4685B001909DF82800DDE90C54234672
:1034E4002C432A468DF808008DF80910ADF80A70AF
:1034F40003960AD009F0BCFF0B49D1F880400B4970
:1035040009588C4204BF00221346094801A905F05A
:1035140097FF041E06DA5721064809F080F9204671
:1035240005B0F0BD0024FAE7C80A00200800000036
:10353400740200207BED0000772804D8034B185C4C
:1035440008B100B270474FF0FF307047B8ED00008B
:1035540008B54368186809F05AFD30B90448452194
:1035640009F05DF96FF0120008BD0020FCE700BF10
:1035740030EE00007FB503460846DA884968012A20
:1035840004694E6816D0B2F5A57F16D00AB99A68B8
:1035940062601B7953B3D4E900230D7BAA4202D2A3
:1035A4004D7B9D420FD85721114804B0BDE87040AF
:1035B40009F035B99A682260EBE79A68003A18BFB7
:1035C40001222272E5E705FB02338A689A420DD98B
:1035D40036F8132052B1237A4FF0FF354FF0FF3401
:1035E4000121CDE902450091FFF770FF04B070BDE1
:1035F4004CEE0000020600F07F0312D5082B05D123
:10360400010700F00F0306D50E48704710F0780F3D
:1036140012D100F00F034C2000EB43100A4B184466
:103624007047082B05D1020700F00F0306D50748A1
:10363400704710F0780FF6D000207047044800EB74
:1036440043107047CC14002080130020EC15002098
:10365400EC1400200149024809F08BBDA813002096
:10366400F00300200146014809F04BBDB0020020E0
:10367400002310B50D49D1E8EF2F012A03D1C1E889
:10368400E03F0028F7D10CBF012018460DD151F8B6
:10369400044C14392046FDF7FDFB10F1780F04D1DA
:1036A4002046BDE81040FDF79FBB10BDA0130020CD
:1036B40000220023014806F04DBA00BFB0020020EA
:1036C40013B5002201213720FFF7E8F8114800F074
:1036D400F1FF114B98421AD10024104805F052FA18
:1036E4000F4805F013FB4FF0FF334FF480620D4990
:1036F4000D48009406F08EFD0C490B4809F04FFD6F
:103704000B480C4906F014FD204602B010BD6FF0C2
:103714000400FAE7793900000000AD0B46F100001F
:103724006CDA000068270020F003002087EE000018
:10373400A8130020DD3A000038B5002464F07F00AF
:10374400C0B2FFF757FF50B91B4940F27A221B4819
:1037540008F0D6FF40F27A21174808F0C8FF013478
:1037640009F059F9082CE9D10024154DE0B2FFF70E
:1037740041FF40B910494FF42072104808F0C0FFCF
:103784004FF42071E8E7036903B90561013409F0D6
:1037940042F9082C05F14005E8D10A4809F03BF943
:1037A400094BD3F87C2212B9084AC3F87C22084892
:1037B40009F031F9002038BD92EE0000C1DF0000AD
:1037C400101A0020CC1400208013002010160020B2
:1037D400EC15002010B5054CFFF76AFF20B14168D5
:1037E400204605F05DFDF7E710BD00BFD0010020C5
:1037F40013B500220023184801A905F0DFFC38B3F3
:103804004521164809F00BF8FFF7E4FF00220023D6
:10381400114801A905F0D2FC044670B145211048B5
:1038240008F0FDFF0F4910484FF4E37208F068FFF9
:103834004FF4E3710B4808F05AFF042301984060E9
:103844000374FFF70FFFFFF705FF204602B010BD1A
:1038540001984060FAE700BFD0010020C6EE0000E6
:10386400E9EE000092EE0000C1DF000002280246EB
:1038740010B511D80C4B1C5CFFF7BAFF90B10022B5
:1038840004720274FFF7EEFE084B93F824304BB138
:10389400BDE81040FFF7DEBE4521BDE810400448F6
:1038A40008F0BDBF10BD00BF43F10000801300202D
:1038B4000AEF00002DE9F041877806463846FFF705
:1038C40099FE3B060546F4781BD54CB1032C4BD02E
:1038D4003B462246BDE8F0414521244808F09FBFFD
:1038E400FFF786FF034600283ED00122AC7702741E
:1038F400032202739D60FFF7B5FEBDE8F041FFF7B8
:10390400A9BE4CB1012CE3D1FFF772FF034658B3B3
:103914006C7704740473EDE7FFF76AFF20B3B278A1
:10392400134B12F0800F02F0080111D041B1D3F80B
:10393400A836EB6001230374022385600373DAE77E
:10394400142102F00F0201FB0233D3F80836F0E72A
:1039540011B1D3F8A837ECE7142102F00F0201FBF0
:103964000233D3F80837E4E7BDE8F0812AEF00001A
:1039740000600350F0B5064689B01422002103A864
:1039840009F0FBFC3378013B052B21D8DFE803F079
:10399400950314148516032300248DF81430FFF7BF
:1039A40027FF0346A0B100F108020474DDE9050114
:1039B40082E80300184627E00423EDE7B778384689
:1039C400FFF718FE837A054623B1013B022B5ED92B
:1039D40009B0F0BD3B06F4781DD554B1032CF7D0E3
:1039E4003B4622464521364809B0BDE8F04008F080
:1039F40016BFFFF7FDFE03460028E9D00122AC778D
:103A04000274032202739D60FFF72CFE09B0BDE827
:103A1400F040FFF71FBE54B1012CE1D1FFF7E8FEDF
:103A240003460028D4D06C7704740473EBE7FFF7E3
:103A3400DFFE04460028CBD00123037402238560F3
:103A44000373B07805F10C0109F024F8024670B153
:103A540045211C4808F0E3FE1B491C4840F29D32F6
:103A640008F04EFE40F29D31174808F040FE184918
:103A7400E868B1F88C32834206D91B1AA1F88C325B
:103A840001F048FA2046BFE7A1F88C22FAE7304655
:103A940009B0BDE8F040FFF70DBF01A801F018FA26
:103AA4009DF80530052B04D19DF8043013F0600F08
:103AB4008ED0084B0124059371E702246FE700BF01
:103AC4002AEF00005BEF000092EE0000C1DF00006F
:103AD40080130020EC1400202DE9F04380469C4D17
:103AE400DFF8709285B0FFF7E3FD074610B905B023
:103AF400BDE8F08395F825303A7C3BB9002A00F004
:103B0400AF807968934805F0CBFBECE7042A00F218
:103B1400C581DFE812F0A500050063017901990170
:103B240018F8043C2BB9BB6845215A7A8A4808F036
:103B340076FEBC6854B989494FF44B72884808F042
:103B4400DFFD4FF44B71854808F0D1FD3B7B032B1F
:103B540042D8DFE803F002486D72A27A42B17F498D
:103B64004FF439727E4808F0CBFD4FF43971EAE71F
:103B740066697C4B32607260D3F880143170D3F87C
:103B840084147170D3F88814D3F88C0441EA0021AA
:103B94007180D3F89014D3F8940441EA0021B180E1
:103BA400D3F89814D3F89C3441EA0323F380082310
:103BB400E360306871686C4B03C311462368607A14
:103BC400984796F90030002B09DBF3889AB232B19A
:103BD400A5F88C3201F09EF94846796893E70023F2
:103BE400A5F88C32F8E7637F002BF5D0237F002BF8
:103BF400F2D000264FF0FF324FF0FF335B48667778
:103C0400267708F01BFF636901A901936368CDE976
:103C14000236607A00F0C6FD554B0246984203D046
:103C24004521544808F0FBFD504808F009FFD3E74C
:103C340001212368607A9847CEE7A37A6BB9E37FC2
:103C44005BB94A484FF0FF324FF0FF3308F0F6FEFD
:103C540001F066F9454808F0F3FE02212368E9E71C
:103C64003A7A042AB8D8DFE802F0890329A2AE0020
:103C740000F09AFC04460028AED100F013FC0123A6
:103C84003D49D1E8EF2F002A03D1C1E8E03F0028E5
:103C9400F7D1A1D141F8084C41F8104CE869143926
:103CA4006B61FDF71DF8002896DA2C4940F2AA2230
:103CB4002B4808F025FD40F2AA2144E7002464F0D3
:103CC4007F00C0B2FFF796FC40B9244940F231228C
:103CD400234808F015FD40F2312134E7037A13B18B
:103CE400407A01F0D3FA0134082CE8D195F8543124
:103CF4001BB195F8550101F0C9FA0024E0B2FFF7B1
:103D040079FC40B9154940F24322154808F0F8FC03
:103D140040F2432117E7037A13B1407A01F0B6FA6F
:103D24000134082CEAD195F874321BB195F8750268
:103D340001F0ACFA002000F007FC012385F82530DF
:103D44002B68002B3FF448AF00210220984743E73B
:103D540080130020D001002080EF000092EE0000CC
:103D6400C1DF00000060035084130020B81300205A
:103D74000000AD0BABEF0000A0130020002485F879
:103D8400254001F0CBF9FFF773FCA04208DA46495D
:103D940040F2C222454808F0B3FC40F2C221D2E608
:103DA4002B68002B3FF418AF21460420CEE7002BEC
:103DB4003FF412AF00F002FC2B68002B3FF40CAF71
:103DC40000210520C2E72A68002A3FF405AF002B32
:103DD4003FF402AF002106209047FDE608F11004ED
:103DE4004FF0FF334FF0FF32204608F027FEFFF775
:103DF400A3FC204608F024FE58F8283C002B3FF48E
:103E0400EBAE00210120A1E795F874325BB10124E7
:103E140085F8894285F88842FFF7EAFC58B94521BC
:103E2400234808F0FCFC58F8283C002B3FF4D4AE9F
:103E340000210A208AE71F4A047404738260FFF792
:103E440011FCFFF707FCEEE745211B4808F0E7FCEF
:103E540004F044FF01F062F900F006FBFFF7BAFC3E
:103E6400FFF76AFC40B1104940F286420F4808F05F
:103E740047FC40F2864166E604F028FF0F4800F054
:103E840019FC0F4B98423FF4A7AE074940F28D420C
:103E9400064808F035FC40F28D4154E645210948B6
:103EA40008F0BDFC98E600BF92EE0000C1DF000000
:103EB400D6EF0000EC150020EFEF00007939000088
:103EC4000000AD0B0BF0000038B5154D95F82440FB
:103ED40024BB05F1380009F001F9022001F0BCFB14
:103EE40022460121E8613620FEF7D8FC04F0EEFEFC
:103EF400FFF722FC044610B9012385F82430094B4E
:103F04001B680BB1FFF7A6FB074BD3F80034DB07A4
:103F140002D50020FFF7AAFC204638BD0024FBE7A9
:103F240080130020B00200200070035008B50E4B2F
:103F340093F824209AB193F8253083B10B4BD3F82E
:103F44007034DBB283420DD009490A4840F2595219
:103F540008F0D6FB40F25951054808F0C8FB6FF051
:103F6400120008BD0020FCE780130020006003500D
:103F740092EE0000C1DF000008B50378027903F077
:103F84000F013AB991B145210C4808F048FC4FF0B3
:103F9400FF3008BD082902D945210948F5E7012A5F
:103FA40004D11B0708D457210648EEE713F0080094
:103FB400EFD057210448E8E70020EAE728F00000A2
:103FC4004CF0000070F000008BF0000038B5124B8C
:103FD400044693F82430E3B105782846FFF70AFB3A
:103FE40080B1457223798372638843602078618845
:103FF40010F0080F09D14B1E0B4206D0452107488B
:1040040008F00DFC6FF0150038BD00F00DFB00202A
:10401400FAE76FF01200F7E780130020ADF000001C
:1040240038B5154B054693F824200AB393F8253088
:10403400F3B1FFF7DFFA044610B96FF0150038BD8D
:10404400837A012B0FD007D9023B012B07D900201B
:104054006369E060A361F2E700F068FFF7E72846D0
:1040640000F0E6FEF3E74521044808F0D8FBE4E756
:104074006FF01200E3E700BF80130020DAF00000C5
:1040840038B50E4B054693F8242082B193F82530B9
:104094006BB1FFF7AFFA68B115F008040AD12846EE
:1040A40000F0FAFE284601F029F9204638BD6FF0E9
:1040B4001200FBE76FF01500F8E700BF8013002043
:1040C40038B50C4B054693F824200C4662B193F89E
:1040D40025304BB1FFF78EFA48B144B1284600F0C1
:1040E400C1FE2070002038BD6FF01200FBE76FF0B6
:1040F4001500F8E78013002070B5134E044696F8B7
:104104002430C3B1FFF776FA0546B8B1230705D4C6
:10411400204600F0C1FE204601F0F0F82B7A83B966
:1041240001232B7296F825300BB9002070BD204670
:1041340001F0ACF8F9E76FF01200F7E76FF0150043
:10414400F4E76FF07700F1E7801300202DE9F043E6
:10415400DFF8F0801E4698F8243007468946154655
:1041640085B0002B6BD098F82530002B67D0030660
:104174000AD5FFF73FFA044630B1037A53B93A46F9
:104184004521314808F04BFB6FF01504204605B07B
:10419400BDE8F0834FF0FF334FF0FF3208F13800F1
:1041A40008F04CFCA37F33B108F1380008F048FC58
:1041B4006FF00A04EAE7A37AFDB173B301234FF069
:1041C4000008A377384601A9CDE90195CDF80C8004
:1041D40000F0E8FA1D4B024698422CD084F81E8069
:1041E4000EB1C6F800804521194808F018FB6FF09D
:1041F4000404184808F024FCC8E7E27F02B1E5771C
:10420400002BDBD100F098FEB842D7D000F088FE36
:10421400104808F015FC0024B8E7B8F80A30AB429F
:10422400F0D96268B5FBF2F302FB1353002BE9D11A
:104234000123E377E6E706B135600024D9E76FF0A0
:104244001204A3E78013002001F100000000AD0B6D
:1042540025F10000B81300202DE9F0411D46264B3E
:10426400174693F8242080460E46002A40D093F83F
:104274002530002B3CD010F0800F01D121B91FB1A3
:104284006FF01500BDE8F0814046FFF7B3F904462E
:104294000028F5D0037A2BB942464521174808F087
:1042A400BEFAEDE74FF0FF334FF0FF32144808F049
:1042B400C5FBE368B8469F4228BF98463EB937B964
:1042C40005B12B600E4808F0BBFB0020DAE742463C
:1042D4003046A16909F02AF8A3694344A361E3685D
:1042E400A3EB0803E360002DECD0C5F80080E9E7F8
:1042F4006FF01200C6E700BF8013002001F1000038
:10430400B813002070B5214D064695F82430002BD3
:1043140038D095F82530ABB303060AD4FFF76AF911
:10432400044630B1037A3BB932464521184808F0B7
:1043340076FA6FF0150070BD4FF0FF334FF0FF3287
:1043440005F1380008F07AFBE368B3B90126636924
:104354002677A361637F83B1FFF74AFA30B905F189
:10436400380008F06DFB6FF00B00E4E7067484601E
:104374000673FFF777F9FFF76DF9064808F060FB5D
:104384000020D8E76FF01200D5E700BF80130020AB
:1043940001F10000B813002010B5084B0C4693F847
:1043A40024302BB1FFF726F928B10460002010BD9A
:1043B4006FF01200FBE76FF01500F8E780130020A0
:1043C400014B1860704700BF8013002008B5074BED
:1043D40093F8243023B1FFF70DF920B1406808BDEC
:1043E4006FF01200FBE76FF01500F8E78013002070
:1043F40000F00F02082A08B50AD90B490B484FF4FC
:10440400D77208F07DF94FF4D771074808F06FF9B7
:10441400074B10F0800F03F1D80118BF0B4618208A
:1044240000FB023008BD00BF50F10000C1DF0000F6
:10443400501C002008B500F00F03082B0AD90849C6
:10444400084840F2C11208F05BF940F2C111044877
:1044540008F04DF9C043C0F3C01003EB001008BDD1
:1044640050F10000C1DF000008B50A4B1A78012A98
:104474000AD00949094840F2744208F041F940F26F
:104484007441054808F033F9002205491A700A609E
:1044940008BD00BFA422002050F10000C1DF0000CD
:1044A400081E002008B51F4A117801290AD01E49A8
:1044B40040F27C421D4808F023F940F27C411A483E
:1044C40008F015F94FF40060194BC3F80004C3F861
:1044D4000015D3F800140905FBD54FF40061C3F8A7
:1044E40000148021C3F81C150121C3F8301540F2D3
:1044F400FF11104B196000230F490B600F490B701B
:104504000F498968012908D007494FF49562074883
:1045140008F0F6F84FF49561D1E70A490B700223CD
:10452400137008BDA422002050F10000C1DF000078
:1045340000600350041E0020001E0020A022002062
:10454400A0020020A222002010B5104B1B78022BE1
:104554000AD00F490F4840F2DC4208F0D1F840F28B
:10456400DC410B4808F0C3F800220B4B0B4C1A70CB
:104574000B4A0C4B002808BF13463620C4F80033FE
:10458400FEF75CF90123C4F8043510BDA422002011
:1045940050F10000C1DF0000A3220020006003509E
:1045A400FDFFDF01FDFFFF01034B1878012894BFD5
:1045B40000200120704700BFA422002010B54FF056
:1045C400FF324FF0FF33154805F09EFBEFF31181E6
:1045D400202383F31288BFF36F8F114B1B7803F0F2
:1045E400FF0483B10F4BD3F8002412F400720AD1F4
:1045F4000120C3F82C05D3F82C05D3F8000480055A
:1046040002D5C3F82C25002481F31188BFF36F8FE2
:10461400024805F017FB204610BD00BFA002002091
:10462400A3220020006003504B1E0B4210B500F083
:1046340008030C460CD001071ED11B4940F26952F5
:104644001A4808F05DF840F26951174808F04FF82D
:1046540091B9020708D1144940F26B52134808F08B
:104664004FF840F26B51F0E713B1114BD3F81C35FE
:10467400FFF7BEFE848210BDA3B10D4B40F2FF32A2
:10468400D3F81C1540F2FF13802918BF13469C422F
:10469400EED9054940F26D52044808F031F840F271
:1046A4006D51D2E7402CF3E750F10000C1DF000068
:1046B40000600350F8B550B92149224840F24D42F8
:1046C40008F01EF840F24D411D4808F010F81E4B4A
:1046D4001C7894BB1D4A40F2FF1710600122264645
:1046E4001A7064F07F0514F0080FEDB214BF394658
:1046F40040212846FFF798FF2846FFF779FE01344A
:10470400092C867506730661EBD1002440F2FF176D
:10471400254614F0080FE6B214BF3946402130464E
:10472400FFF782FF3046FFF763FE0134092C8575DD
:1047340005730561EDD10648F8BD0648FCE700BFE6
:1047440050F10000C1DF0000A4220020081E002058
:104754000000AD0B0500AD0B08B543B200F00F002F
:1047640008280AD90C490D4840F2815207F0C8FFC5
:1047740040F28151084807F0BAFF002B084BB4BF40
:10478400D3F81025D3F8142501238340134214BF12
:104794000120002008BD00BF50F10000C1DF00006F
:1047A400006003502DE9F84381460C46FFF742FEB2
:1047B400EFF31188202383F31288BFF36F8F54B96A
:1047C400274940F2BC52274807F09AFF40F2BC51F7
:1047D400234807F08CFF19F00F0F03D1224B1B78ED
:1047E4004B4538D1214B01261B68214FDB433D68E3
:1047F4009BB286402B4333422FD14846FFF7F8FD46
:1048040019F0800F03460FD122686AB102F06042AA
:10481400B2F1005F08D012494FF4BA62114807F0B0
:104824006FFF4FF4BA61D3E701221A7394E80700CB
:1048340083E8070000221A619A754FF480020D4B39
:1048440035430D483D60C3F8042188F31188BFF354
:104854006F8FBDE8F8830948F7E70948F5E700BF1B
:1048640050F10000C1DF0000A2220020041E00203D
:10487400001E002000E100E00000AD0B0A00AD0BBB
:104884000B00AD0B10F0080F074B06D0D3F8C00493
:1048940010F4803F18BF0020704700F00F0000F5AF
:1048A400947053F820007047006003502DE9F04FD6
:1048B400A04BA14ED3F8542185B0DAB10022C3F83D
:1048C4005421D3F80413890214D58DF80C20D3F89D
:1048D400202503A8ADF80E20D3F8C034002B14BF54
:1048E4004FF001224FF48072336813433360934BCB
:1048F4001B6898478F4BD3F8604134B10022C3F84A
:104904006021D3F86C44C3F86C44D3F828214AB12D
:104914000022C3F828218A4B1878FFF78BFD012366
:1049240083401C43874F97F8008097F9009008F064
:104934000F03082B0AD984494FF49172834807F076
:10494400DFFE4FF49171804807F0D1FE18F00801A2
:104954007F4D40D1B9F1000F2DDA7E4A52F8230081
:1049640010B342F823101422534303F1A04303F578
:104974005833D3F80836784A03F0010311784B40D2
:104984001370764805F05EF94046FFF731FD837DEC
:10499400032B38D14046FFF74DFD012303FA00F005
:1049A4002B6823EA00032B604FF001084FF006093F
:1049B400DFF888A15DE06A4A52F823000028F3D0AA
:1049C40042F823101422534303F1A04303F5583350
:1049D400D3F80837CFE7B9F1000F564B09DBD3F80A
:1049E4005021002AE0D00022C3F85021D3F8A83780
:1049F400C1E7D3F82C21002AD6D00022C3F82C21F9
:104A0400D3F8A836B7E7037BE3B94046FFF712FDB6
:104A1400012303FA00F02B68B9F1000F23EA000325
:104A24002B6002DAB8F1880FBED106238DF80C3062
:104A340000238DF80F30414B8DF80E801B6803A8BE
:104A44009847B1E7B8F1000FAED10122394BDA64CF
:104A5400AAE794FAA4F0B0FA80F0326808FA00F3F6
:104A64001A430F28326024EA03042A6849DD1342FA
:104A740056D0002CEDD12F4BD3F800215AB1C3F8F6
:104A84000041384B03A81C702D4B1C700123039369
:104A94002A4B1B689847274BD3F85821002A6ED01D
:104AA4000022C3F85821D3F80044C3F80044E305B6
:104AB40008D501222B4B03A81A70022303931F4B22
:104AC4001B689847A00508D50022264B03A81A7036
:104AD40003230393194B1B68984761054FD5214A5B
:104AE4001378002B4BD0134BD3F82C1500293BD053
:104AF400154940F2F522154807F002FE40F2F5216F
:104B040021E71340B5D160F07F018DF80C908DF84A
:104B14000E108DF80F30DAF8003003A89847A8E794
:104B2400A0F110018DF80C908DF80E108DF80F8007
:104B3400F1E700BF00600350041E0020081E00209F
:104B4400A2220020A122002050F10000C1DF0000B9
:104B5400001E002008610350A0220020A0020020B3
:104B640030610350A322002011700122C3F80825EC
:104B74009A6504230393A74B03A81B689847A64B85
:104B8400D3F85C31FBB1A54B9B6813B93B785A064B
:104B940019D00022A04B03A8C3F85C21D3F88034B9
:104BA4009F4A23F07F0313702B6823F001132B60BB
:104BB400336823F4803343F0010333600523039304
:104BC400944B1B6898472A6833681A4200F0108196
:104BD40000220023914805F097F8002840F008814E
:104BE4008D4BD3F82C35002B00F091808B4805B009
:104BF400BDE8F04F05F026B849F0800A5046FFF7AB
:104C0400F7FB027B0446FAB14268B0F814800168ED
:104C1400904528BF904601F06042B2F1005F1CD17C
:104C24002068626840442060A068A2EB0802C307C1
:104C34004FFA8AF5626040F1A780B8F1000F40F0A6
:104C4400A68000222273A2E0764940F257327648C9
:104C540007F056FD40F2573175E6B8F1400F08D918
:104C640070494FF4C172704807F04AFD4FF4C171A6
:104C740069E642466D4808F059FB6C49D0E7226862
:104C84006AB102F06042B2F1005F08D065494FF4A6
:104C9400B272654807F034FD4FF4B27153E66268AE
:104CA400236890429DBF03EB0008121AC4F80080E9
:104CB4004FF000089CBF80466260704519460FD1D2
:104CC400003A18BF01226BB9B8F1000F5AD0554908
:104CD4004FF45A72544807F013FD4FF45A7132E6F8
:104CE4000022F0E7404543D9012202FA09F22BEAF7
:104CF400020202212A600622464BA1751B688DF828
:104D04000C208DF80EA08DF80F1003A89847336877
:104D1400D5F800B001931BEA03093FF467AF19F01B
:104D2400012314BF93FAA3F999FAA9F9B9FA89F9F5
:104D3400B9F10F0F7FF660AFA9F110035FFA83FAA0
:104D44005046FFF755FB027B0446002A3FF47CAF34
:104D54005046FFF797FDB4F814E070458FD93149F8
:104D640040F26312304807F0CBFC40F26311EAE5ED
:104D740008D02C4940F279322B4807F0C1FC40F2AC
:104D84007931E0E54FFA8AF5002A3FF45AAF012061
:104D9400019B00FA09F923EA09023260226987F8C3
:104DA40000A0424422610AF00F04082C08D91D49CE
:104DB4004FF4A4721C4807F0A3FC4FF4A471C2E59D
:104DC4001AF0080F144B16D1142202FB0432002DE2
:104DD400B5BF03EB84030A34C2F80016C2F8001707
:104DE400B5BFC2F80486C2F80487586043F82400AB
:104DF40005B0BDE8F08F002DB5BFC3F8A016C3F809
:104E0400A017C3F8A486C3F8A487B4BF58629864F3
:104E1400EEE700BF081E002000600350A00200203F
:104E2400A222002050F10000C1DF0000101C00206D
:104E340008B503070AD50849084840F2076207F095
:104E44005FFC40F20761044807F051FC044B40F456
:104E54008070C3F8180508BD50F10000C1DF0000E0
:104E640000600350030713D400F00F0310F0800F09
:104E7400084A0BBF03F5887303F5847302EB8302BE
:104E840052F8230008BF5068003818BF012070474B
:104E9400002070470060035008B503070AD509498C
:104EA400094840F2296207F02BFC40F229610548C9
:104EB40007F01DFC054BC3F80C0540F48070C3F8E3
:104EC4000C0508BD50F10000C1DF00000060035074
:104ED4000023036043600E4BD3F880240270D3F8A0
:104EE40084244270D3F88824D3F88C1442EA012233
:104EF4004280D3F89024D3F8941442EA01228280A9
:104F0400D3F89824D3F89C3442EA0323C38070472F
:104F1400006003500122014BDA64704700600350C3
:104F24000122014B1A657047006003500122014BB6
:104F34005A65704700600350014B1878704700BFF2
:104F4400A222002038B50446EFF31185202383F311
:104F54001288BFF36F8F03060AD51249124840F234
:104F6400536207F0CDFB40F253610E4807F0BFFBDC
:104F7400FFF760FA01230D4A03FA00F0136823EAED
:104F84000003136014F0080201BF04F00F04084B7F
:104F940004F5947443F8242085F31188BFF36F8FCC
:104FA40038BD00BF50F10000C1DF0000041E002026
:104FB400006003502DE9F04F044685B0EFF31187EC
:104FC400202383F31288BFF36F8FFFF711FA14F0D5
:104FD400800F0546404E2BD12046FFF72BFA4FF0A9
:104FE4000109D6F8008009FA00F030EA08000BD075
:104FF4002046FFF7A7FF0323AB7587F31188BFF3A0
:105004006F8F05B0BDE8F08F28732046FFF712FAC2
:1050140009FA00F028EA000030602046FFF70AFA97
:105024002E4A09FA00F9136823EA09031360E2E738
:10503400230715D4802C2A4B41D004F00F0202F22E
:10504400DA325200C3F80028D3F80428D3F804183D
:10505400D2B242F002020A43C3F80428D3F8043857
:10506400DFF87890D6F800B0D9F800A020466BEAB3
:105074000A0301934FF00108FFF7DCF9019B08FADA
:1050840000F00342B9D02BEA000030602046FFF75D
:10509400D1F900232B730323062208FA00F8AB7519
:1050A4008DF80F300F4B48EA0A00C9F800001B685E
:1050B4008DF80C208DF80E4003A898479DE740F228
:1050C400B472C3F80028D3F80428D3F80418D2B271
:1050D40042F00402BFE700BF001E0020041E0020AF
:1050E40000600350081E002038B50446094D4FF0F7
:1050F400FF324FF0FF33284604F006FE2046FFF748
:1051040059FF284604F09EFD4FF48002024BC3F879
:10511400042138BDA002002000E100E02DE9F041A7
:10512400394D2B7853B9394940F2BA42384807F01F
:10513400E7FA40F2BA41354807F0D9FA4FF0FF33A5
:105144004FF0FF32334804F0DFFD2B78022B08D0F8
:105154002E4940F2FC422E4807F0D2FA40F2FC41BC
:10516400E9E74FF480022C4B3620C3F88421FDF785
:1051740087FBA0B14FF00108284F294B3C681B68FE
:10518400240C24041C4354BB40F2FF13254E3B6003
:105194003620C6F80445FDF75FFBC6F80043224AF3
:1051A40013788BB100211F4BC3F808110121C3F8F8
:1051B4000026C3F804165960D3F808110029FBD05F
:1051C4000021C3F8081111700022164BC3F8002502
:1051D400104804F037FD01232B70BDE8F08194FAE8
:1051E400A4F6B6FA86F630460F2EC6BFA6F1100016
:1051F400C0B240F08000030701D4FFF7DBFE08FAD9
:1052040006F624EA0604BEE7A422002050F10000BA
:10521400C1DF0000A002002000E100E0041E002025
:10522400001E002000600350A022002010B5044698
:105234004FF0FF324FF0FF33114804F065FD204674
:10524400FFF7B8FE012304F00F029340DB430D4A3D
:1052540014F0800F15BFD2F81015D2F814150B40B6
:105264000B4014BFC2F81035C2F81435044804F0DA
:10527400E9FC4FF48002044BC3F8042110BD00BFC5
:10528400A00200200060035000E100E070B5044675
:10529400FFF762FA68B9012504F00F0214F0800FD9
:1052A400144B05FA02F205D0D3F810150A43C3F8DB
:1052B400102570BDD3F814150A43C3F81425631ED2
:1052C400062BF6D8EFF31186202383F31288BFF35D
:1052D4006F8F2046FFF736FE2046FFF7ABF8064AED
:1052E4008540136823EA0503136086F31188BFF32E
:1052F4006F8FDEE700600350001E0020020710B528
:1053040004460AD50B490C4840F20F6207F0F8F93D
:1053140040F20F61074807F0EAF9030605D4FFF7E6
:10532400A1FD10B12046FFF70DFE044BC3F818454C
:1053340010BD00BF50F10000C1DF00000060035049
:1053440037B540230C460A490093411A49110546D2
:105354002346084A084807F0B4FB011E05DA28462C
:10536400234603B0BDE83040184703B030BD00BF4A
:10537400201E002033CB000018D50000C9B2032939
:1053840008B508D9084909487F2207F0B9F97F21EF
:10539400054807F0ACF90C22036901FB0233D3F88A
:1053A400880000F0070008BDA8F10000C1DF00007C
:1053B40070B5C9B2032903690AD91949194840F2D9
:1053C400D11207F09DF940F2D111154807F08FF979
:1053D400EFF31185202484F31288BFF36F8F0C261A
:1053E40006FB0134D4F8884014F0C00408D0A2426B
:1053F40006D085F31188BFF36F8F4FF0FF3070BD77
:10540400012271430B44C3F8882085F31188BFF34C
:105414006F8F43680B445B6898470020EFE700BF39
:10542400A8F10000C1DF000070B50D46064904462E
:10543400411A491140220548FFF7BAFF2B4601469D
:105444002046BDE870401847201E002018D50000F3
:105454002DE9F8430022012106460520FDF71EFA36
:10546400114802F053FA114B984219D102F05EFA36
:1054740000244FF00C080127DFF8349035694946C1
:1054840005EB441007F0A6F9002807DB08FB0455D8
:105494000134042CC5F88870F0D10020BDE8F883ED
:1054A4006FF00400FAE700BF755500000000AD0B73
:1054B40074DA00001FB500220123CDE902236B46F4
:1054C400084ACDF800D0CDF804D007F029FB002815
:1054D40005DB4FF480420023684604F015FC05B058
:1054E4005DF804FB63CB000010B5EFF311842023B7
:1054F40083F31288BFF36F8F074A136823F0020106
:10550400DB07116002D4012002F0BEFA84F3118893
:10551400BFF36F8F10BD00BFD01E00200C22124BB2
:10552400014602FB0033002030B4D3E92052C3F813
:105534008000EFF31180202484F31288BFF36F8F6F
:10554400D3F8884004F0C00444F00204C3F888404F
:1055540080F31188BFF36F8F1DB12B4630BC034815
:10556400184730BC704700BF201E002018D500002B
:1055740008B5092821D8DFE800F0051320202020F1
:105584002015110F124BD3F8880010F007001DD11D
:10559400BDE80840FFF7C2BF0220F9E70320F7E7A0
:1055A4000120F5E70B494FF43D720B4807F0A8F8CA
:1055B4004FF43D71074807F09AF806494FF44172D9
:1055C400054807F09DF84FF44171F3E708BD00BFAB
:1055D400201E0020A8F10000C1DF000010B4EFF38A
:1055E4001182202383F31288BFF36F8F1848016858
:1055F40041F002040460C80707D482F31188BFF3A2
:105604006F8F012010BC02F0BDB94FF05021D1F8CA
:105614000C04D1F80C14C907EFD5EFF3118083F310
:105624001288BFF36F8F0B49D1F8883003F0C003A1
:1056340043F00203C1F8883080F31188BFF36F8F01
:1056440082F31188BFF36F8F002010BCFFF766BF91
:10565400D01E0020201E0020024BC0B203EB4010DD
:10566400704700BF201E00202DE9F04101220646AC
:105674004249D1E8EF3FC1E8E02F0028F9D19BB9B6
:105684003F4940484B60CB608A60FBF729FB002808
:105694000ADA3D494FF429723C4807F031F84FF4D7
:1056A4002971394807F023F876B3731E012B5BD8B0
:1056B400012E07D14FF05023D3F81C3403F0030319
:1056C400022B21D007F065FD0546F8B9304B1B7855
:1056D400E3B14FF0502302220746C3F808234FF0EA
:1056E4005024DFF8B080D4F81824D4F81834D20346
:1056F40015D503F00303022B01D0012E0FD16DB396
:1057040087F31188BFF36F8FBDE8F081EFF3118742
:10571400202383F31288BFF36F8F0125DFE7C5B120
:10572400384607F0EEF8D4F81835DBB2012BDAD19D
:10573400D4F80421002AD6D00022C4F80421D4F8D5
:1057440004210222C4F818252022C8F88021A3606D
:10575400C9E70021212005F00DFCE4E74FF05023B8
:105764000222C3F80423CFE7074940F2B6220748D0
:1057740006F0C6FF40F2B62193E700BF1C1E0020CE
:105784000C1E0020401E0020A8F10000C1DF000014
:105794006423002000E100E008B5074807F037FC67
:1057A40038B10648FDF772FB0448FBF787F8002080
:1057B40008BD6FF01200FBE778D50000C557000064
:1057C4000A2838B50446074D04D1AB680D21284694
:1057D4005B689847AB6803485B68E1B2984720462A
:1057E40038BD00BF78D5000010B5036941B91C4924
:1057F4003F221C4806F084FF3F21194806F077FF3A
:10580400486830B916494022164806F079FF40210D
:10581400F3E75868F8B1884219D19C680868A14236
:10582400586000D19860002008602AB15A680A6064
:105834009A68596002B99960002010E0814206D14B
:105844000868206098688142EDD19C60EBE70446CB
:1058540000680028F2D1002AE8D16FF0150010BDCD
:105864001FF20000C1DF000008B5036802465909B1
:1058740013D0012906D14FF6FF7103F01F03D9405D
:10588400C80711D40A490B4840F2CA3206F038FF5F
:1058940040F2CA31064806F02AFF4FF0FF31D940E2
:1058A400C907EFD5044800E00448136008BD00BFF1
:1058B40045EB0000C1DF000000258450002884501F
:1058C400F0B5406801F01F04057B87B044EA451435
:1058D4000569002D76D0B2F5001F00F1100506D140
:1058E4002146284607F07AFB002007B0F0BD0027C8
:1058F400B2F5800F01AE0197776033D1B3F1007F29
:1059040014BF052304238DF804300023CDE9046378
:1059140003938368CB40D90739D4B2F1A07F36D141
:1059240068460094FFF7A0FF009B803350F82330B3
:10593400DB072CD46A462146284602F0C7FB244BD9
:1059440098421AD0CDF808D02146284603AA02F07E
:105954007DFA204B984238D101222146284602F094
:1059640043FCC1E7B3F1C06F05D0B3F1007F14BFAE
:1059740001230223C7E70323C5E76946284602F04B
:105984002BFC144B9842DDD06FF00B00ADE76A4658
:105994002146284602F09AFB0E4B06469842D3D184
:1059A40028469DF8001002F00FFCB042CCD00A4902
:1059B4000A4840F2E11206F0A3FE40F2E111064863
:1059C40006F095FE6FF085008FE76FF015008CE709
:1059D4000400AD0B0000AD0B5BF20000C1DF000062
:1059E4002DE9F043466840F20635337BD00601F0DA
:1059F4001F0747EA431748BF032302EA050558BFB8
:105A0400C2F3401387B0B5F5837F14468DF8033095
:105A140043D00FD8062D18D007D8B5B1022D3ED0EB
:105A24006FF0150007B0BDE8F083B5F5807FF7D1BE
:105A340001250AE040F20222954232D0B5F5407FBA
:105A440031D0B5F5007FEBD1022522032DD50123FA
:105A540072688B409360336973BB03A80397FFF7A5
:105A640003FF039B00EB830084F48033C3F3004300
:105A7400C4F34044D0F8002244EA43049DF80330C0
:105A840022F4706244EA830422F00F0244EA0523FC
:105A94001343C0F800320020C4E70725D5E70425E6
:105AA400D3E70525D1E70325CFE7630341BF0123EE
:105AB40072688B40D360CEE71036394630460DF11C
:105AC400020202F003FB14F4403F804616D139462B
:105AD400304607F081FA244B9845DCD130469DF8D6
