:020000040000FA
:10000000A0390020BD2700003FCB0000A927000039
:10001000A9270000A9270000A9270000A9270000A0
:100020000000000000000000000000002129000086
:10003000A927000000000000B9280000A92700003F
:10004000C52A0000C52A0000C52A0000C52A0000F4
:10005000C52A0000C52A0000C52A0000C52A0000E4
:10006000C52A0000C52A0000C52A0000C52A0000D4
:10007000C52A0000C52A0000C52A0000C52A0000C4
:10008000C52A0000C52A0000C52A0000C52A0000B4
:10009000C52A0000C52A0000C52A0000C52A0000A4
:1000A000C52A0000C52A0000C52A0000C52A000094
:1000B000C52A0000C52A0000C52A0000C52A000084
:1000C000C52A0000C52A0000C52A0000C52A000074
:1000D000C52A0000C52A0000C52A0000C52A000064
:1000E000C52A0000C52A0000C52A0000C52A000054
:1000F000C52A0000C52A0000C52A0000C52A000044
:10010000C52A0000C52A0000C52A0000C52A000033
:10011000C52A0000C52A0000C52A0000C52A000023
:10012000C52A0000C52A0000C52A0000C52A000013
:10013000C52A0000C52A0000C52A0000C52A000003
:10014000C52A0000C52A0000C52A0000C52A0000F3
:10015000C52A000053B94AB9002908BF00281CBFAE
:100160004FF0FF314FF0FF3000F00CB8ADF1080C4C
:100170006DE904CE00F01AF8DDF804E0DDE90223B1
:1001800004B07047704700BF10F8012B11F8013B15
:10019000012A28BF9A42F7D0D01A7047034613F8B5
:1001A000012B002AFBD1181A013870472DE9F047BE
:1001B00086468C460846089E154674461946002B0E
:1001C00040F0C1808542B2FA82F245D94AB1C2F10B
:1001D000200300FA02FC954094402EFA03F343EA10
:1001E0000C0C4FEA154EA8B2230CBCFBFEF80EFB1C
:1001F00018CC08FB00F943EA0C43994528D9EB18C1
:1002000008F1FF3704D2994502D9A8F102072B441F
:10021000A3EB0903A4B2B3FBFEFC0EFB1C330CFBE7
:1002200000F044EA0344A04214D92C190CF1FF3326
:1002300004D2A04202D9ACF102032C44241A43EAAE
:1002400007401EB1D440002334607360BDE8F087DE
:100250004746DDE76346F1E792BB431B01214FEAC6
:10026000154EAFB2200CB3FBFEFC0EFB1C330CFB97
:1002700007F840EA0343984561D9EB180CF1FF30C9
:1002800004D2984502D9ACF102002B44A3EB080339
:10029000A4B2B3FBFEFC0EFB1C330CFB07F744EAD5
:1002A0000344A7424DD92C190CF1FF3304D2A742C5
:1002B00002D9ACF102032C44E41B43EA0040C0E73E
:1002C000C2F120039540944020FA03F12EFA03F383
:1002D0004FEA154E9040AFB20343B1FBFEFC0EFB5C
:1002E0001C10190C0CFB07F841EA0041884522D983
:1002F00069180CF1FF3004D2884502D9ACF1020034
:100300002944A1EB08019BB2B1FBFEFC0EFB1C11C2
:100310000CFB07F743EA01439F420ED9EB180CF19F
:10032000FF3104D29F4202D9ACF102012B44DB1B06
:1003300041EA004193E76046E3E76146F7E760463C
:10034000A4E76346B8E7834206D916B900210846F8
:100350007CE7C6E900E0F9E7B3FA83F78FB9834297
:1003600001D3724508D8BEEB020460EB0303012001
:100370009C461EB9002169E73846FAE7C6E9004CF9
:10038000F8E7C7F1200CBB400EFA07F522FA0CF48F
:100390002EFA0CF1BA401C4320FA0CF3B8404FEA95
:1003A000144901431FFA84FEB3FBF9F809FB183026
:1003B0000B0C08FB0EFA43EA00439A4540D9E318B8
:1003C00008F1FF3004D29A4502D9A8F10200234473
:1003D000A3EB0A0389B2B3FBF9F809FB183308FB56
:1003E0000EFE41EA03418E452CD9611808F1FF3316
:1003F00004D28E4502D9A8F10203214443EA004009
:10040000A1EB0E01A0FB02984145CE46434602D324
:1004100006D14D4504D20138B9EB020E68EB040356
:10042000002EA7D0B5EB0E0261EB030101FA0CFC24
:1004300022FA07F3F9404CEA0303C6E9003199E7D1
:100440004046C5E74346D9E72DE9F0414379012B02
:100450004FD1C5888468284603F0C0F8074628466F
:100460000CF0F5FB002F44DB234D00212B68CCB9A9
:10047000224EFAB230469C420FD016F8011B914230
:1004800004F1010131D15E1E321B0144B44288BF28
:10049000002220440DF0A8F82E600022184B1A709C
:1004A0005A700BE0052B98BF5C1C154A9CBF2C6052
:1004B000124C117098BFE7545170C0B900232868DE
:1004C000104A0E4C984294BF0021E15C0133062B88
:1004D00002F8011FF6D10C4808F038FEBDE8F041E3
:1004E00000230822064902F0F7BF0C46C3E710704C
:1004F000E4E7BDE8F08100BFC80D0020982300208C
:100500009E2300209F2300203EE1000010B51348E9
:1005100008F01CFE044618B911480CF028FA10BD6A
:10052000104900233F2202F0C1FF20460CF085FB5A
:10053000014618B10C480CF01AFAF0E701F046FA3F
:10054000014608B10948F6E709480CF010FA4FF0E7
:10055000FF314FF0FF300AF073FEF8E73EE1000094
:1005600044E10000DAE1000063E1000091E10000F5
:10057000B7E1000070B586B045680646122200213A
:100580000DF106000DF04AF8EA691A4BB3FBF2F3DD
:1005900010220293AB688DF8042003936B6802224B
:1005A00004934FF47A738DF80520059328688368C7
:1005B00001211B6801AA9847041E06DB0023297B42
:1005C000DAB2914209D8002404E0224645210A48C3
:1005D0000CF072FA204606B070BD6A69D25C013335
:1005E000042AEDD94521326804480CF065FA6FF011
:1005F0001504EFE740420F001EE200003DE200005C
:100600002DE9F34745680C46164600234FF4A02217
:10061000A86801A995F8247095F8258095F826908A
:1006200008F080FF021EC7F1000709DA45213F48A4
:100630000CF042FA6FF00B04204602B0BDE8F087E0
:100640002146019806EB860640F8047B26448E423C
:100650004BD10023298B9AB2914248D828686A6806
:1006600083680199DB689847041E44DA0199A868F9
:1006700008F0CAFF224645212D480CF01DFADBE7A1
:100680006B699B5C042B29D8DFE803F0240320224C
:1006900026000A784FF0080C4FF0800E002312EA73
:1006A0000E0F0CBFCA46C246BCF1010C4AEA031346
:1006B0004FEA5E0EF3D187EA334340F8043B01343E
:1006C0002B7BE2B29342DBD80531C0E74A78E1E701
:1006D0008A78DFE7CA78DDE70A79DBE70199A8685D
:1006E00008F092FF6FF01504A6E70024E8E740F851
:1006F00023700133AEE728688368002201211B695B
:100700009847041E98DB28688368022201211B6930
:100710009847041E90DBD5E907206B689B0802FB15
:1007200003000AF0B7FD002486E700BF5DE2000089
:100730007CE2000070B589B30668012230460BF0F8
:100740007BFF0146044630460BF03EFFC30708D44A
:100750001349AF2213480CF020F9AF2110480CF0D8
:1007600013F9214630460BF045FF25182946002293
:1007700030460BF029FF2D1AAC4206D00849B722AB
:1007800008480CF00AF9B721E8E7214630460BF09B
:1007900037FF2146BDE870400CF073B870BD00BF54
:1007A000B0E20000D3E200002DE9F8430F460668EE
:1007B0001446B2684B1EB2F5004F34BF0421082125
:1007C0003B4010D0C7F1000909EA0709494503F188
:1007D000FF3028BF494618420CD11F46BCB900253E
:1007E0002846BDE8F8838F420FD82146BDE8F8437C
:1007F0000CF089B82C492D484FF4A2720CF0CDF8BA
:100800004FF4A27128480CF0BFF89946E6E7B2EB26
:10081000D40FE4D9E319591A10460BF017FF01461B
:1008200030460BF06DFF80460028D8D0B36809EB46
:10083000C005B3F5004F34BF042308231D443544DD
:100840007B1E1D44B5FBF7F57D43A5EB0905294645
:1008500030460BF0F1FE2C44073424F00704A41BAF
:10086000804507464FEAE40408D202464146304636
:100870000BF080FF414630460BF0C1FF3946304651
:100880000BF0B8FE3844844208D23946304622463E
:100890000BF070FF214630460BF0B1FF01223946C4
:1008A00030460BF0ADFE9BE7B0E20000D3E2000063
:1008B000B2F5802F2DE9F0410CD2042A20D83D4911
:1008C0004FF4F9723C480CF068F84FF4F97139486C
:1008D0000CF05AF80823D21ACC1D114424F0070456
:1008E00021F00701091B17294FEAD1060AD831491F
:1008F00040F2FB1230480CF050F840F2FB11E6E7F2
:100900000423E8E70027046031463046A660E7602C
:100910000BF0A5FE0121421D804630460BF096FEED
:100920009200D51DED082844B0423AD8B8F1FF3FF7
:100930003946A2F1100204F11000B8BF3A460CF09B
:100940006DFE2A46394620460BF072FE3B463A467B
:10095000394620460BF043FEA6EB050820463946F3
:1009600001220BF04DFE424629460BF061FE2B465C
:100970003A46294620460BF032FE314620460BF01F
:1009800057FE43463A46314620460BF028FE314694
:10099000204601220BF034FE2946BDE8F0410BF061
:1009A0002EBF04494FF4037203480BF0F6FF4FF4D7
:1009B00003718CE7B0E20000D3E20000014B1B683A
:1009C000184700BF00000020014B1860704700BFAF
:1009D0000000002030B585B004460D4610220021ED
:1009E00068460CF01BFE02238DF80230044B2A46A9
:1009F0002146684601930BF089FB05B030BD00BF6E
:100A0000BD09000080B505460E46174698460AF017
:100A1000A7FC03460CF07CFE0446DFF81890424623
:100A200049F8003039463046A84754F8090001F02B
:100A30002DFF00BF08000000044608B5EFF3118346
:100A4000202383F31288BFF36F8F06F0FFFE20464A
:100A500002F0CAFB02480BF08AFF0CF086F8FCE7B4
:100A6000FCE200002DE9F84F0446A38B0846190765
:100A7000164612D4022803F0070162D120460BF07B
:100A8000B4FF88B10138042800F22581DFE810F0B6
:100A9000590023017E00C800F50001280CBF43F077
:100AA000100143F02001A18304F114000AF060FE5C
:100AB000002800F0AB8086F31188BFF36F8FBDE88C
:100AC000F88F03F00702501F01281ED80020062AC5
:100AD0002768C4E9000014D13A4603E0E08B0130F6
:100AE000E0831268002AF9D123F0070343F00202E1
:100AF0002046A2830BF079FF90B342F02002A2833C
:100B00002EE023F007039AB2F2E7042A33D123F050
:100B100007039AB22046A2830BF067FF10B142F0A0
:100B20002002A283A38B03F00709894540F0DC80F3
:100B3000A18BCA0640F1218121F01003A38301F0AB
:100B40000701D4F81880A38BB8F1000FB9DA00229E
:100B5000276823F00703C4E9002243F00103A383BD
:100B6000A38B03F00709894540F0BF80002FDFD039
:100B70000025AA4640E0854940F21B1284480BF04C
:100B80000CFF40F21B1181480BF0FEFE41B17F4982
:100B90004FF4AB727E480BF000FF4FF4AB71F2E7FD
:100BA000236843B9794940F2571279480BF0F5FEB2
:100BB00040F25711E7E723691D6845B973494FF4BF
:100BC000AD7273480BF0E9FE4FF4AD71DBE70F46F1
:100BD00088464FF00609A38B23F0070343F0060372
:100BE0009BB2A383A268002A40F08180002F40F0CE
:100BF0008180002D9CD0BA4643F0080304F1140B09
:100C00005846A3830AF0B4FD002875D1614940F22B
:100C100031125F480BF0C1FE40F231115D48B3E77D
:100C2000022908D0594940F25D1259480BF0B5FE2F
:100C300040F25D11A7E7E78B47B154494FF4AF721B
:100C400053480BF0AAFE4FF4AF719CE723695D682F
:100C500045B94E4940F261124D480BF09EFE40F2FC
:100C6000611190E7A38BB84623F0070343F0040318
:100C70009BB24FF00409A383B4E7012908D043498C
:100C80004FF4B27242480BF088FE4FF4B2717AE72B
:100C9000236843B93D4940F265123D480BF07DFEA3
:100CA00040F265116FE723699D6845B937494FF4F4
:100CB000B47237480BF071FE4FF4B47163E700274C
:100CC000A38BB84623F0070343F005039BB24FF014
:100CD0000509A38386E72D4940F26B122C480BF0DF
:100CE0005CFE40F26B114EE7002700257AE74FF0DB
:100CF000010A81E792467FE786F31188BFF36F8F81
:100D0000BAF1000F16D147BB15B120462249A847BA
:100D1000EFF31186202383F31288BFF36F8F5846B9
:100D20000AF018FD08BB1B49882219480BF035FE54
:100D3000882173E7A1680029E5D00E680029E2D078
:100D400043464A462046D1F804A0D0471EB1336836
:100D500031461E46F2E73346FAE7394643464A46ED
:100D600020463F680BF06DFECDE758460AF016FDB1
:100D7000A38B23F00803A383DAE68B067FF594AEFA
:100D800021F02003A38301F0070177E625E30000AB
:100D9000D3E200004AE300009D0D0000F8B50446D0
:100DA0000D4600F11406EFF31187202383F3128818
:100DB000BFF36F8F30460AF0CDFC40B909490A48AD
:100DC00088220BF0EAFD882106480BF0DDFD304655
:100DD0000AF0E4FCA5613A462046BDE8F84001214E
:100DE000FFF740BE4AE30000D3E200002DE9F047E0
:100DF00004460F460BF015FE051E5DDB04F11409D9
:100E0000EFF3118A202383F31288BFF36F8F4846D4
:100E10000AF0A0FC804638B93349882233480BF0E9
:100E2000BCFD882130483CE048460AF0B7FC4FF64C
:100E3000FF72E38BA68B934206F007063FD0022E8B
:100E400010D135460133E38348460AF091FC00286F
:100E50003BD1254940F2311224480BF09EFD40F26F
:100E60003111DFE7062E13D8DFE806F0092C121245
:100E7000090409006FF085054FF00008E4E700233E
:100E80003B6063687BB9C4E900777EB13546F3E720
:100E9000174916484FF4E4720BF07FFD4FF4E471EC
:100EA00013480BF071FD1F606760EEE752460221A8
:100EB0002046FFF7D7FD35462846BDE8F0876FF09E
:100EC0000A05D9E76FF00405D6E78AF31188BFF366
:100ED0006F8FB8F1000FEFD000233246394620461D
:100EE0000BF0AFFDE8E700BF4AE30000D3E20000EB
:100EF00025E30000F8B5054600F11406EFF311876D
:100F0000202383F31288BFF36F8F30460AF022FC50
:100F100038B92049882220480BF03FFD88211D4820
:100F200025E030460AF03AFCAC8B04F00704022CB2
:100F300012D0012C0CBF6FF004046FF08504304612
:100F40000AF016FC08BB134940F2311212480BF0AC
:100F500024FD40F23111E2E7EB8B53B90F490E4803
:100F600040F2EF120BF019FD40F2EF110B480BF0BD
:100F70000BFD013B9BB2EB83002BE0D13A462146AF
:100F80002846FFF76FFD2046F8BD87F31188BFF3B1
:100F90006F8FF8E74AE30000D3E2000025E300008A
:100FA0002DE9F0410E460546002845D0002943D0E2
:100FB00000F11407EFF31188202383F31288BFF3A5
:100FC0006F8F38460AF0C6FB38B91D4988221D4884
:100FD0000BF0E3FC88211A4816E038460AF0DEFBE5
:100FE00031462846AC8B0BF0E5FC78B104F00704E1
:100FF000231F022B0CD91449124840F22D220BF06A
:10100000CCFC40F22D2110480BF0BEFC6FF07704B1
:1010100038460AF0ADFB40B9094940F2311209489F
:101020000BF0BBFC40F23111D5E788F31188BFF318
:101030006F8F2046BDE8F0816FF01504F9E700BF1F
:101040004AE30000D3E2000025E3000008B542684F
:10105000034602F00302032A816002D02AB1002075
:1010600000E0006800225A6008BD04490448452297
:101070000BF093FC452101480BF086FC77E3000060
:10108000D3E20000014B0360002070476CDC0000DD
:101090002DE9F04705460E461746184CDFF86080EC
:1010A000DFF86090444524D9174918484FF4BB62D3
:1010B0000BF073FC4FF4BB6113480BF065FC6268E6
:1010C000D9F824309A4212D3A36983B19078297950
:1010D000884205D13A4631462846BDE8F0471847D0
:1010E0005279012A03D13A4631462846984724349A
:1010F000D8E7E4D36FF08500BDE8F087C80300208F
:10110000EC030020CC0D00209DE30000D3E20000A2
:101110002DE9F041124B134F5E6A134BBB421AD9B3
:101120001249134840F2BB520BF037FC40F2BB515E
:101130000E480BF029FC5D68B5420AD31C6944B126
:1011400095F802C00579AC4503D12346BDE8F041CE
:1011500018472433E2E7EED36FF08500BDE8F08155
:10116000CC0D0020EC030020C80300209DE300000C
:10117000D3E200000022024B1A605A60704700BFA1
:10118000870E002010F0700F08B5024600F07F03B4
:1011900005D0074845210BF08FFC002008BD10F05A
:1011A000800F4FF0010018BF10339840F6E700BFE2
:1011B000CFE3000038B505460BF088FD10F1780F3D
:1011C000044610D12A4657210B480BF075FC2846DF
:1011D000FFF7D8FF094A0024D2F8C43023EA0003FD
:1011E000C2F8C43006E00028F1D02A464521044860
:1011F0000BF062FC204638BDEFE30000CC0D002070
:1012000015E400002DE9F04105460E461746104C46
:10121000DFF84080444516D90F4910484FF4C162A9
:101220000BF0BBFB4FF4C1610B480BF0ADFB6369E6
:101230000BB92434EEE73A46314628469847002851
:10124000F7D1BDE8F081F2D36FF08500F9E700BF78
:10125000C8030020EC0300209DE30000D3E200005F
:10126000430670B51CD0114B114CA3421AD9114939
:1012700011484FF47D720BF090FB4FF47D710D48D7
:101280000BF082FB0022196A1E7F0439D5B2AE42F0
:1012900001D82433E9E7013211F832508542F5D103
:1012A000012001E0EED3002070BD00BFC803002084
:1012B000EC0300209DE30000D3E2000008B50948DC
:1012C0000378C3F341130A3350F823303BB100F1E4
:1012D000080200F110019847C043C00F08BD18462E
:1012E000FCE700BFCC0D002004282DE9F74F044691
:1012F0000F46DFF8C49016D0012830D1DFF8BC804B
:1013000098F8B9305BB300F059FE2D4D4D4532D9F8
:101310002C4940F2C2422C480BF03FFB40F2C24144
:1013200028480BF031FBFFF725FFE7E702EBC60685
:10133000307901920BF0CAFC83463079FFF722FF27
:10134000D8F8C430BBF1000F23EA0003019AC8F8B3
:10135000C4300AF1010A12DA002388F8B930184DB6
:101360004D451BD9174940F2EE4217480BF015FBCB
:1013700040F2EE41D4E7EFD24FF0000A2A6A2B7F09
:101380005FFA8AF6B342D1D82435BFE7EB681BB1C8
:101390003A462146284698472435E1E7F6D3074BDD
:1013A0001B6A2BB13946204603B0BDE8F04F184701
:1013B00003B0BDE8F08F00BFEC030020CC0D00208F
:1013C000C80300209DE30000D3E20000F7B5C4B2DB
:1013D00020460F468DF80740FFF742FF0546B0B1A3
:1013E00014F07F0F134E02D096F8BA3003B32246A2
:1013F00049217FB110480BF05FFB9DF8070002F018
:1014000061FEF3691BB108200DF1070198472846DA
:1014100003B0F0BD09480BF04FFB9DF8070002F048
:1014200081FEF369002BF2D009200DF10701EDE7F1
:101430001D46ECE7CC0D00203CE4000054E4000025
:1014400073B5044680782A4D8DF8000023796279BF
:1014500043EA0223ADF80230E37803F003038DF88A
:101460000430FFF78FFED5F8C430064618420CD082
:10147000A478204600F084FD2046FFF79BFE0BF089
:10148000D9FF10B9962009F005FF684602F0F0FD7B
:1014900010F1780F9DF8002019D1572115480BF055
:1014A0000BFB9DF8000002F079FE10F1780F17D1C8
:1014B00057219DF8002010480BF0FEFA0120D5F8C6
:1014C000C43085F8B9003343C5F8C43006E00028BD
:1014D000E7D0452109480BF0EFFA002002B070BDBB
:1014E0000028EBD045219DF800200548F3E700BF18
:1014F000CC0D00206EE40000BFE4000096E4000084
:10150000E4E400002DE9F047A34E0446B3690F461A
:101510001546FBB9237803F01F03012B00F09D80D3
:10152000022B00F0048133BB94F900002A680028E4
:10153000617834DA062912D008292BD0D9B90123D1
:101540005170137096F8C3305B0043F001031370C1
:1015500002232AE198470028DCD100200DE06288B0
:10156000100A011F0129844605D9072803D8716A8A
:10157000D2B20C781CB96FF01500BDE8F0874E7838
:10158000664503D19A4200F00B8101332144F0E714
:101590000B780AE196F8BA301370012305E101399E
:1015A0000829E8D801A353F821F000BF4516000030
:1015B000771500005316000077150000D1150000C4
:1015C000771500007715000077150000DD15000085
:1015D000A07802F0FDFC0028BFD0CCE76388756AD4
:1015E00063BBFFF7C7FD638886F8BA30F369002B49
:1015F000B3D0032069499847AFE76B78042B10D02C
:10160000052B11D0022B04D16F796388BB4208BF30
:1016100001202B781D442B78002BEED10028AAD076
:10162000DFE795F80380F4E76388BB42F1D1B8F1B6
:10163000000FEED12846FFF703FFEAE7FF2700205F
:10164000B846E8E76388012B95D1002386F8C330BC
:1016500083E76388012B8ED1F8E796F8BA30D5F886
:1016600000C0002B87D0756AA3882A4694F804E04E
:10167000107800283FF47FAF5178022904D192F806
:101680000480F04500F293800244F1E78CF80020DA
:101690008CF80120396060E7154494E00B2A7FF450
:1016A0006AAF00274FF0FF08BA46C14606E06B78E4
:1016B000042B0FD0052B21D02B781D442B78002B29
:1016C000F5D1F36913B1514607209847002F7FF4F5
:1016D00044AF50E795F80280A38895F803909845A9
:1016E000EAD163889945E7D1B8F1070F1CD806EB1A
:1016F0000803AA46012783F8BB90DDE7A38843458A
:10170000DAD1A3784B450AD0AF78384600F038FCE0
:101710003846FFF74FFDB0FA80F77F09CCE728463F
:10172000FFF78EFE0746C7E7AA460027C4E794F9ED
:1017300000206378002A18DA002B7FF41CAF24798C
:101740002D682046FFF78CFD00283FF414AF630698
:1017500004D096F8BA30002B3FF40DAF294620464E
:1017600002F000FD00236B70F2E6012B08D0032B82
:101770007FF401AF6388002B7FF4FDAE012103E00D
:10178000618800297FF4F7AEA088FFF71FFE0028CC
:101790007FF4E3AEEFE600BFCC0D0020860E002004
:1017A000022829607FF4F4AE4B883B60D5E694F9BB
:1017B000000062780028BFF671AF002A3FF466AFE0
:1017C0000A2A7FF4D8AE2A78002A3FF4D4AE69788A
:1017D00004297FF461AFA9788B427FF45DAF072BBA
:1017E0008EBF00239B1993F8BB308CF80030D4E6F1
:1017F0002DE9F04705460F46904699460426DFF846
:1018000030A04B4642463946284602F0F1FC10F122
:101810000B0F044608D12A46572150460BF04CF9CD
:1018200009F026FC013EECD12046BDE8F08700BF60
:101830000AE5000013B5164C237DF3B9E26801AB4D
:101840008020A1680192FFF7D3FF019AA368134497
:10185000A360E3689B1AE3606BB962B12369E28815
:101860009A4208DD94F8C82093FBF2F102FB113391
:101870000BB90123237502B010BD002380201A4646
:101880001946237502B0BDE8104002F0B1BC00BF9C
:10189000CC0D00207FB500230D460646019300289D
:1018A00061D1002939D108220B460DEB02010BF062
:1018B00026FA002803DA802002F004FC1EE0344CF3
:1018C000029AC4E903552260039ABDF80E306260A3
:1018D00004F13802A2609DF908202575002A0FDB6B
:1018E000802B08D945212B480BF0E6F8802002F028
:1018F000E9FB2846E0E71BB1C4E9033304B070BD3F
:10190000FFF7DCFC0028D6D0E28823699A42D4BFD6
:10191000E260E360FFF78EFFF0E71D4C01ABD4E916
:101920000212002A05DC02460BF0E9F90028E5DA8C
:10193000C1E70BF0E4F9002804DA802002F0C2FBD2
:101940003046B9E7019AA3681344A360E3689B1A81
:10195000E360002BD2D104F13803A360FFF7AEFCA3
:101960000028D7D1A7E7802807D1094BDA68002AD9
:10197000D0D11B7D002BCDD1C0E7074907484FF4DC
:10198000C5720BF00AF84FF4C57103480AF0FCFF6A
:10199000CC0D002036E500009DE30000D3E20000FE
:1019A000054B064A58629A62054A0020DA62054AE7
:1019B0001A63054A9A617047CC0D00200515000096
:1019C0001111000005120000911000002DE9F341F3
:1019D0000446514D4FF0FF334FF0FF324F4808F0AF
:1019E00041F895F8B83063B157214D480BF064F8D1
:1019F0006FF07704494808F0EBF8204602B0BDE8E4
:101A0000F0816B6A63B900F0E1F8FFF7C9FF6B6A18
:101A100033B9452143480BF04FF84FF0FF34E9E765
:101A200041482C62E8616E6A02F01CFD02F09EFAE9
:101A3000041EDFDB00F0E4FA041EDBDB7378012B0D
:101A400001D1F37933B9452138480BF035F86FF0FF
:101A50001504CFE70026684685F8C830ADF8023097
:101A60008DF804608DF8006002F002FB041EC1DBFB
:101A7000802768468DF8007002F0FAFA041EB9DB80
:101A800030462B4902F0DAFC041EB3DB3846284905
:101A900002F0D4FC041EADDB264CDFF89C804445EC
:101AA0001DD9264926484FF4C3620AF076FF4FF449
:101AB000C36122480AF068FF0026276A227FF3B23A
:101AC0009A4201D82434EAE707EBC30257F83310EF
:101AD000107902F0B3FC01360028EFD09DE7EBD37C
:101AE000002002F05BFB041E84DBD5F8C4308020AC
:101AF00043F00103C5F8C43002F050FB041EFFF6AA
:101B000079AFD5F8C430002443F48033C5F8C4302D
:101B1000012385F8B8306DE7CC0D0020DC020020F1
:101B200054E500007CE50000E9120000A6E5000095
:101B300095180000C8030020EC0300209DE300007E
:101B4000D3E2000030B51F4B8BB005AA03F110059E
:101B5000144618685968083303C4AB422246F7D1CB
:101B60001B7810222370002101A80BF057FD1222D0
:101B7000002115480BF052FD102101A80BF05DF972
:101B800000281BDD0828B8BF082001AB09381A1847
:101B900000200D4912F8013F0AAC04EB131403F0C6
:101BA0000F0328336B4414F8144C13F8143C013021
:101BB00008280C704B7001F10201EBD102480BB008
:101BC00030BD00BFE5E50000A72300202DE9F04F60
:101BD0008F4B87B093F800B0BBF1000F03D08D4856
:101BE00007B0BDE8F08F8B4C00264FF0011AB046CD
:101BF0003546B14623783BB9874B02349C42F3D13A
:101C00000123834A1370EAE76378052B29D8DFE8BC
:101C100013F0B2000600FC00B2002B005800402375
:101C200004A88DF810B0ADF812308DF814B002F0A1
:101C3000F5F998B1082304A8ADF8123002F0EEF9D6
:101C400060B1764940F28F127548ADF812B00AF0D3
:101C5000A4FE40F28F1171480AF096FEBDF81230D2
:101C6000E37123781C44C5E7E378002BF9D1A3780E
:101C700013BB6C4D03E06B689C4218D024356A4B53
:101C80009D4208D965494FF49B7265480AF085FE6C
:101C90004FF49B71DFE7EED32246452163480AF0FB
:101CA0000BFF634845210AF007FF002098E7AB6867
:101CB00013B141462046984708F101085FFA88F8B9
:101CC000CFE7002D55D145215A480AF0F5FEE8E747
:101CD000296AA07801EBC2010B79984242D1012711
:101CE000E078FBB200F003008DF81400207994F83E
:101CF00005C040EA0C20ADF8120094F9020000285B
:101D000026DA4FF0010C07F110000CFA00F010EA8F
:101D10000A0F24D143F080008DF8100004A8CDE90B
:101D20000213019202F07AF9DDE90121039BB0B9B7
:101D30009DF8102012F0800FA2700A714FF001027E
:101D40001DBF1033DBB29A40BA404AEA020A88E764
:101D50000120B84010EA0A0F01D11846DCE701372C
:101D6000102FBDD101322B7F9A42B1D34521324889
:101D7000ABE70022F7E7032E22D1FFF7E3FE074689
:101D800090B1FEF70BFA024670B1102805D0019011
:101D900057212A480AF090FE019A102AA8BF102263
:101DA0003946A01C0BF013FC6FF002002378001BD7
:101DB000E11804EB5303C8420AD50136F6B250E7E6
:101DC000002EF1D1B9F1000F14D145211C487CE758
:101DD0001A78203A5E2A06D91049CB2210480AF018
:101DE000DCFDCB2137E701F801BC13F8012901F82C
:101DF000022DE0E7A4EB090389F80230C3F30723BF
:101E000089F8033089F80480D7E7A14629E700BFA5
:101E1000A623002040030020C8030020F6E50000B0
:101E2000D3E20000C8030020EC0300202CE60000F1
:101E30002BE7000051E6000097E60000B9E600003D
:101E400009E70000094B00211A4610B51C788442AE
:101E500004D15C6814B102EB811010BD013104297A
:101E600003F14003F2D10020F7E700BF980E0020F5
:101E70002DE9F34150F8283C0446103310F82C6C3F
:101E80000AD1036950F8202C98073CD5D2B95907DC
:101E900015D5002344F8283C54F8283C10330BD0C7
:101EA00054E9077554F8148C0BF0C4FA002856D086
:101EB000214631480BF0AEFA02B0BDE8F08143F0A4
:101EC00004032361304654F8241C01ABFFF790FC57
:101ED000024638B13346452128480AF0EDFD6FF03F
:101EE0001503D7E7019A54F8243C134444F8243CE2
:101EF00054F8203C9B1A44F8203C54F81C3C1344F2
:101F000044F81C3CC8E7304654F8241C01AB02F0EE
:101F1000F5F902460028DDD1019D54F8243C2B44FC
:101F200044F8243C54F8203C5B1B44F8203C54F813
:101F30001C3C2B4444F81C3C002DAAD0304602F037
:101F400097FAB5FBF0F303FB1055002DA1D154F81F
:101F5000203C002B9DD0304602F026FA9CE744F846
:101F6000180CA4F1100008F011F8002DA4D042467E
:101F700039463046A8479FE7880C00205EE70000FE
:101F800010B5EFF31184202383F31288BFF36F8F12
:101F9000FFF758FF50B14368103307D16FF08B0340
:101FA00000F12C01436004480BF034FA84F31188EB
:101FB000BFF36F8F10BD00BF880C0020F8B504255B
:101FC00020270D4CEFF3118687F31288BFF36F8F34
:101FD0006368103307D16FF08B030848636004F126
:101FE0002C010BF017FA86F31188BFF36F8F013DB8
:101FF00004F14004E6D1F8BD980E0020880C0020C2
:1020000070B50025094C0A4E3146204608F036FAD4
:102010000122A4F11000114601350BF0CEF9042D78
:1020200004F14004F0D1002070BD00BFC40E0020B8
:10203000711E000008B504480AF099FCBDE808408C
:1020400002480AF094BC00BF8DE70000C2E7000020
:10205000014809F019BF00BF6CDC000038B5044628
:1020600018B90F4B0F485B6898476168B1F5683F36
:1020700010D0B1F5680F0DD00B4DA9420AD011F464
:102080006861206807D00146084807F0BDFA0023C0
:102090002360656038BD14220BF0C0FAF9E700BF79
:1020A000D8010020F0E700002C5F5CA99814002004
:1020B00008B560B34368B3F5683F0ED0B3F5680F59
:1020C00018D0144A934220D000684FF0FF324FF0EE
:1020D000FF3307F0C7FC58B115E001220368D3E8CD
:1020E000EF1F002903D1C3E8E02F0028F7D10AD160
:1020F000002008BD0368084A1B7803F5807352F876
:102100002330002BF4D00548F3E70548F1E76FF4DE
:10211000E040EEE72C5F5CA900000350E98FFFFF71
:10212000EA8FFFFF08B520B34368B3F5683F09D0D5
:10213000B3F5680F13D0114A93421DD0006807F021
:1021400047FD14E000220368D3E8EF1F012903D103
:10215000C3E8E02F0028F7D109D0094808BD0021C5
:102160000368084A1B7803F5807342F823100020A7
:10217000F4E76FF4E040F1E70348EFE72C5F5CA978
:10218000E98FFFFF00000350EA8FFFFF10B5044600
:1021900018B91D4B1D485B6898476368B3F5683FE5
:1021A0002FD0B3F5680F2CD0194A934219D1236868
:1021B00003BB4FF0FF324FF0FF332146154807F0C5
:1021C000B1F908B923681BB90F4B13485B689847EE
:1021D0001422002120680BF021FA4FF46863636039
:1021E00008E0B3F5683F0DD83A2B03D040F6BA6249
:1021F0009342DED120680BF0C2F8636843F03A03E3
:10220000636010BD054AF3E7D8010020F0E7000045
:102210002C5F5CA99814002016E800003A00003AF0
:1022200008B506494023142205480BF081F8BDE8A3
:1022300008400449044809F099BE00BF980F0020E7
:102240009814002074DC000088DC000037B50546D7
:102250000C46C9B18B6814480093D1E9002345218D
:102260000AF02AFC636945210093D4E903230F484F
:102270000AF022FC4521E2690D480AF01DFC4521C7
:10228000A2690C480AF018FC012D06D1EFF3058273
:1022900045210948103A0AF00FFC2146284603B0B0
:1022A000BDE8304006F084BF43E8000077E8000056
:1022B000ABE80000BFE80000F2E8000030BFFFF725
:1022C000FDBF00BF2DE9F04105460B4EDFF82C8025
:1022D000324606EB0807CC1B204609490BF077F97C
:1022E000A01942460021083C0BF098F92C6707F131
:1022F0000800BDE8F08100BF0000000004000000FD
:1023000018DC0000074A936893F90E10002907DBD8
:10231000526993421FBF044A536843F0805353608D
:10232000704700BF7421002000ED00E010B5244C80
:10233000452124480AF0C0FBA36A99013ED52248F2
:1023400045210AF0B9FB1E20A36ADA0104D51F4813
:1023500045210AF0B1FB1F20194CA36ADB0204D50A
:102360001B4845210AF0A8FB0220A36A1C0304D5E0
:10237000184845210AF0A0FB2120114CA36A5903FB
:1023800004D5154845210AF097FB2220A36A9A0339
:1023900004D5124845210AF08FFB2320084CA36A7C
:1023A000DB0304D50E4845210AF086FB2420A36AEE
:1023B0006FEA03436FEA1343A36210BD1D20C3E716
:1023C00000ED00E00AE9000027E900003FE9000015
:1023D0005EE900008DE90000B0E90000DAE90000E4
:1023E000F9E9000070B5284C06460D4627484521FE
:1023F0000AF062FBA36AD9043BD5254845210AF0BF
:102400005BFB1720A36A1A0504D5224845210AF070
:1024100053FB18201C4CA36A9B0511D51E4845216F
:102420000AF04AFBA26BA36A180408D545211B4891
:102430000AF042FB1EB1A36A23F40043A3621920F1
:10244000114CA36A590504D5154845210AF034FBFF
:102450001A20A36ADA050ED5124845210AF02CFB92
:102460001B20094A936A43F47F43936200232B7035
:1024700070BD1620C6E7A36A9B04F2D50A48452121
:102480000AF01AFB1C20ECE700ED00E029EA00004E
:1024900044EA00005AEA000072EA000090EA0000F4
:1024A000AAEA0000CAEA0000E7EA000070B5324C70
:1024B00006460D46314845210AF0FEFAA36AD906C0
:1024C00048D52F4845210AF0F7FA1120A36A1A07C8
:1024D00004D52C4845210AF0EFFA1220264CA36AB5
:1024E0009B0711D5452128480AF0E6FA626BA36ADA
:1024F000190608D5452125480AF0DEFA1EB1A36A5F
:1025000023F08003A36213201B4CA36ADA0704D5CF
:102510001F4845210AF0D0FA1420A36A9B0604D56F
:102520001C4845210AF0C8FA1520134B9A6AD606B2
:1025300002D49A6A94070FD59B6AD9060CD516491E
:10254000164840F233120AF028FA40F233111248CA
:102550000AF01AFA1020B9E7074B9A6A920642BFAE
:102560005A6A22F400525A629A6A42F0FF029A6250
:1025700000232B7070BD00BF00ED00E01BEB0000DE
:1025800036EB00005AEA00006EEB00008BEB000017
:10259000A6EB0000E7EA0000CAEB0000D3E200006F
:1025A000F0B56C4B0446586800258BB0C0F30803A7
:1025B00085F31188BFF36F8F02F07F46B6F17F4F2E
:1025C00007D102F00C06082E0ED1452162480AF010
:1025D00073FA62494FF4856261480AF0DEF94FF4FC
:1025E00085615E480AF0D0F916074CBF0C460125FC
:1025F000002CEED00026DA1E8DF80760092A00F2C2
:102600009880DFE802F0058B8F76969696969693E3
:10261000452154480AF050FA8DF807604D4EF36A90
:102620009A0705D5452150480AF046FA002329E0CB
:10263000F36A002B02DA45214C48F5E7F36A5B00A8
:1026400063D545214A480AF037FA7369A26943F411
:1026500080737361BFF34F8FBFF36F8F736932F86D
:10266000022C23F480737361BFF34F8FBFF36F8F1E
:102670004DF602739A4224D1452122683D480AF062
:102680001BFA23689DF80720CAB902AE04F120079F
:10269000324620686168083403C2BC421646F7D14E
:1026A000099A002D51D0C2F3080121B96FEA5222D4
:1026B0006FEA42220992184602A9FFF7C7FD0BB044
:1026C000F0BDB36ADBB233B101200DF10701FFF7B2
:1026D000EDFE0346D6E7B36A13F47F4F05D0012021
:1026E0000DF10701FFF77EFEF3E7B36AB3F5803F14
:1026F00002D3FFF71BFEECE7184940F2FA22184814
:102700000AF04BF940F2FA216BE7144940F2FE223D
:1027100013480AF042F940F2FE2162E700200DF171
:102720000701D4E700200DF10701DBE7452112483E
:102730007AE7124910F4F87F114A124808BF0A4696
:10274000103B45210AF0B8F970E722F4FF7222F03D
:102750000102AFE700ED00E02AEC0000CAEB000048
:10276000D3E200005AEC000076EC00009CEC000084
:10277000AFEC0000D3EC0000F4EC0000FCEB000038
:1027800011EC00001DED0000064B5A6942F01002EA
:102790005A615A6942F480625A615A6922F0080209
:1027A0005A61704700ED00E0EFF30880EFF3098114
:1027B00001B57246FFF7F4FE01BD00BF002080F3B3
:1027C0001488BFF36F8F002080F30A8880F30B8892
:1027D0000F4880F3088805F06DF800200D49086067
:1027E000BFF34F8F00F02CF8202080F311880A48A7
:1027F0004FF40061401880F30988EFF31480022140
:10280000084380F31488BFF36F8F00F0F1F80000E5
:10281000A039002094ED00E0602C00200023184631
:102820000649D1F89020C2F30722934200DB70479B
:10283000C1F89830C1F8A0000133F6E700ED00E0E0
:1028400010B572B6002484F31388FFF7E7FF234620
:102850004FF0FF300C4A03F120010133102B42F8F6
:102860002100F8D100234FF0FF30074A03F1600147
:102870000133102B42F82100F8D162B6BFF34F8F1D
:10288000BFF36F8F10BD00BF00E100E0084B9B68F5
:1028900083420BD1EFF3058343B1064B5A6842F0F4
:1028A00080525A605A6A22F400425A6208F05EBDB1
:1028B0007421002000ED00E016498A684FF03000D6
:1028C0001044EFF3098C80E8F01F202080F3128879
:1028D000BFF36F8F104F4FF000664A698A603E6009
:1028E0004FF07004141920680C4C2060506F0023C6
:1028F000536780F3118802F1300090E8F01F8CF3E9
:10290000098802F1000004B50AF024F9BDE804408A
:10291000704700007421002004ED00E0B81400208E
:102920001EF0040F0CBFEFF30880EFF309808169FC
:1029300011F8021C0229FFD001B572460AF0FBF81B
:1029400001BD00BF40B2002807DB01234109034A53
:1029500000F01F00834042F82130704700E100E0A2
:1029600040B200280CDB01220649430900F01F0099
:102970008240203341F82320BFF34F8FBFF36F8F86
:10298000704700BF00E100E0054B420953F82220E8
:10299000012300F01F0003FA00F01040704700BF51
:1029A00000E100E00131072908B508D90D490E48BA
:1029B000582209F0F2FF58210A4809F0E5FF40B219
:1029C0000028ACBF00F16040084B4FEA4111C9B28A
:1029D000ABBF00F5614000F00F0080F80013195400
:1029E00008BD00BF35ED0000D3E2000014ED00E0AB
:1029F0000B4A08B50B4B22F07F029A60BFF34F8F52
:102A0000BFF36F8FD3F8882022F47002C3F88820B8
:102A100006F0BAFC08F0CAFE00F048F806F0F4FC34
:102A20000000000000ED00E042F8203C009B0B4954
:102A300042F81C3C019B21F0010142F8183C029B2A
:102A400042F8081C42F8143C4FF0807342F8043CF2
:102A50000023203A02654367704700BF050A000063
:102A600000B50B4B15469860026F0A4B0E461A6074
:102A7000036E83F30B882C4686F309880020064BEF
:102A800098472046002100220023044C204700BF25
:102A900074210020B81400205DCB0000050A00005E
:102AA0001022014B1A61704700ED00E00023202145
:102AB0000348C2180133452B82F80013F9D170473F
:102AC00000E100E008B5EFF30583064A103B02EB96
:102AD000C30152F8330049688847BDE80840FFF752
:102AE00011BC00BF9CD800001FB5094C094A234601
:102AF0000121094800F00EF900230393074B01213F
:102B0000E41A01A80193029400F01EF904B010BD6C
:102B1000000007200000002098DC0000F0030020E7
:102B200010B50C7A0B6804F01F0223F01F031A4340
:102B3000CB68640923F01F03054943EA440343F0CB
:102B40000103C1F89800C1F89C20C1F8A03010BD65
:102B500000ED00E010B50A4B0446D3F89030C3F303
:102B60000723013B984208D902464521054809F050
:102B7000A3FF6FF01504204610BDFFF7D1FFFAE761
:102B800000ED00E070ED00002DE9F04F894614469D
:102B900006464FF00008514D85B0C84527DAD6F8F3
:102BA00004A0BAF1000F44D0BAF11F0F18D91AF0DF
:102BB0001F0F15D1D6F800B01BF01F0F10D15846CB
:102BC0000AF008F807460AEB0B0001380AF002F891
:102BD000874210D06FF015073A464521404802E081
:102BE000424645213F4809F067FF6FF01504204633
:102BF00005B0BDE8F08F17F1160FEDD0BC42EBDD4C
:102C0000C5F89870D5F89C10C5F89870D5F8A03024
:102C100021F01F0143F01F0BD6E900321A449942FC
:102C200002F1FF3A1DD1D34507D13146F8B209F080
:102C3000DAFF08F101080C36AFE73146C5F89870A5
:102C4000D5F89C3022F01F0203F01F031343C5F890
:102C50009C30E0B209F0C7FF10F1160FC5D0441C3C
:102C6000E7E7C5F89870D5F8A020013B23F01F03D3
:102C700002F01F021343D3453146E0B2C5F8A0303D
:102C8000E8D009F0B0FF10F1160FAED0C5F898707B
:102C9000D5F89C209DF808300BF1FF3B62F304034C
:102CA0008DF80830D5F8A0309DF808205B0863F354
:102CB00047128DF80820D6E900321344009323F020
:102CC0001F035B44A3EB0A03013023F01F03694693
:102CD000C0B20393FFF73EFFBEE700BF00ED00E088
:102CE000C3ED00009BED00000522044BC3F89420C7
:102CF000BFF34F8FBFF36F8F704700BF00ED00E051
:102D0000BFF35F8F0022024BC3F89420704700BFCF
:102D100000ED00E010B5094C2278FFF735FF207078
:102D200016300AD10649074840F26F1209F035FE05
:102D300040F26F11024809F027FE10BDB9230020B0
:102D4000EBED0000D3E200002DE9F74F2E4D8A464F
:102D500006464FF00008AB462C4FD04502DB03B0CF
:102D6000BDE8F08FD6F80490B9F1000F47D0316874
:102D70000846019109F02EFF0199044609EB010074
:102D8000013809F027FF84424FF01402204B10D085
:102D900002FB08F36FF015024BF803201D491E4893
:102DA00040F27F1209F0F9FD40F27F11194809F055
:102DB000EBFD14F1160F2C60F0D01978A142EDDD77
:102DC00002FB08B0C7F89840C7F89840D7F89C4075
:102DD00000F10801007B64F304000871D7F8A0003B
:102DE0000C79400860F347140C71D7F89C1021F05F
:102DF0001F016960D7F8A01021F01F01296108F1B7
:102E0000010814350C36A8E7BC14002000ED00E0E2
:102E1000B9230020EBED0000D3E200002DE9F041E2
:102E20004E494F4CD1F890302568C3F307239D429B
:102E300086B00AD94B494FF4D3724B4809F0ADFD27
:102E40004FF4D371474809F09FFD0020FFF758FF6A
:102E5000464BC1F8C03085421AD1454C01A82570B7
:102E6000FEF710F9002506464FF04108414FAE42EB
:102E700015D1002023783949D1F89020C2F30722D8
:102E8000934265DB0020FFF72FFF06B0BDE8F0811D
:102E9000616801EB0011FFF743FE0130DBE7019AA7
:102EA000290102EB0513D3F80CC00CEA0700B0F5BA
:102EB000001F23D0B0F5800F38D0B0F5801F45D16A
:102EC000586852589B68CDE902022122013B20F04C
:102ED0001F010B4423F01F038DF810200593207869
:102EE00002A9FFF737FE00282DDA1E494FF4E872D9
:102EF0001D4809F052FD4FF4E871A3E758689B683C
:102F00005258013B20F01F010B4423F01F031CF01B
:102F1000010FCDE902028DF810800593DFD0114931
:102F20007422114809F039FD74218BE758689B68B9
:102F30005258013B20F01F010B44CDE9020223F05F
:102F40001F030622C8E723780133237001358EE77B
:102F5000C1F89830C1F8A00001338DE700ED00E022
:102F6000A4DC0000EBED0000D3E20000AAFF440067
:102F7000B92300200000F0FF08B5024B1B689847FA
:102F8000002008BDD0140020034B044A1860937839
:102F900043F0020393707047D014002024000020F7
:102FA00008B50649064821F00701C1F1005202F5B3
:102FB000E022FDF77DFC002008BD00BF7F4200201D
:102FC000D414002008B543090CD0012B1BD01249A2
:102FD00012484FF46C7209F0E0FC4FF46C710E482B
:102FE00009F0D2FC4FF0FF33C340DA07EFD50C4BAA
:102FF00003EB8003D3F8002222F0E04242EA0171A1
:10300000C3F8001208BD4FF6FF7300F01F00C34065
:10301000DB07DCD5034BEBE729EE0000D3E2000031
:10302000002584500028845038B50124134B144DDA
:10303000C3F8004502230321C5F8D0360020FFF76E
:10304000C1FF20460321FFF7BDFFC5F80447214615
:10305000C5F804492120C5F8004BFFF7B3FF21460E
:103060002020FFF7AFFF21460B20FFF7ABFF2146E3
:103070000A20FFF7A7FF002038BD00BF0010005056
:103080000040005007B50DF1070004F05FFD114B43
:1030900098421CD14FF480620F4B1049C3F8B825F9
:1030A0004FF40062C3F83C259DF8070004F03AFD98
:1030B0000B499DF8070004F021FD01209DF8073021
:1030C000984004F015FD002003B05DF804FB6FF09C
:1030D0000B00F9E70000AD0B00A002502CA002503D
:1030E00028A10250052370B5144D154E2C780134DB
:1030F000B4FBF3F303EB8303E41A0AF002F8114A7A
:10310000137823B156F82430C01A072814D94FF089
:103110005023D3F8141141B10021C3F81411D3F88E
:1031200014312C700CB9012313702C7809F0E9FFCD
:1031300046F82400012070BD0020FCE7BB230020DE
:10314000E0140020BA23002048B1054B054A1B6853
:10315000B3FBF2F35843044B43F0010318477047A5
:103160003001002040420F0030DC000001490248DD
:1031700009F07DBCCCDC0000F41400204FF47F0388
:103180002DE9F041D3F830210646072A0D46D3F841
:10319000343120D1023B032B02D8124AD35CD3B185
:1031A0004FF050244FF0010800270520C4F818867E
:1031B000C4F8147609F0B5FF4046C4F8148609F047
:1031C000B0FFC4F81476C4F8187630462B46BDE834
:1031D000F041002118474FF050230022C3F8142675
:1031E000F3E700BF60EE0000BFF34F8F0549064BC9
:1031F000CA6802F4E0621343CB60BFF34F8F00BF95
:10320000FDE700BF00ED00E00400FA052DE9F04104
:1032100090F900300446002B0D46174607DA40F2BD
:103220000162038823F0E0039BB2934203D06FF066
:103230001500BDE8F08190F80480468841461448A6
:10324000360A09F051FC28B942465721114809F0C5
:1032500033FCECE7212E04D0222E0FD06FF0850036
:10326000E7E70368E1885B685B6813F8092F914220
:1032700094BF29602A6000203B60DAE7E38850F8B9
:103280000C2C9A4294BF2A602B6050F8103CF2E755
:103290002C15002064EE000070B504460D46014672
:1032A0000B4809F02EFC30B92246BDE8704057218A
:1032B000084809F001BC022D08D150F8083C2BB198
:1032C0001B691BB1BDE870400068184770BD00BFA6
:1032D0002C15002090EE000070B506460D46014604
:1032E000304809F0F6FB044630B93246BDE870407C
:1032F00057212D4809F0E0BB0A2D4FD8DFE805F033
:10330000060C2528303A404E4E4E2F0049212748C2
:10331000BDE8704009F0D0BB4921254809F0CCFB3D
:103320000023012104F8033C04F8023C14F8043C97
:1033300020688B4204F8041C11D054F8083C73B187
:103340009B6863B1BDE87040184749211948DFE721
:103350004921194809F0B0FB012304F8033C70BD72
:103360004921164809F0A8FB002304F8033C04F89F
:10337000023CF4E74921124809F09EFB0123F6E7DD
:103380004921104809F098FB14F8023C002BE6D0C4
:1033900049210D4809F090FB0023E8E749210B483B
:1033A000B6E700BF2C150020BBEE0000E1EE0000E8
:1033B000F3EE00000EEF000024EF00003BEF0000F2
:1033C00054EF00006AEF00007EEF000090EF000075
:1033D0002DE9F04105460E4601792F48174609F0C0
:1033E00083FB044640B92D485721AA8809F064FBA5
:1033F0006FF01200BDE8F08195F900300068002BF5
:103400006A781ADA022A08D0032A09D0012A3FD1A1
:1034100054F8083C0BB11C68DCB96FF08500E9E793
:103420006B8823B145211E4809F046FBF5E70123CF
:10343000043C3C6033600020DCE70A2AEDD00B2A14
:103440000ED0092A24D154F8083C002BE5D05C6842
:10345000E2E73B4632462946A446BDE8F0416047D4
:103460006A88012A04D945210E4809F025FBD4E7D2
:1034700014F8043C9342DED054F8083CD1B204F86E
:10348000041C002BD7D09B68002BD4D09847D2E7E0
:1034900045210548E9E700BF2C15002064EE000037
:1034A000A3EF0000D9EF0000BBEF000010B50469E6
:1034B000A3600023C4E900126361064B20615968D0
:1034C00004F1140211B9C3E9002210BD0A605A6068
:1034D000FBE700BF2C15002070B544680069457BF0
:1034E0003DB1807B28B9206ABDE870400079FEF7C5
:1034F0007FB95721024809F0DFFA6FF00A0070BD6A
:10350000F7EF0000F0B5154D154E164F85B04FF092
:10351000FF324FF0FF33284601A906F0E5F90246D5
:1035200020B14521384609F0C7FAF0E70E4C0AE011
:10353000EDD2236813B1019A934203D1D4E901314A
:1035400001A898470C34B442F2D908490848172218
:1035500009F023FA1721054809F016FAF0020020B5
:1035600018DC00001DF0000000DC000037F0000057
:10357000D3E20000F0B517461E4685B001909DF8D5
:103580002800DDE90C5423462C432A468DF8080018
:103590008DF80910ADF80A70039608D00AF0B8F853
:1035A0000A4908580A49884204BF002213460948BC
:1035B00001A906F0F9F8041E06DA5721064809F0B9
:1035C0007BFA204605B0F0BD0024FAE708000000B1
:1035D000880C0020F00200205FF00000772804D85B
:1035E000034B185C08B100B270474FF0FF307047D2
:1035F0009CF0000008B54368186809F057FE30B920
:103600000448452109F058FA6FF0120008BD002067
:10361000FCE700BF14F100007FB503460846DA88D6
:103620004968012A04694E6816D0B2F5A57F16D004
:103630000AB99A6862601B7953B3D4E900230D7B01
:10364000AA4202D24D7B9D420FD85721114804B0A7
:10365000BDE8704009F030BA9A682260EBE79A68DA
:10366000003A18BF01222272E5E705FB02338A689F
:103670009A420DD936F8132052B1237A4FF0FF3514
:103680004FF0FF340121CDE902450091FFF772FFB1
:1036900004B070BD30F10000020600F07F0312D5C7
:1036A000082B05D1010700F00F0306D50E4870471F
:1036B00010F0780F12D100F00F034C2000EB4310F4
:1036C0000A4B18447047082B05D1020700F00F037E
:1036D00006D50748704710F0780FF6D000207047E5
:1036E000044800EB431070478C1600204015002062
:1036F000AC170020AC1600200149024809F08ABE30
:1037000068150020700400200146014809F04ABEF7
:103710002C030020002310B50D49D1E8EF2F012A1A
:1037200003D1C1E8E03F0028F7D10CBF01201846C3
:103730000DD151F8044C14392046FDF731FC10F13D
:10374000780F04D12046BDE81040FDF7D3BB10BD73
:103750006015002000220023014806F09FBB00BF37
:103760002C03002013B5002201213720FFF71AF99E
:10377000114800F0F1FF114B98421AD10024104873
:1037800005F0B2FB0F4805F073FC4FF0FF334FF428
:1037900080620D490D48009406F0E2FE0C490B488A
:1037A00009F04EFE0B480C4906F068FE204602B0B8
:1037B00010BD6FF00400FAE7193A00000000AD0BED
:1037C0002AF40000ECDC00006028002070040020D7
:1037D0006BF10000681500207D3B000038B5002427
:1037E00064F07F00C0B2FFF757FF50B91B4940F2A9
:1037F0007A221B4809F0D1F840F27A21174809F0E3
:10380000C3F8013409F04BFA082CE9D10024154D16
:10381000E0B2FFF741FF40B910494FF42072104861
:1038200009F0BBF84FF42071E8E7036903B90561BB
:10383000013409F034FA082C05F14005E8D10A48B2
:1038400009F02DFA094BD3F87C2212B9084AC3F8C3
:103850007C22084809F023FA002038BD76F10000E8
:10386000D3E20000D01B00208C1600204015002061
:10387000D0170020AC17002010B5054CFFF76AFFE9
:1038800020B14168204605F0BFFEF7E710BD00BF3C
:103890004C02002013B500220023184801A905F0AE
:1038A00041FE38B34521164809F006F9FFF7E4FF59
:1038B00000220023114801A905F034FE044670B12E
:1038C0004521104809F0F8F80F4910484FF4E37209
:1038D00009F063F84FF4E3710B4809F055F804233D
:1038E000019840600374FFF70FFFFFF705FF2046C4
:1038F00002B010BD01984060FAE700BF4C02002002
:10390000AAF10000CDF1000076F10000D3E2000042
:103910000228024610B511D80C4B1C5CFFF7BAFF09
:1039200090B1002204720274FFF7EEFE084B93F888
:1039300024304BB1BDE81040FFF7DEBE4521BDE8A5
:103940001040044809F0B8B810BD00BF27F40000CB
:1039500040150020EEF100002DE9F0418778064681
:103960003846FFF799FE3B060546F4781BD54CB167
:10397000032C4BD03B462246BDE8F041452124486C
:1039800009F09AB8FFF786FF034600283ED00122CF
:10399000AC770274032202739D60FFF7B5FEBDE8A9
:1039A000F041FFF7A9BE4CB1012CE3D1FFF772FF44
:1039B000034658B36C7704740473EDE7FFF76AFFAE
:1039C00020B3B278134B12F0800F02F0080111D02F
:1039D00041B1D3F8A836EB6001230374022385605C
:1039E0000373DAE7142102F00F0201FB0233D3F86C
:1039F0000836F0E711B1D3F8A837ECE7142102F04C
:103A00000F0201FB0233D3F80837E4E7BDE8F08189
:103A10000EF2000000600350F0B5064689B0142293
:103A2000002103A809F0FAFD3378013B052B21D8CA
:103A3000DFE803F0950314148516032300248DF8A2
:103A40001430FFF727FF0346A0B100F10802047409
:103A5000DDE9050182E80300184627E00423EDE7CD
:103A6000B7783846FFF718FE837A054623B1013B45
:103A7000022B5ED909B0F0BD3B06F4781DD554B1D8
:103A8000032CF7D03B4622464521364809B0BDE815
:103A9000F04009F011B8FFF7FDFE03460028E9D019
:103AA0000122AC770274032202739D60FFF72CFEA3
:103AB00009B0BDE8F040FFF71FBE54B1012CE1D1C1
:103AC000FFF7E8FE03460028D4D06C770474047333
:103AD000EBE7FFF7DFFE04460028CBD00123037499
:103AE000022385600373B07805F10C0109F016F923
:103AF000024670B145211C4808F0DEFF1B491C48F6
:103B000040F29D3208F049FF40F29D31174808F01D
:103B10003BFF1849E868B1F88C32834206D91B1A7A
:103B2000A1F88C3201F048FA2046BFE7A1F88C22B8
:103B3000FAE7304609B0BDE8F040FFF70DBF01A835
:103B400001F018FA9DF80530052B04D19DF80430DA
:103B500013F0600F8ED0084B0124059371E7022407
:103B60006FE700BF0EF200003FF2000076F10000A8
:103B7000D3E2000040150020AC1600202DE9F043F0
:103B800080469C4DDFF8709285B0FFF7E3FD074655
:103B900010B905B0BDE8F08395F825303A7C3BB903
:103BA000002A00F0AE807968934805F02DFDECE71F
:103BB000042A00F2C581DFE812F0A40005006301C9
:103BC0007901990118F8043C2BB9BB6845215A7A50
:103BD0008A4808F071FFBC6854B989494FF44B72A8
:103BE000884808F0DAFE4FF44B71854808F0CCFEA7
:103BF0003B7B032B41D8DFE803F002476C71A27ACC
:103C000042B17F494FF439727E4808F0C6FE4FF446
:103C10003971EAE766697C4B32607260D3F88014D0
:103C20003170D3F884147170D3F88814D3F88C04ED
:103C300041EA00217180D3F89014D3F8940441EA4A
:103C40000021B180D3F89814D3F89C3441EA0323BF
:103C5000F3800823E360306871686C4B03C311463E
:103C60002368607A984796F90030002B08DBF388C8
:103C700033B1A5F88C3201F09FF94846796894E792
:103C80000023A5F88C32F8E7637F002BF5D0237F63
:103C9000002BF2D000264FF0FF324FF0FF335C488C
:103CA0006677267709F00EF8636901A901936368C6
:103CB000CDE90236607A00F0C7FD564B02469842C5
:103CC00003D04521544808F0F7FE514808F0FCFFA6
:103CD000D3E701212368607A9847CEE7A37A6BB9CE
:103CE000E37F5BB94A484FF0FF324FF0FF3308F0F3
:103CF000E9FF01F067F9464808F0E6FF0221236872
:103D0000E9E73A7A042AB8D8DFE802F08A0329A35F
:103D1000AF0000F09BFC04460028AED100F014FC7C
:103D200001233E49D1E8EF2F002A03D1C1E8E03F4B
:103D30000028F7D1A1D141F8084C41F8104CE869AE
:103D400014396B61FDF752F8002896DA2C4940F2DD
:103D5000AA222C4808F021FE40F2AA2145E70024BF
:103D600064F07F00C0B2FFF797FC40B9244940F2ED
:103D70003122244808F011FE40F2312135E7037A60
:103D800013B1407A01F0D4FA0134082CE8D195F847
:103D900054311BB195F8550101F0CAFA0024E0B284
:103DA000FFF77AFC40B9164940F24322154808F063
:103DB000F4FD40F2432118E7037A13B1407A01F091
:103DC000B7FA0134082CEAD195F874321BB195F892
:103DD000750201F0ADFA002000F008FC012385F81F
:103DE00025302B68002B3FF448AF00210220984774
:103DF00043E700BF401500204C02002064F20000A1
:103E000076F10000D3E2000000600350441500206A
:103E1000781500200000AD0B8FF200006015002027
:103E2000002485F8254001F0CBF9FFF773FCA04290
:103E300008DA464940F2C222454808F0AEFD40F299
:103E4000C221D2E62B68002B3FF417AF2146042095
:103E5000CDE7002B3FF411AF00F002FC2B68002BE4
:103E60003FF40BAF00210520C1E72A68002A3FF488
:103E700004AF002B3FF401AF002106209047FCE681
:103E800008F110044FF0FF334FF0FF32204608F0E6
:103E900019FFFFF7A3FC204608F016FF58F8283C4E
:103EA000002B3FF4EAAE00210120A0E795F8743220
:103EB0005BB1012485F8894285F88842FFF7EAFC66
:103EC00058B94521234808F0F7FD58F8283C002B45
:103ED0003FF4D3AE00210A2089E71F4A047404731B
:103EE0008260FFF711FCFFF707FCEEE745211B4856
:103EF00008F0E2FD05F0A4F801F062F900F006FB1D
:103F0000FFF7BAFCFFF76AFC40B1104940F2864265
:103F10000F4808F042FD40F2864166E605F088F859
:103F20000F4800F019FC0F4B98423FF4A6AE07492A
:103F300040F28D42064808F030FD40F28D4154E6D3
:103F40004521094808F0B8FD97E600BF76F100006A
:103F5000D3E20000BAF20000AC170020D3F2000058
:103F6000193A00000000AD0BEFF2000038B5154D16
:103F700095F8244024BB05F1380009F000FA02202E
:103F800001F0BCFB22460121E8613620FEF70AFD64
:103F900005F04EF8FFF722FC044610B9012385F81E
:103FA0002430094B1B680BB1FFF7A6FB074BD3F876
:103FB0000034DB0702D50020FFF7AAFC204638BDFD
:103FC0000024FBE7401500202C0300200070035064
:103FD00008B50E4B93F824209AB193F8253083B19D
:103FE0000B4BD3F87034DBB283420DD009490A4839
:103FF00040F2595208F0D1FC40F25951054808F0FE
:10400000C3FC6FF0120008BD0020FCE74015002043
:104010000060035076F10000D3E2000008B5037899
:10402000027903F00F013AB991B145210C4808F02B
:1040300043FD4FF0FF3008BD082902D9452109484A
:10404000F5E7012A04D11B0708D457210648EEE7FB
:1040500013F00800EFD057210448E8E70020EAE712
:104060000CF3000030F3000054F300006FF3000085
:1040700038B5124B044693F82430E3B1057828464E
:10408000FFF70AFB80B1457223798372638843602E
:104090002078618810F0080F09D14B1E0B4206D022
:1040A0004521074808F008FD6FF0150038BD00F005
:1040B0000DFB0020FAE76FF01200F7E74015002033
:1040C00091F3000038B5154B054693F824200AB348
:1040D00093F82530F3B1FFF7DFFA044610B96FF01B
:1040E000150038BD837A012B0FD007D9023B012B75
:1040F00007D900206369E060A361F2E700F068FF80
:10410000F7E7284600F0E6FEF3E74521044808F00B
:10411000D3FCE4E76FF01200E3E700BF4015002096
:10412000BEF3000038B50E4B054693F8242082B14B
:1041300093F825306BB1FFF7AFFA68B115F00804BA
:104140000AD1284600F0FAFE284601F029F9204657
:1041500038BD6FF01200FBE76FF01500F8E700BF05
:104160004015002038B50C4B054693F824200C462A
:1041700062B193F825304BB1FFF78EFA48B144B1E4
:10418000284600F0C1FE2070002038BD6FF01200FC
:10419000FBE76FF01500F8E74015002070B5134EEF
:1041A000044696F82430C3B1FFF776FA0546B8B155
:1041B000230705D4204600F0C1FE204601F0F0F8A8
:1041C0002B7A83B901232B7296F825300BB9002086
:1041D00070BD204601F0ACF8F9E76FF01200F7E788
:1041E0006FF01500F4E76FF07700F1E7401500205D
:1041F0002DE9F043DFF8F0801E4698F8243007469A
:104200008946154685B0002B6BD098F82530002BD9
:1042100067D003060AD5FFF73FFA044630B1037AA8
:1042200053B93A464521314808F046FC6FF0150471
:10423000204605B0BDE8F0834FF0FF334FF0FF326A
:1042400008F1380008F03EFDA37F33B108F13800D3
:1042500008F03AFD6FF00A04EAE7A37AFDB173B300
:1042600001234FF00008A377384601A9CDE9019555
:10427000CDF80C8000F0E8FA1D4B024698422CD095
:1042800084F81E800EB1C6F800804521194808F058
:1042900013FC6FF00404184808F016FDC8E7E27F2D
:1042A00002B1E577002BDBD100F098FEB842D7D001
:1042B00000F088FE104808F007FD0024B8E7B8F8C1
:1042C0000A30AB42F0D96268B5FBF2F302FB13533C
:1042D000002BE9D10123E377E6E706B1356000243E
:1042E000D9E76FF01204A3E740150020E5F30000C2
:1042F0000000AD0B09F40000781500202DE9F04115
:104300001D46264B174693F8242080460E46002A69
:1043100040D093F82530002B3CD010F0800F01D115
:1043200021B91FB16FF01500BDE8F0814046FFF7DD
:10433000B3F904460028F5D0037A2BB9424645214B
:10434000174808F0B9FBEDE74FF0FF334FF0FF32AD
:10435000144808F0B7FCE368B8469F4228BF984667
:104360003EB937B905B12B600E4808F0ADFC00200E
:10437000DAE742463046A16909F029F9A3694344C6
:10438000A361E368A3EB0803E360002DECD0C5F85C
:104390000080E9E76FF01200C6E700BF401500207B
:1043A000E5F300007815002070B5214D064695F81C
:1043B0002430002B38D095F82530ABB303060AD44F
:1043C000FFF76AF9044630B1037A3BB9324645211A
:1043D000184808F071FB6FF0150070BD4FF0FF3307
:1043E0004FF0FF3205F1380008F06CFCE368B3B918
:1043F000012663692677A361637F83B1FFF74AFAD9
:1044000030B905F1380008F05FFC6FF00B00E4E70D
:10441000067484600673FFF777F9FFF76DF90648B5
:1044200008F052FC0020D8E76FF01200D5E700BF7B
:1044300040150020E5F300007815002010B5084B6A
:104440000C4693F824302BB1FFF726F928B104600D
:10445000002010BD6FF01200FBE76FF01500F8E7C9
:1044600040150020014B1860704700BF4015002028
:1044700008B5074B93F8243023B1FFF70DF920B1AD
:10448000406808BD6FF01200FBE76FF01500F8E719
:104490004015002000F00F02082A08B50AD90B4980
:1044A0000B484FF4D77208F078FA4FF4D7710748E9
:1044B00008F06AFA074B10F0800F03F1D80118BF1B
:1044C0000B46182000FB023008BD00BF34F400008A
:1044D000D3E20000101E002008B500F00F03082BE7
:1044E0000AD90849084840F2C11208F056FA40F2C9
:1044F000C111044808F048FAC043C0F3C01003EBF0
:10450000001008BD34F40000D3E2000008B50A4BE7
:104510001A78012A0AD00949094840F2744208F081
:104520003CFA40F27441054808F02EFA0022054991
:104530001A700A6008BD00BFC023002034F40000D8
:10454000D3E20000C81F002008B51F4A11780129D6
:104550000AD01E4940F27C421D4808F01EFA40F283
:104560007C411A4808F010FA4FF40060194BC3F868
:104570000004C3F80015D3F800140905FBD54FF467
:104580000061C3F800148021C3F81C150121C3F891
:10459000301540F2FF11104B196000230F490B60DA
:1045A0000F490B700F498968012908D007494FF45A
:1045B0009562074808F0F1F94FF49561D1E70A498F
:1045C0000B700223137008BDC023002034F40000D8
:1045D000D3E2000000600350C41F0020C01F002071
:1045E000BC2300201C030020BE23002010B5104B6C
:1045F0001B78022B0AD00F490F4840F2DC4208F02A
:10460000CCF940F2DC410B4808F0BEF900220B4B1C
:104610000B4C1A700B4A0C4B002808BF134636206F
:10462000C4F80033FEF78EF90123C4F8043510BD39
:10463000C023002034F40000D3E20000BF23002098
:1046400000600350FDFFDF01FDFFFF01034B187801
:10465000012894BF00200120704700BFC023002024
:1046600010B54FF0FF324FF0FF33154805F0F0FC66
:10467000EFF31181202383F31288BFF36F8F114B67
:104680001B7803F0FF0483B10F4BD3F8002412F41E
:1046900000720AD10120C3F82C05D3F82C05D3F8F9
:1046A0000004800502D5C3F82C25002481F311886D
:1046B000BFF36F8F024805F069FC204610BD00BFB4
:1046C0001C030020BF230020006003504B1E0B4240
:1046D00010B500F008030C460CD001071ED11B4991
:1046E00040F269521A4808F058F940F269511748E7
:1046F00008F04AF991B9020708D1144940F26B5207
:10470000134808F04AF940F26B51F0E713B1114B2E
:10471000D3F81C35FFF7BEFE848210BDA3B10D4B4C
:1047200040F2FF32D3F81C1540F2FF13802918BF66
:1047300013469C42EED9054940F26D52044808F0F8
:104740002CF940F26D51D2E7402CF3E734F400002D
:10475000D3E2000000600350F8B550B92149224867
:1047600040F24D4208F019F940F24D411D4808F061
:104770000BF91E4B1C7894BB1D4A40F2FF171060CA
:10478000012226461A7064F07F0514F0080FEDB27E
:1047900014BF394640212846FFF798FF2846FFF707
:1047A00079FE0134092C867506730661EBD100246D
:1047B00040F2FF17254614F0080FE6B214BF394641
:1047C00040213046FFF782FF3046FFF763FE013499
:1047D000092C857505730561EDD10648F8BD0648BD
:1047E000FCE700BF34F40000D3E20000C023002047
:1047F000C81F00200000AD0B0500AD0B08B543B28B
:1048000000F00F0008280AD90C490D4840F28152E7
:1048100008F0C3F840F28151084808F0B5F8002BC1
:10482000084BB4BFD3F81025D3F8142501238340D7
:10483000134214BF0120002008BD00BF34F4000063
:10484000D3E20000006003502DE9F84381460C4696
:10485000FFF742FEEFF31188202383F31288BFF3A2
:104860006F8F54B9274940F2BC52274808F095F899
:1048700040F2BC51234808F087F819F00F0F03D11C
:10488000224B1B784B4538D1214B01261B68214F09
:10489000DB433D689BB286402B4333422FD14846D1
:1048A000FFF7F8FD19F0800F03460FD122686AB1B7
:1048B00002F06042B2F1005F08D012494FF4BA62D0
:1048C000114808F06AF84FF4BA61D3E701221A736D
:1048D00094E8070083E8070000221A619A754FF4F4
:1048E00080020D4B35430D483D60C3F8042188F329
:1048F0001188BFF36F8FBDE8F8830948F7E70948CF
:10490000F5E700BF34F40000D3E20000BE2300202E
:10491000C41F0020C01F002000E100E00000AD0B1C
:104920000A00AD0B0B00AD0B10F0080F074B06D0C3
:10493000D3F8C00410F4803F18BF0020704700F087
:104940000F0000F5947053F820007047006003508A
:104950002DE9F04FA04BA14ED3F8542185B0DAB128
:104960000022C3F85421D3F80413890214D58DF81A
:104970000C20D3F8202503A8ADF80E20D3F8C034BE
:10498000002B14BF4FF001224FF4807233681343A1
:104990003360934B1B6898478F4BD3F8604134B119
:1049A0000022C3F86021D3F86C44C3F86C44D3F8F8
:1049B00028214AB10022C3F828218A4B1878FFF732
:1049C0008BFD012383401C43874F97F8008097F9A4
:1049D000009008F00F03082B0AD984494FF4917214
:1049E000834807F0DAFF4FF49171804807F0CCFF5D
:1049F00018F008017F4D40D1B9F1000F2DDA7E4A41
:104A000052F8230010B342F823101422534303F149
:104A1000A04303F55833D3F80836784A03F001036E
:104A200011784B401370764805F0B0FA4046FFF716
:104A300031FD837D032B38D14046FFF74DFD012327
:104A400003FA00F02B6823EA00032B604FF0010803
:104A50004FF00609DFF888A15DE06A4A52F82300AA
:104A60000028F3D042F823101422534303F1A0434B
:104A700003F55833D3F80837CFE7B9F1000F564B99
:104A800009DBD3F85021002AE0D00022C3F85021DE
:104A9000D3F8A837C1E7D3F82C21002AD6D00022BA
:104AA000C3F82C21D3F8A836B7E7037BE3B9404617
:104AB000FFF712FD012303FA00F02B68B9F1000F94
:104AC00023EA00032B6002DAB8F1880FBED1062377
:104AD0008DF80C3000238DF80F30414B8DF80E808F
:104AE0001B6803A89847B1E7B8F1000FAED10122C7
:104AF000394BDA64AAE794FAA4F0B0FA80F032688D
:104B000008FA00F31A430F28326024EA03042A68E3
:104B100049DD134256D0002CEDD12F4BD3F80021A4
:104B20005AB1C3F80041384B03A81C702D4B1C70C0
:104B3000012303932A4B1B689847274BD3F858212E
:104B4000002A6ED00022C3F85821D3F80044C3F8DD
:104B50000044E30508D501222B4B03A81A70022359
:104B600003931F4B1B689847A00508D50022264BCE
:104B700003A81A7003230393194B1B689847610518
:104B80004FD5214A1378002B4BD0134BD3F82C155B
:104B900000293BD0154940F2F522154807F0FDFEEB
:104BA00040F2F52121E71340B5D160F07F018DF887
:104BB0000C908DF80E108DF80F30DAF8003003A845
:104BC0009847A8E7A0F110018DF80C908DF80E1011
:104BD0008DF80F80F1E700BF00600350C41F002074
:104BE000C81F0020BE230020BD23002034F4000095
:104BF000D3E20000C01F002008610350BC23002046
:104C00001C03002030610350BF23002011700122DB
:104C1000C3F808259A6504230393A74B03A81B68D0
:104C20009847A64BD3F85C31FBB1A54B9B6813B9F1
:104C30003B785A0619D00022A04B03A8C3F85C2188
:104C4000D3F880349F4A23F07F0313702B6823F03E
:104C500001132B60336823F4803343F00103336086
:104C600005230393944B1B6898472A6833681A42BC
:104C700000F0108100220023914805F0E9F9002896
:104C800040F008818D4BD3F82C35002B00F091803B
:104C90008B4805B0BDE8F04F05F078B949F0800ABF
:104CA0005046FFF7F7FB027B0446FAB14268B0F8C2
:104CB00014800168904528BF904601F06042B2F12F
:104CC000005F1CD12068626840442060A068A2EBAD
:104CD0000802C3074FFA8AF5626040F1A780B8F175
:104CE000000F40F0A68000222273A2E0764940F235
:104CF0005732764807F051FE40F2573175E6B8F169
:104D0000400F08D970494FF4C172704807F045FE52
:104D10004FF4C17169E642466D4808F058FC6C4991
:104D2000D0E722686AB102F06042B2F1005F08D0B9
:104D300065494FF4B272654807F02FFE4FF4B27127
:104D400053E66268236890429DBF03EB0008121A85
:104D5000C4F800804FF000089CBF80466260704538
:104D600019460FD1003A18BF01226BB9B8F1000FF4
:104D70005AD055494FF45A72544807F00EFE4FF47A
:104D80005A7132E60022F0E7404543D9012202FA87
:104D900009F22BEA020202212A600622464BA17583
:104DA0001B688DF80C208DF80EA08DF80F1003A84D
:104DB00098473368D5F800B001931BEA03093FF424
:104DC00067AF19F0012314BF93FAA3F999FAA9F96F
:104DD000B9FA89F9B9F10F0F7FF660AFA9F11003A5
:104DE0005FFA83FA5046FFF755FB027B0446002A20
:104DF0003FF47CAF5046FFF797FDB4F814E07045E0
:104E00008FD9314940F26312304807F0C6FD40F2B5
:104E10006311EAE508D02C4940F279322B4807F0BB
:104E2000BCFD40F27931E0E54FFA8AF5002A3FF403
:104E30005AAF0120019B00FA09F923EA0902326006
:104E4000226987F800A0424422610AF00F04082C6E
:104E500008D91D494FF4A4721C4807F09EFD4FF479
:104E6000A471C2E51AF0080F144B16D1142202FBEC
:104E70000432002DB5BF03EB84030A34C2F80016D8
:104E8000C2F80017B5BFC2F80486C2F8048758609C
:104E900043F8240005B0BDE8F08F002DB5BFC3F87E
:104EA000A016C3F8A017C3F8A486C3F8A487B4BF9C
:104EB00058629864EEE700BFC81F002000600350EE
:104EC0001C030020BE23002034F40000D3E20000C5
:104ED000D01D002008B503070AD50849084840F24C
:104EE000076207F05AFD40F20761044807F04CFDE5
:104EF000044B40F48070C3F8180508BD34F400007A
:104F0000D3E2000000600350030713D400F00F0346
:104F100010F0800F084A0BBF03F5887303F5847304
:104F200002EB830252F8230008BF5068003818BF14
:104F300001207047002070470060035008B5030748
:104F40000AD50949094840F2296207F026FD40F2D6
:104F50002961054807F018FD054BC3F80C0540F41E
:104F60008070C3F80C0508BD34F40000D3E20000E3
:104F7000006003500023036043600E4BD3F880248D
:104F80000270D3F884244270D3F88824D3F88C14A8
:104F900042EA01224280D3F89024D3F8941442EAE2
:104FA00001228280D3F89824D3F89C3442EA032368
:104FB000C3807047006003500122014BDA647047E0
:104FC000006003500122014B1A65704700600350D6
:104FD0000122014B5A65704700600350014B18785D
:104FE000704700BFBE23002038B50446EFF311859B
:104FF000202383F31288BFF36F8F03060AD512496B
:10500000124840F2536207F0C8FC40F253610E4868
:1050100007F0BAFCFFF760FA01230D4A03FA00F02B
:10502000136823EA0003136014F0080201BF04F0C0
:105030000F04084B04F5947443F8242085F3118879
:10504000BFF36F8F38BD00BF34F40000D3E200001F
:10505000C41F0020006003502DE9F04F044685B0C6
:10506000EFF31187202383F31288BFF36F8FFFF7CD
:1050700011FA14F0800F0546404E2BD12046FFF761
:105080002BFA4FF00109D6F8008009FA00F030EA57
:1050900008000BD02046FFF7A7FF0323AB7587F36B
:1050A0001188BFF36F8F05B0BDE8F08F28732046DD
:1050B000FFF712FA09FA00F028EA000030602046F3
:1050C000FFF70AFA2E4A09FA00F9136823EA0903DE
:1050D0001360E2E7230715D4802C2A4B41D004F05B
:1050E0000F0202F2DA325200C3F80028D3F8042883
:1050F000D3F80418D2B242F002020A43C3F80428DB
:10510000D3F80438DFF87890D6F800B0D9F800A0CA
:1051100020466BEA0A0301934FF00108FFF7DCF920
:10512000019B08FA00F00342B9D02BEA000030607E
:105130002046FFF7D1F900232B730323062208FA38
:1051400000F8AB758DF80F300F4B48EA0A00C9F82C
:1051500000001B688DF80C208DF80E4003A89847BE
:105160009DE740F2B472C3F80028D3F80428D3F8BE
:105170000418D2B242F00402BFE700BFC01F0020F3
:10518000C41F002000600350C81F002038B504462B
:10519000094D4FF0FF324FF0FF33284604F058FF1F
:1051A0002046FFF759FF284604F0F0FE4FF4800236
:1051B000024BC3F8042138BD1C03002000E100E0CD
:1051C0002DE9F041394D2B7853B9394940F2BA42B3
:1051D000384807F0E2FB40F2BA41354807F0D4FB0B
:1051E0004FF0FF334FF0FF32334804F031FF2B789C
:1051F000022B08D02E4940F2FC422E4807F0CDFB8E
:1052000040F2FC41E9E74FF480022C4B3620C3F812
:105210008421FDF7B9FBA0B14FF00108284F294BBD
:105220003C681B68240C24041C4354BB40F2FF134D
:10523000254E3B603620C6F80445FDF791FBC6F8C5
:105240000043224A13788BB100211F4BC3F8081189
:105250000121C3F80026C3F804165960D3F80811D9
:105260000029FBD00021C3F8081111700022164B51
:10527000C3F80025104804F089FE01232B70BDE817
:10528000F08194FAA4F6B6FA86F630460F2EC6BF21
:10529000A6F11000C0B240F08000030701D4FFF770
:1052A000DBFE08FA06F624EA0604BEE7C023002067
:1052B00034F40000D3E200001C03002000E100E011
:1052C000C41F0020C01F002000600350BC2300202A
:1052D00010B504464FF0FF324FF0FF33114804F091
:1052E000B7FE2046FFF7B8FE012304F00F029340FB
:1052F000DB430D4A14F0800F15BFD2F81015D2F819
:1053000014150B400B4014BFC2F81035C2F8143509
:10531000044804F03BFE4FF48002044BC3F8042120
:1053200010BD00BF1C0300200060035000E100E03E
:1053300070B50446FFF762FA68B9012504F00F0260
:1053400014F0800F144B05FA02F205D0D3F81015B3
:105350000A43C3F8102570BDD3F814150A43C3F8E7
:105360001425631E062BF6D8EFF31186202383F352
:105370001288BFF36F8F2046FFF736FE2046FFF7F7
:10538000ABF8064A8540136823EA0503136086F3E9
:105390001188BFF36F8FDEE700600350C01F00204D
:1053A000020710B504460AD50B490C4840F20F62BB
:1053B00007F0F3FA40F20F61074807F0E5FA030639
:1053C00005D4FFF7A1FD10B12046FFF70DFE044BF9
:1053D000C3F8184510BD00BF34F40000D3E200004C
:1053E0000060035037B540230C460A490093411A28
:1053F000491105462346084A084807F0A6FC011E45
:1054000005DA2846234603B0BDE83040184703B00C
:1054100030BD00BFE01F0020B7CD0000D4D7000092
:10542000C9B2032908B508D9084909487F2207F0FD
:10543000B4FA7F21054807F0A7FA0C22036901FBA3
:105440000233D3F8880000F0070008BD8CF4000098
:10545000D3E2000070B5C9B2032903690AD919491A
:1054600019484FF4DF7207F098FA4FF4DF711548CE
:1054700007F08AFAEFF31185202484F31288BFF332
:105480006F8F0C2606FB0134D4F8884014F0C0045A
:1054900008D0A24206D085F31188BFF36F8F4FF07A
:1054A000FF3070BD012271430B44C3F8882085F39F
:1054B0001188BFF36F8F43680B445B6898470020E7
:1054C000EFE700BF8CF40000D3E2000070B50D469A
:1054D00006490446411A491140220548FFF7BAFF20
:1054E0002B4601462046BDE870401847E01F0020CB
:1054F000D4D700002DE9F8430022012106460520FB
:10550000FDF750FA114802F0AFFB114B984219D148
:1055100002F0BAFB00244FF00C080127DFF83490AA
:105520003569494605EB441007F0A1FA002807DB6E
:1055300008FB04550134042CC5F88870F0D1002014
:10554000BDE8F8836FF00400FAE700BF15560000CD
:105550000000AD0BF4DC00001FB500220123CDE9F3
:1055600002236B46084ACDF800D0CDF804D007F0EE
:105570001BFC002805DB4FF480420023684604F042
:1055800067FD05B05DF804FBE7CD000010B5EFF353
:105590001184202383F31288BFF36F8F074A1368A7
:1055A00023F00201DB07116002D4012002F01AFC93
:1055B00084F31188BFF36F8F10BD00BF90200020CF
:1055C0000C22124B014602FB0033002030B4D3E919
:1055D0002052C3F88000EFF31180202484F3128856
:1055E000BFF36F8FD3F8884004F0C00444F0020486
:1055F000C3F8884080F31188BFF36F8F1DB12B462D
:1056000030BC0348184730BC704700BFE01F002083
:10561000D4D7000008B5092821D8DFE800F0051329
:10562000202020202015110F124BD3F8880010F0F5
:1056300007001DD1BDE80840FFF7C2BF0220F9E70F
:105640000320F7E70120F5E70B4940F2DD220B4884
:1056500007F0A3F940F2DD21074807F095F9064964
:1056600040F2ED22054807F098F940F2ED21F3E70A
:1056700008BD00BFE01F00208CF40000D3E2000052
:1056800010B4EFF31182202383F31288BFF36F8FDE
:105690001848016841F002040460C80707D482F387
:1056A0001188BFF36F8F012010BC02F019BB4FF0BF
:1056B0005021D1F80C04D1F80C14C907EFD5EFF341
:1056C000118083F31288BFF36F8F0B49D1F88830B4
:1056D00003F0C00343F00203C1F8883080F311885F
:1056E000BFF36F8F82F31188BFF36F8F002010BC60
:1056F000FFF766BF90200020E01F0020024BC0B2E1
:1057000003EB4010704700BFE01F00202DE9F0417F
:10571000012206464249D1E8EF3FC1E8E02F0028C8
:10572000F9D19BB93F4940484B60CB608A60FBF799
:105730005DFB00280ADA3D4940F291223C4807F01F
:105740002CF940F29121394807F01EF976B3731E07
:10575000012B5BD8012E07D14FF05023D3F81C3416
:1057600003F00303022B21D007F064FE0546F8B9CD
:10577000304B1B78E3B14FF0502302220746C3F8A9
:1057800008234FF05024DFF8B080D4F81824D4F860
:105790001834D20315D503F00303022B01D0012ED8
:1057A0000FD16DB387F31188BFF36F8FBDE8F08120
:1057B000EFF31187202383F31288BFF36F8F012546
:1057C000DFE7C5B1384607F0E9F9D4F81835DBB2A0
:1057D000012BDAD1D4F80421002AD6D00022C4F853
:1057E0000421D4F804210222C4F818252022C8F884
:1057F0008021A360C9E70021212005F021FDE4E715
:105800004FF050230222C3F80423CFE7074940F2A8
:10581000A322074807F0C1F840F2A32193E700BF95
:10582000DC1F0020CC1F0020002000208CF4000092
:10583000D3E200005E24002000E100E008B5074844
:1058400007F034FD38B10648FDF79EFB0448FBF72E
:10585000BBF8002008BD6FF01200FBE710D8000075
:10586000655800000A2838B50446074D04D1AB68D6
:105870000D2128465B689847AB6803485B68E1B236
:105880009847204638BD00BF10D8000010B5036906
:1058900041B91C493F221C4807F07FF83F211948B5
:1058A00007F072F8486830B916494022164807F0E8
:1058B00074F84021F3E75868F8B1884219D19C6820
:1058C0000868A142586000D19860002008602AB1A1
:1058D0005A680A609A68596002B99960002010E01D
:1058E000814206D10868206098688142EDD19C60B1
:1058F000EBE7044600680028F2D1002AE8D16FF0F7
:10590000150010BD03F50000D3E2000038B545686E
:105910002B69B3B11035284602F0F8FD044680B972
:105920000146284602F0A6FD084B98420BD12246BC
:105930002846074902F06EFD224605210D20FDF79D
:1059400031F8002038BD6FF00400FBE70000AD0B1C
:10595000215C000008B503680246590913D00129EB
:1059600006D14FF6FF7103F01F03D940C80711D4C9
:105970000A490B484FF46C7207F00FF84FF46C7142
:10598000064807F001F84FF0FF31D940C907EFD5BD
:10599000044800E00448136008BD00BF29EE000081
:1059A000D3E200000025845000288450F0B5406800
:1059B00001F01F04057B87B044EA45140569002DFA
:1059C0005BD0B2F5001F00F1100506D12146284634
:1059D00007F053FC002007B0F0BD0027B2F5800FA0
:1059E00001AE0197776033D1B3F1007F14BF052377
:1059F00004238DF804300023CDE904630393836806
:105A0000CB40D90716D4B2F1A07F13D168460094D9
:105A1000FFF7A0FF009B803350F82330DB0709D449
:105A20006A462146284602F0FBFC174B98421AD0E2
:105A3000CDF808D02146284603AA02F0B5FB134B47
:105A400098421DD101222146284602F075FDC1E78A
:105A5000B3F1C06F05D0B3F1007F14BF012302235F
:105A6000C7E70323C5E76946284602F05FFD074BF9
:105A70009842DDD06FF00B00ADE76FF08500AAE72C
:105A80006FF01500A7E700BF0400AD0B0000AD0BE1
:105A90002DE9F043466840F20635337BD00601F02D
:105AA0001F0747EA431748BF032302EA050558BF0B
:105AB000C2F3401387B0B5F5837F14468DF80330E9
:105AC00044D00FD8062D18D007D8B5B1022D3FD03D
:105AD0006FF0150007B0BDE8F083B5F5807FF7D112
